{
  "contractName": "ServiciosUsuario",
  "abi": [
    {
      "inputs": [],
      "payable": false,
      "stateMutability": "nonpayable",
      "type": "constructor"
    },
    {
      "constant": false,
      "inputs": [
        {
          "components": [
            {
              "internalType": "string",
              "name": "first_name",
              "type": "string"
            },
            {
              "internalType": "string",
              "name": "last_name",
              "type": "string"
            },
            {
              "internalType": "string",
              "name": "password",
              "type": "string"
            },
            {
              "internalType": "string",
              "name": "email",
              "type": "string"
            },
            {
              "internalType": "uint256",
              "name": "telefono",
              "type": "uint256"
            },
            {
              "internalType": "string[]",
              "name": "redes",
              "type": "string[]"
            },
            {
              "internalType": "uint256",
              "name": "cedula",
              "type": "uint256"
            }
          ],
          "internalType": "struct ServiciosUsuario.Usuario",
          "name": "_usuario",
          "type": "tuple"
        }
      ],
      "name": "agregarUsuario",
      "outputs": [
        {
          "internalType": "string",
          "name": "",
          "type": "string"
        }
      ],
      "payable": false,
      "stateMutability": "nonpayable",
      "type": "function"
    },
    {
      "constant": true,
      "inputs": [
        {
          "internalType": "uint256",
          "name": "cedula",
          "type": "uint256"
        }
      ],
      "name": "getUsuario",
      "outputs": [
        {
          "components": [
            {
              "internalType": "string",
              "name": "first_name",
              "type": "string"
            },
            {
              "internalType": "string",
              "name": "last_name",
              "type": "string"
            },
            {
              "internalType": "string",
              "name": "password",
              "type": "string"
            },
            {
              "internalType": "string",
              "name": "email",
              "type": "string"
            },
            {
              "internalType": "uint256",
              "name": "telefono",
              "type": "uint256"
            },
            {
              "internalType": "string[]",
              "name": "redes",
              "type": "string[]"
            },
            {
              "internalType": "uint256",
              "name": "cedula",
              "type": "uint256"
            }
          ],
          "internalType": "struct ServiciosUsuario.Usuario",
          "name": "usuario",
          "type": "tuple"
        }
      ],
      "payable": false,
      "stateMutability": "view",
      "type": "function"
    },
    {
      "constant": true,
      "inputs": [],
      "name": "getUsuarios",
      "outputs": [
        {
          "components": [
            {
              "internalType": "string",
              "name": "first_name",
              "type": "string"
            },
            {
              "internalType": "string",
              "name": "last_name",
              "type": "string"
            },
            {
              "internalType": "string",
              "name": "password",
              "type": "string"
            },
            {
              "internalType": "string",
              "name": "email",
              "type": "string"
            },
            {
              "internalType": "uint256",
              "name": "telefono",
              "type": "uint256"
            },
            {
              "internalType": "string[]",
              "name": "redes",
              "type": "string[]"
            },
            {
              "internalType": "uint256",
              "name": "cedula",
              "type": "uint256"
            }
          ],
          "internalType": "struct ServiciosUsuario.Usuario[]",
          "name": "usuario",
          "type": "tuple[]"
        }
      ],
      "payable": false,
      "stateMutability": "view",
      "type": "function"
    }
  ],
  "bytecode": "0x60806040523480156200001157600080fd5b506200001c6200031c565b6040518060400160405280600e81526020017f46656c697065205061636865636f00000000000000000000000000000000000081525081600001819052506040518060400160405280600e81526020017f5061636865636f2043657264617300000000000000000000000000000000000081525081602001819052506040518060400160405280600781526020017f66656c7075646f0000000000000000000000000000000000000000000000000081525081604001819052506040518060400160405280601681526020017f66656c69706570616365303940676d61696c2e636f6d00000000000000000000815250816060018190525063051e1919816080018181525050606060026040519080825280602002602001820160405280156200015b57816020015b6060815260200190600190039081620001455790505b5090506040518060400160405280601681526020017f46616365626f6f6b3a2066656c6970657061636530390000000000000000000081525081600081518110620001a257fe5b60200260200101819052506040518060400160405280601481526020017f496e737472616772616d3a2066656c697065303900000000000000000000000081525081600181518110620001f157fe5b6020026020010181905250808260a0018190525063123237688260c0018181525050600080549050600160008460c001518152602001908152602001600020819055506000829080600181540180825580915050906001820390600052602060002090600702016000909192909190915060008201518160000190805190602001906200028092919062000359565b5060208201518160010190805190602001906200029f92919062000359565b506040820151816002019080519060200190620002be92919062000359565b506060820151816003019080519060200190620002dd92919062000359565b506080820151816004015560a082015181600501908051906020019062000306929190620003e0565b5060c082015181600601555050505050620004ec565b6040518060e00160405280606081526020016060815260200160608152602001606081526020016000815260200160608152602001600081525090565b828054600181600116156101000203166002900490600052602060002090601f016020900481019282601f106200039c57805160ff1916838001178555620003cd565b82800160010185558215620003cd579182015b82811115620003cc578251825591602001919060010190620003af565b5b509050620003dc919062000447565b5090565b82805482825590600052602060002090810192821562000434579160200282015b82811115620004335782518290805190602001906200042292919062000359565b509160200191906001019062000401565b5b5090506200044391906200046f565b5090565b6200046c91905b80821115620004685760008160009055506001016200044e565b5090565b90565b6200049d91905b808211156200049957600081816200048f9190620004a0565b5060010162000476565b5090565b90565b50805460018160011615610100020316600290046000825580601f10620004c85750620004e9565b601f016020900490600052602060002090810190620004e8919062000447565b5b50565b61137980620004fc6000396000f3fe608060405234801561001057600080fd5b50600436106100415760003560e01c80633e0b774e1461004657806383d9861514610076578063b51cf23a14610094575b600080fd5b610060600480360361005b9190810190610dc4565b6100c4565b60405161006d9190611153565b60405180910390f35b61007e610258565b60405161008b9190611131565b60405180910390f35b6100ae60048036036100a99190810190610e05565b61063c565b6040516100bb9190611175565b60405180910390f35b60606000600160008460c00151815260200190815260200160002054141561021a57600080549050600160008460c00151815260200190815260200160002081905550600082908060018154018082558091505090600182039060005260206000209060070201600090919290919091506000820151816000019080519060200190610151929190610a09565b50602082015181600101908051906020019061016e929190610a09565b50604082015181600201908051906020019061018b929190610a09565b5060608201518160030190805190602001906101a8929190610a09565b506080820151816004015560a08201518160050190805190602001906101cf929190610a89565b5060c082015181600601555050506040518060400160405280600181526020017f53000000000000000000000000000000000000000000000000000000000000008152509050610253565b6040518060400160405280600181526020017f460000000000000000000000000000000000000000000000000000000000000081525090505b919050565b60606000805480602002602001604051908101604052809291908181526020016000905b8282101561063357838290600052602060002090600702016040518060e0016040529081600082018054600181600116156101000203166002900480601f0160208091040260200160405190810160405280929190818152602001828054600181600116156101000203166002900480156103385780601f1061030d57610100808354040283529160200191610338565b820191906000526020600020905b81548152906001019060200180831161031b57829003601f168201915b50505050508152602001600182018054600181600116156101000203166002900480601f0160208091040260200160405190810160405280929190818152602001828054600181600116156101000203166002900480156103da5780601f106103af576101008083540402835291602001916103da565b820191906000526020600020905b8154815290600101906020018083116103bd57829003601f168201915b50505050508152602001600282018054600181600116156101000203166002900480601f01602080910402602001604051908101604052809291908181526020018280546001816001161561010002031660029004801561047c5780601f106104515761010080835404028352916020019161047c565b820191906000526020600020905b81548152906001019060200180831161045f57829003601f168201915b50505050508152602001600382018054600181600116156101000203166002900480601f01602080910402602001604051908101604052809291908181526020018280546001816001161561010002031660029004801561051e5780601f106104f35761010080835404028352916020019161051e565b820191906000526020600020905b81548152906001019060200180831161050157829003601f168201915b505050505081526020016004820154815260200160058201805480602002602001604051908101604052809291908181526020016000905b82821015610612578382906000526020600020018054600181600116156101000203166002900480601f0160208091040260200160405190810160405280929190818152602001828054600181600116156101000203166002900480156105fe5780601f106105d3576101008083540402835291602001916105fe565b820191906000526020600020905b8154815290600101906020018083116105e157829003601f168201915b505050505081526020019060010190610556565b5050505081526020016006820154815250508152602001906001019061027c565b50505050905090565b610644610ae9565b600060016000848152602001908152602001600020548154811061066457fe5b90600052602060002090600702016040518060e0016040529081600082018054600181600116156101000203166002900480601f0160208091040260200160405190810160405280929190818152602001828054600181600116156101000203166002900480156107165780601f106106eb57610100808354040283529160200191610716565b820191906000526020600020905b8154815290600101906020018083116106f957829003601f168201915b50505050508152602001600182018054600181600116156101000203166002900480601f0160208091040260200160405190810160405280929190818152602001828054600181600116156101000203166002900480156107b85780601f1061078d576101008083540402835291602001916107b8565b820191906000526020600020905b81548152906001019060200180831161079b57829003601f168201915b50505050508152602001600282018054600181600116156101000203166002900480601f01602080910402602001604051908101604052809291908181526020018280546001816001161561010002031660029004801561085a5780601f1061082f5761010080835404028352916020019161085a565b820191906000526020600020905b81548152906001019060200180831161083d57829003601f168201915b50505050508152602001600382018054600181600116156101000203166002900480601f0160208091040260200160405190810160405280929190818152602001828054600181600116156101000203166002900480156108fc5780601f106108d1576101008083540402835291602001916108fc565b820191906000526020600020905b8154815290600101906020018083116108df57829003601f168201915b505050505081526020016004820154815260200160058201805480602002602001604051908101604052809291908181526020016000905b828210156109f0578382906000526020600020018054600181600116156101000203166002900480601f0160208091040260200160405190810160405280929190818152602001828054600181600116156101000203166002900480156109dc5780601f106109b1576101008083540402835291602001916109dc565b820191906000526020600020905b8154815290600101906020018083116109bf57829003601f168201915b505050505081526020019060010190610934565b5050505081526020016006820154815250509050919050565b828054600181600116156101000203166002900490600052602060002090601f016020900481019282601f10610a4a57805160ff1916838001178555610a78565b82800160010185558215610a78579182015b82811115610a77578251825591602001919060010190610a5c565b5b509050610a859190610b26565b5090565b828054828255906000526020600020908101928215610ad8579160200282015b82811115610ad7578251829080519060200190610ac7929190610a09565b5091602001919060010190610aa9565b5b509050610ae59190610b4b565b5090565b6040518060e00160405280606081526020016060815260200160608152602001606081526020016000815260200160608152602001600081525090565b610b4891905b80821115610b44576000816000905550600101610b2c565b5090565b90565b610b7491905b80821115610b705760008181610b679190610b77565b50600101610b51565b5090565b90565b50805460018160011615610100020316600290046000825580601f10610b9d5750610bbc565b601f016020900490600052602060002090810190610bbb9190610b26565b5b50565b600082601f830112610bd057600080fd5b8135610be3610bde826111c4565b611197565b9150818183526020840193506020810190508360005b83811015610c295781358601610c0f8882610c33565b845260208401935060208301925050600181019050610bf9565b5050505092915050565b600082601f830112610c4457600080fd5b8135610c57610c52826111ec565b611197565b91508082526020830160208301858383011115610c7357600080fd5b610c7e8382846112cc565b50505092915050565b600060e08284031215610c9957600080fd5b610ca360e0611197565b9050600082013567ffffffffffffffff811115610cbf57600080fd5b610ccb84828501610c33565b600083015250602082013567ffffffffffffffff811115610ceb57600080fd5b610cf784828501610c33565b602083015250604082013567ffffffffffffffff811115610d1757600080fd5b610d2384828501610c33565b604083015250606082013567ffffffffffffffff811115610d4357600080fd5b610d4f84828501610c33565b6060830152506080610d6384828501610daf565b60808301525060a082013567ffffffffffffffff811115610d8357600080fd5b610d8f84828501610bbf565b60a08301525060c0610da384828501610daf565b60c08301525092915050565b600081359050610dbe8161131f565b92915050565b600060208284031215610dd657600080fd5b600082013567ffffffffffffffff811115610df057600080fd5b610dfc84828501610c87565b91505092915050565b600060208284031215610e1757600080fd5b6000610e2584828501610daf565b91505092915050565b6000610e3a8383610f79565b905092915050565b6000610e4e838361106a565b905092915050565b6000610e6182611238565b610e6b818561127e565b935083602082028501610e7d85611218565b8060005b85811015610eb95784840389528151610e9a8582610e2e565b9450610ea583611264565b925060208a01995050600181019050610e81565b50829750879550505050505092915050565b6000610ed682611243565b610ee0818561128f565b935083602082028501610ef285611228565b8060005b85811015610f2e5784840389528151610f0f8582610e42565b9450610f1a83611271565b925060208a01995050600181019050610ef6565b50829750879550505050505092915050565b6000610f4b82611259565b610f5581856112b1565b9350610f658185602086016112db565b610f6e8161130e565b840191505092915050565b6000610f848261124e565b610f8e81856112a0565b9350610f9e8185602086016112db565b610fa78161130e565b840191505092915050565b600060e0830160008301518482036000860152610fcf8282610f79565b91505060208301518482036020860152610fe98282610f79565b915050604083015184820360408601526110038282610f79565b9150506060830151848203606086015261101d8282610f79565b91505060808301516110326080860182611122565b5060a083015184820360a086015261104a8282610e56565b91505060c083015161105f60c0860182611122565b508091505092915050565b600060e08301600083015184820360008601526110878282610f79565b915050602083015184820360208601526110a18282610f79565b915050604083015184820360408601526110bb8282610f79565b915050606083015184820360608601526110d58282610f79565b91505060808301516110ea6080860182611122565b5060a083015184820360a08601526111028282610e56565b91505060c083015161111760c0860182611122565b508091505092915050565b61112b816112c2565b82525050565b6000602082019050818103600083015261114b8184610ecb565b905092915050565b6000602082019050818103600083015261116d8184610f40565b905092915050565b6000602082019050818103600083015261118f8184610fb2565b905092915050565b6000604051905081810181811067ffffffffffffffff821117156111ba57600080fd5b8060405250919050565b600067ffffffffffffffff8211156111db57600080fd5b602082029050602081019050919050565b600067ffffffffffffffff82111561120357600080fd5b601f19601f8301169050602081019050919050565b6000819050602082019050919050565b6000819050602082019050919050565b600081519050919050565b600081519050919050565b600081519050919050565b600081519050919050565b6000602082019050919050565b6000602082019050919050565b600082825260208201905092915050565b600082825260208201905092915050565b600082825260208201905092915050565b600082825260208201905092915050565b6000819050919050565b82818337600083830152505050565b60005b838110156112f95780820151818401526020810190506112de565b83811115611308576000848401525b50505050565b6000601f19601f8301169050919050565b611328816112c2565b811461133357600080fd5b5056fea365627a7a7231582018cb31ab24954c664d230ee54264df7bf5e0fefc60d0635fa73d19ba2a195caa6c6578706572696d656e74616cf564736f6c63430005100040",
  "source": "pragma solidity >=0.4.21 <0.7.0;\r\npragma experimental ABIEncoderV2;\r\n\r\ncontract ServiciosUsuario {\r\n    Usuario[] usuarios;\r\n    mapping(uint256 => uint256) usuariosMap;\r\n\r\n    struct Usuario {\r\n        string first_name;\r\n        string last_name;\r\n        string password;\r\n        string email;\r\n        uint256 telefono;\r\n        string[] redes;\r\n        uint256 cedula;\r\n    }\r\n\r\n    constructor() public {\r\n        Usuario memory usuario_;\r\n\r\n        usuario_.first_name = \"Felipe Pacheco\";\r\n        usuario_.last_name = \"Pacheco Cerdas\";\r\n        usuario_.password = \"felpudo\";\r\n        usuario_.email = \"felipepace09@gmail.com\";\r\n        usuario_.telefono = 85858585;\r\n        string[] memory rrss = new string[](2);\r\n        rrss[0] = \"Facebook: felipepace09\";\r\n        rrss[1] = \"Instragram: felipe09\";\r\n        usuario_.redes = rrss;\r\n        usuario_.cedula = 305280872;\r\n\r\n        usuariosMap[usuario_.cedula] = usuarios.length;\r\n        usuarios.push(usuario_);\r\n    }\r\n\r\n    function agregarUsuario(Usuario memory _usuario) public returns (string memory){\r\n        if(usuariosMap[_usuario.cedula] == 0){\r\n            usuariosMap[_usuario.cedula] = usuarios.length;\r\n            usuarios.push(_usuario);\r\n            return \"S\";\r\n        } else {\r\n            return \"F\";\r\n        }\r\n    }\r\n\r\n    function getUsuario(uint256 cedula)\r\n        public\r\n        view\r\n        returns (Usuario memory usuario)\r\n    {\r\n        return usuarios[usuariosMap[cedula]];\r\n    }\r\n\r\n    function getUsuarios() public view returns (Usuario[] memory usuario) {\r\n        return usuarios;\r\n    }\r\n}\r\n\r\ncontract ServiciosAcreditacion {\r\n    Acreditacion[] acreditaciones;\r\n\r\n    AspiranteAcreditacion[] aspirantes;\r\n\r\n    struct AspiranteAcreditacion {\r\n        uint256 idAcreditacion;\r\n        uint256 idAspirante;\r\n        string estado;\r\n        string resultado;\r\n        string descripcionResultado;\r\n    }\r\n\r\n    struct Acreditacion {\r\n        string titulo;\r\n        uint256 idAcreditacion;\r\n        uint256 idAcreditador;\r\n        string conocimiento;\r\n        string tipoMedio;\r\n        string[] contenidos;\r\n        string descripcion;\r\n        uint256 ignos;\r\n        uint256 virtus;\r\n    }\r\n\r\n    constructor() public {\r\n        Acreditacion memory acreditacion_;\r\n        acreditacion_.titulo = \"Python Basics\";\r\n        acreditacion_.idAcreditacion = 1;\r\n        acreditacion_.idAcreditador = 305280872;\r\n        acreditacion_\r\n            .conocimiento = \"Ciencias de la Computacion: Lenguajes de Programacion\";\r\n        acreditacion_.tipoMedio = \"Examen Práctico\";\r\n        string[] memory ct = new string[](2);\r\n        ct[0] = \"Funciones\";\r\n        ct[1] = \"Excepciones\";\r\n        acreditacion_.contenidos = ct;\r\n        acreditacion_\r\n            .descripcion = \"En este curso aprenderás sobre el arte y la ciencia del anime\";\r\n        acreditacion_.ignos = 0;\r\n        acreditacion_.ignos = 0;\r\n\r\n        acreditaciones.push(acreditacion_);\r\n\r\n        AspiranteAcreditacion memory acreditacionAspirante_;\r\n        acreditacionAspirante_.idAcreditacion = 1;\r\n        acreditacionAspirante_.idAspirante = 302220222;\r\n        acreditacionAspirante_.estado = \"Finalizado\";\r\n        acreditacionAspirante_.resultado = \"96: Aprobado\";\r\n        acreditacionAspirante_\r\n            .descripcionResultado = \"El curso fue aprobado con muy buenas calificaciones\";\r\n\r\n        aspirantes.push(acreditacionAspirante_);\r\n    }\r\n\r\n    function agregarAcreditacion(Acreditacion memory _acreditacion) public {\r\n        acreditaciones.push(_acreditacion);\r\n    }\r\n\r\n    function getAcreditacion(string memory conocimiento, string memory titulo)\r\n        public\r\n        view\r\n        returns (Acreditacion memory acreditacion)\r\n    {\r\n        for (uint256 i = 0; i < acreditaciones.length; i++) {\r\n            if (\r\n                keccak256(bytes(acreditaciones[i].conocimiento)) ==\r\n                keccak256(bytes(conocimiento)) &&\r\n                keccak256(bytes(acreditaciones[i].titulo)) ==\r\n                keccak256(bytes(titulo))\r\n            ) return acreditaciones[i];\r\n        }\r\n    }\r\n\r\n    function getAcreditaciones()\r\n        public\r\n        view\r\n        returns (Acreditacion[] memory acreditacion)\r\n    {\r\n        return acreditaciones;\r\n    }\r\n\r\n    /* Aspirante */\r\n\r\n    function agregarAspiranteAcreditacion(\r\n        AspiranteAcreditacion memory _acreditacionAspirante\r\n    ) public {\r\n        aspirantes.push(_acreditacionAspirante);\r\n    }\r\n\r\n    function getAspiranteAcreditacion(uint256 idUsuario, uint256 idAcreditacion)\r\n        public\r\n        view\r\n        returns (AspiranteAcreditacion memory acreditacionAspirante)\r\n    {\r\n        for (uint256 i = 0; i < aspirantes.length; i++) {\r\n            if (\r\n                aspirantes[i].idAcreditacion == idAcreditacion &&\r\n                aspirantes[i].idAspirante == idUsuario\r\n            ) return aspirantes[i];\r\n        }\r\n    }\r\n\r\n    function getAspirantes()\r\n        public\r\n        view\r\n        returns (AspiranteAcreditacion[] memory acreditacionAspirante)\r\n    {\r\n        return aspirantes;\r\n    }\r\n\r\n    function getAspirantesPorAcreditacion(uint256 idAcreditacion)\r\n        public\r\n        view\r\n        returns (AspiranteAcreditacion[] memory acreditacionAspirante)\r\n    {\r\n        AspiranteAcreditacion[] memory res = new AspiranteAcreditacion[](\r\n            aspirantes.length\r\n        );\r\n        uint256 j = 0;\r\n        for (uint256 i = 0; i < aspirantes.length; i++) {\r\n            if (aspirantes[i].idAcreditacion == idAcreditacion) {\r\n                res[j] = aspirantes[i];\r\n                j++;\r\n            }\r\n        }\r\n        return res;\r\n    }\r\n}\r\n",
  "sourcePath": "C:\\Users\\lopez\\Documents\\GitHub\\KAPlatform\\contracts\\ContratosAplicacion.sol",
  "compiler": {
    "name": "solc",
    "version": "0.5.16+commit.9c3226ce.Emscripten.clang"
  },
  "schemaVersion": "3.2.0",
  "updatedAt": "2020-07-16T03:25:57.381Z",
  "devdoc": {
    "methods": {}
  },
  "userdoc": {
    "methods": {}
  }
}