{
  "contractName": "ServiciosUsuario",
  "abi": [
    {
      "inputs": [],
      "payable": false,
      "stateMutability": "nonpayable",
      "type": "constructor"
    },
    {
      "constant": false,
      "inputs": [
        {
          "components": [
            {
              "internalType": "string",
              "name": "nombre",
              "type": "string"
            },
            {
              "internalType": "string",
              "name": "apellidos",
              "type": "string"
            },
            {
              "internalType": "string",
              "name": "contrasenna",
              "type": "string"
            },
            {
              "internalType": "string",
              "name": "correoElectronico",
              "type": "string"
            },
            {
              "internalType": "uint256",
              "name": "numeroTelefonico",
              "type": "uint256"
            },
            {
              "internalType": "string[]",
              "name": "redesSociales",
              "type": "string[]"
            },
            {
              "internalType": "uint256",
              "name": "cedula",
              "type": "uint256"
            }
          ],
          "internalType": "struct ServiciosUsuario.Usuario",
          "name": "_usuario",
          "type": "tuple"
        }
      ],
      "name": "agregarUsuario",
      "outputs": [],
      "payable": false,
      "stateMutability": "nonpayable",
      "type": "function"
    },
    {
      "constant": true,
      "inputs": [
        {
          "internalType": "uint256",
          "name": "cedula",
          "type": "uint256"
        }
      ],
      "name": "getUsuario",
      "outputs": [
        {
          "components": [
            {
              "internalType": "string",
              "name": "nombre",
              "type": "string"
            },
            {
              "internalType": "string",
              "name": "apellidos",
              "type": "string"
            },
            {
              "internalType": "string",
              "name": "contrasenna",
              "type": "string"
            },
            {
              "internalType": "string",
              "name": "correoElectronico",
              "type": "string"
            },
            {
              "internalType": "uint256",
              "name": "numeroTelefonico",
              "type": "uint256"
            },
            {
              "internalType": "string[]",
              "name": "redesSociales",
              "type": "string[]"
            },
            {
              "internalType": "uint256",
              "name": "cedula",
              "type": "uint256"
            }
          ],
          "internalType": "struct ServiciosUsuario.Usuario",
          "name": "usuario",
          "type": "tuple"
        }
      ],
      "payable": false,
      "stateMutability": "view",
      "type": "function"
    },
    {
      "constant": true,
      "inputs": [],
      "name": "getUsuarios",
      "outputs": [
        {
          "components": [
            {
              "internalType": "string",
              "name": "nombre",
              "type": "string"
            },
            {
              "internalType": "string",
              "name": "apellidos",
              "type": "string"
            },
            {
              "internalType": "string",
              "name": "contrasenna",
              "type": "string"
            },
            {
              "internalType": "string",
              "name": "correoElectronico",
              "type": "string"
            },
            {
              "internalType": "uint256",
              "name": "numeroTelefonico",
              "type": "uint256"
            },
            {
              "internalType": "string[]",
              "name": "redesSociales",
              "type": "string[]"
            },
            {
              "internalType": "uint256",
              "name": "cedula",
              "type": "uint256"
            }
          ],
          "internalType": "struct ServiciosUsuario.Usuario[]",
          "name": "usuario",
          "type": "tuple[]"
        }
      ],
      "payable": false,
      "stateMutability": "view",
      "type": "function"
    }
  ],
  "bytecode": "0x60806040523480156200001157600080fd5b506200001c6200031c565b6040518060400160405280600e81526020017f46656c697065205061636865636f00000000000000000000000000000000000081525081600001819052506040518060400160405280600e81526020017f5061636865636f2043657264617300000000000000000000000000000000000081525081602001819052506040518060400160405280600781526020017f66656c7075646f0000000000000000000000000000000000000000000000000081525081604001819052506040518060400160405280601681526020017f66656c69706570616365303940676d61696c2e636f6d00000000000000000000815250816060018190525063051e1919816080018181525050606060026040519080825280602002602001820160405280156200015b57816020015b6060815260200190600190039081620001455790505b5090506040518060400160405280601681526020017f46616365626f6f6b3a2066656c6970657061636530390000000000000000000081525081600081518110620001a257fe5b60200260200101819052506040518060400160405280601481526020017f496e737472616772616d3a2066656c697065303900000000000000000000000081525081600181518110620001f157fe5b6020026020010181905250808260a0018190525063123237688260c0018181525050600080549050600160008460c001518152602001908152602001600020819055506000829080600181540180825580915050906001820390600052602060002090600702016000909192909190915060008201518160000190805190602001906200028092919062000359565b5060208201518160010190805190602001906200029f92919062000359565b506040820151816002019080519060200190620002be92919062000359565b506060820151816003019080519060200190620002dd92919062000359565b506080820151816004015560a082015181600501908051906020019062000306929190620003e0565b5060c082015181600601555050505050620004ec565b6040518060e00160405280606081526020016060815260200160608152602001606081526020016000815260200160608152602001600081525090565b828054600181600116156101000203166002900490600052602060002090601f016020900481019282601f106200039c57805160ff1916838001178555620003cd565b82800160010185558215620003cd579182015b82811115620003cc578251825591602001919060010190620003af565b5b509050620003dc919062000447565b5090565b82805482825590600052602060002090810192821562000434579160200282015b82811115620004335782518290805190602001906200042292919062000359565b509160200191906001019062000401565b5b5090506200044391906200046f565b5090565b6200046c91905b80821115620004685760008160009055506001016200044e565b5090565b90565b6200049d91905b808211156200049957600081816200048f9190620004a0565b5060010162000476565b5090565b90565b50805460018160011615610100020316600290046000825580601f10620004c85750620004e9565b601f016020900490600052602060002090810190620004e8919062000447565b5b50565b61125480620004fc6000396000f3fe608060405234801561001057600080fd5b50600436106100415760003560e01c80633e0b774e1461004657806383d9861514610062578063b51cf23a14610080575b600080fd5b610060600480360361005b9190810190610d16565b6100b0565b005b61006a6101aa565b604051610077919061104a565b60405180910390f35b61009a60048036036100959190810190610d57565b61058e565b6040516100a7919061106c565b60405180910390f35b600080549050600160008360c0015181526020019081526020016000208190555060008190806001815401808255809150509060018203906000526020600020906007020160009091929091909150600082015181600001908051906020019061011b92919061095b565b50602082015181600101908051906020019061013892919061095b565b50604082015181600201908051906020019061015592919061095b565b50606082015181600301908051906020019061017292919061095b565b506080820151816004015560a08201518160050190805190602001906101999291906109db565b5060c0820151816006015550505050565b60606000805480602002602001604051908101604052809291908181526020016000905b8282101561058557838290600052602060002090600702016040518060e0016040529081600082018054600181600116156101000203166002900480601f01602080910402602001604051908101604052809291908181526020018280546001816001161561010002031660029004801561028a5780601f1061025f5761010080835404028352916020019161028a565b820191906000526020600020905b81548152906001019060200180831161026d57829003601f168201915b50505050508152602001600182018054600181600116156101000203166002900480601f01602080910402602001604051908101604052809291908181526020018280546001816001161561010002031660029004801561032c5780601f106103015761010080835404028352916020019161032c565b820191906000526020600020905b81548152906001019060200180831161030f57829003601f168201915b50505050508152602001600282018054600181600116156101000203166002900480601f0160208091040260200160405190810160405280929190818152602001828054600181600116156101000203166002900480156103ce5780601f106103a3576101008083540402835291602001916103ce565b820191906000526020600020905b8154815290600101906020018083116103b157829003601f168201915b50505050508152602001600382018054600181600116156101000203166002900480601f0160208091040260200160405190810160405280929190818152602001828054600181600116156101000203166002900480156104705780601f1061044557610100808354040283529160200191610470565b820191906000526020600020905b81548152906001019060200180831161045357829003601f168201915b505050505081526020016004820154815260200160058201805480602002602001604051908101604052809291908181526020016000905b82821015610564578382906000526020600020018054600181600116156101000203166002900480601f0160208091040260200160405190810160405280929190818152602001828054600181600116156101000203166002900480156105505780601f1061052557610100808354040283529160200191610550565b820191906000526020600020905b81548152906001019060200180831161053357829003601f168201915b5050505050815260200190600101906104a8565b505050508152602001600682015481525050815260200190600101906101ce565b50505050905090565b610596610a3b565b60006001600084815260200190815260200160002054815481106105b657fe5b90600052602060002090600702016040518060e0016040529081600082018054600181600116156101000203166002900480601f0160208091040260200160405190810160405280929190818152602001828054600181600116156101000203166002900480156106685780601f1061063d57610100808354040283529160200191610668565b820191906000526020600020905b81548152906001019060200180831161064b57829003601f168201915b50505050508152602001600182018054600181600116156101000203166002900480601f01602080910402602001604051908101604052809291908181526020018280546001816001161561010002031660029004801561070a5780601f106106df5761010080835404028352916020019161070a565b820191906000526020600020905b8154815290600101906020018083116106ed57829003601f168201915b50505050508152602001600282018054600181600116156101000203166002900480601f0160208091040260200160405190810160405280929190818152602001828054600181600116156101000203166002900480156107ac5780601f10610781576101008083540402835291602001916107ac565b820191906000526020600020905b81548152906001019060200180831161078f57829003601f168201915b50505050508152602001600382018054600181600116156101000203166002900480601f01602080910402602001604051908101604052809291908181526020018280546001816001161561010002031660029004801561084e5780601f106108235761010080835404028352916020019161084e565b820191906000526020600020905b81548152906001019060200180831161083157829003601f168201915b505050505081526020016004820154815260200160058201805480602002602001604051908101604052809291908181526020016000905b82821015610942578382906000526020600020018054600181600116156101000203166002900480601f01602080910402602001604051908101604052809291908181526020018280546001816001161561010002031660029004801561092e5780601f106109035761010080835404028352916020019161092e565b820191906000526020600020905b81548152906001019060200180831161091157829003601f168201915b505050505081526020019060010190610886565b5050505081526020016006820154815250509050919050565b828054600181600116156101000203166002900490600052602060002090601f016020900481019282601f1061099c57805160ff19168380011785556109ca565b828001600101855582156109ca579182015b828111156109c95782518255916020019190600101906109ae565b5b5090506109d79190610a78565b5090565b828054828255906000526020600020908101928215610a2a579160200282015b82811115610a29578251829080519060200190610a1992919061095b565b50916020019190600101906109fb565b5b509050610a379190610a9d565b5090565b6040518060e00160405280606081526020016060815260200160608152602001606081526020016000815260200160608152602001600081525090565b610a9a91905b80821115610a96576000816000905550600101610a7e565b5090565b90565b610ac691905b80821115610ac25760008181610ab99190610ac9565b50600101610aa3565b5090565b90565b50805460018160011615610100020316600290046000825580601f10610aef5750610b0e565b601f016020900490600052602060002090810190610b0d9190610a78565b5b50565b600082601f830112610b2257600080fd5b8135610b35610b30826110bb565b61108e565b9150818183526020840193506020810190508360005b83811015610b7b5781358601610b618882610b85565b845260208401935060208301925050600181019050610b4b565b5050505092915050565b600082601f830112610b9657600080fd5b8135610ba9610ba4826110e3565b61108e565b91508082526020830160208301858383011115610bc557600080fd5b610bd08382846111a7565b50505092915050565b600060e08284031215610beb57600080fd5b610bf560e061108e565b9050600082013567ffffffffffffffff811115610c1157600080fd5b610c1d84828501610b85565b600083015250602082013567ffffffffffffffff811115610c3d57600080fd5b610c4984828501610b85565b602083015250604082013567ffffffffffffffff811115610c6957600080fd5b610c7584828501610b85565b604083015250606082013567ffffffffffffffff811115610c9557600080fd5b610ca184828501610b85565b6060830152506080610cb584828501610d01565b60808301525060a082013567ffffffffffffffff811115610cd557600080fd5b610ce184828501610b11565b60a08301525060c0610cf584828501610d01565b60c08301525092915050565b600081359050610d10816111fa565b92915050565b600060208284031215610d2857600080fd5b600082013567ffffffffffffffff811115610d4257600080fd5b610d4e84828501610bd9565b91505092915050565b600060208284031215610d6957600080fd5b6000610d7784828501610d01565b91505092915050565b6000610d8c8383610e92565b905092915050565b6000610da08383610f83565b905092915050565b6000610db38261112f565b610dbd818561116a565b935083602082028501610dcf8561110f565b8060005b85811015610e0b5784840389528151610dec8582610d80565b9450610df783611150565b925060208a01995050600181019050610dd3565b50829750879550505050505092915050565b6000610e288261113a565b610e32818561117b565b935083602082028501610e448561111f565b8060005b85811015610e805784840389528151610e618582610d94565b9450610e6c8361115d565b925060208a01995050600181019050610e48565b50829750879550505050505092915050565b6000610e9d82611145565b610ea7818561118c565b9350610eb78185602086016111b6565b610ec0816111e9565b840191505092915050565b600060e0830160008301518482036000860152610ee88282610e92565b91505060208301518482036020860152610f028282610e92565b91505060408301518482036040860152610f1c8282610e92565b91505060608301518482036060860152610f368282610e92565b9150506080830151610f4b608086018261103b565b5060a083015184820360a0860152610f638282610da8565b91505060c0830151610f7860c086018261103b565b508091505092915050565b600060e0830160008301518482036000860152610fa08282610e92565b91505060208301518482036020860152610fba8282610e92565b91505060408301518482036040860152610fd48282610e92565b91505060608301518482036060860152610fee8282610e92565b9150506080830151611003608086018261103b565b5060a083015184820360a086015261101b8282610da8565b91505060c083015161103060c086018261103b565b508091505092915050565b6110448161119d565b82525050565b600060208201905081810360008301526110648184610e1d565b905092915050565b600060208201905081810360008301526110868184610ecb565b905092915050565b6000604051905081810181811067ffffffffffffffff821117156110b157600080fd5b8060405250919050565b600067ffffffffffffffff8211156110d257600080fd5b602082029050602081019050919050565b600067ffffffffffffffff8211156110fa57600080fd5b601f19601f8301169050602081019050919050565b6000819050602082019050919050565b6000819050602082019050919050565b600081519050919050565b600081519050919050565b600081519050919050565b6000602082019050919050565b6000602082019050919050565b600082825260208201905092915050565b600082825260208201905092915050565b600082825260208201905092915050565b6000819050919050565b82818337600083830152505050565b60005b838110156111d45780820151818401526020810190506111b9565b838111156111e3576000848401525b50505050565b6000601f19601f8301169050919050565b6112038161119d565b811461120e57600080fd5b5056fea365627a7a723158207b67c40ba758e42724937dad4968a54e8ee742b98972a07b25cd6f5749ce86a96c6578706572696d656e74616cf564736f6c63430005100040",
  "source": "pragma solidity >=0.4.21 <0.7.0;\r\npragma experimental ABIEncoderV2;\r\n\r\ncontract ServiciosUsuario {\r\n    Usuario[] usuarios;\r\n    mapping(uint256 => uint256) usuariosMap;\r\n\r\n    struct Usuario {\r\n        string nombre;\r\n        string apellidos;\r\n        string contrasenna;\r\n        string correoElectronico;\r\n        uint256 numeroTelefonico;\r\n        string[] redesSociales;\r\n        uint256 cedula;\r\n    }\r\n\r\n    constructor() public {\r\n        Usuario memory usuario_;\r\n\r\n        usuario_.nombre = \"Felipe Pacheco\";\r\n        usuario_.apellidos = \"Pacheco Cerdas\";\r\n        usuario_.contrasenna = \"felpudo\";\r\n        usuario_.correoElectronico = \"felipepace09@gmail.com\";\r\n        usuario_.numeroTelefonico = 85858585;\r\n        string[] memory rrss = new string[](2);\r\n        rrss[0] = \"Facebook: felipepace09\";\r\n        rrss[1] = \"Instragram: felipe09\";\r\n        usuario_.redesSociales = rrss;\r\n        usuario_.cedula = 305280872;\r\n\r\n        usuariosMap[usuario_.cedula] = usuarios.length;\r\n        usuarios.push(usuario_);\r\n    }\r\n\r\n    function agregarUsuario(Usuario memory _usuario) public {\r\n        usuariosMap[_usuario.cedula] = usuarios.length;\r\n        usuarios.push(_usuario);\r\n    }\r\n\r\n    function getUsuario(uint256 cedula)\r\n        public\r\n        view\r\n        returns (Usuario memory usuario)\r\n    {\r\n        return usuarios[usuariosMap[cedula]];\r\n    }\r\n\r\n    function getUsuarios() public view returns (Usuario[] memory usuario) {\r\n        return usuarios;\r\n    }\r\n}\r\n\r\ncontract ServiciosAcreditacion {\r\n    Acreditacion[] acreditaciones;\r\n\r\n    AspiranteAcreditacion[] aspirantes;\r\n\r\n    struct AspiranteAcreditacion {\r\n        uint256 idAcreditacion;\r\n        uint256 idAspirante;\r\n        string estado;\r\n        string resultado;\r\n        string descripcionResultado;\r\n    }\r\n\r\n    struct Acreditacion {\r\n        string titulo;\r\n        uint256 idAcreditacion;\r\n        uint256 idAcreditador;\r\n        string conocimiento;\r\n        string tipoMedio;\r\n        string[] contenidos;\r\n        string descripcion;\r\n        uint256 ignos;\r\n        uint256 virtus;\r\n    }\r\n\r\n    constructor() public {\r\n        Acreditacion memory acreditacion_;\r\n        acreditacion_.titulo = \"Python Basics\";\r\n        acreditacion_.idAcreditacion = 1;\r\n        acreditacion_.idAcreditador = 305280872;\r\n        acreditacion_\r\n            .conocimiento = \"Ciencias de la Computacion: Lenguajes de Programacion\";\r\n        acreditacion_.tipoMedio = \"Examen Práctico\";\r\n        string[] memory ct = new string[](2);\r\n        ct[0] = \"Funciones\";\r\n        ct[1] = \"Excepciones\";\r\n        acreditacion_.contenidos = ct;\r\n        acreditacion_\r\n            .descripcion = \"En este curso aprenderás sobre el arte y la ciencia del anime\";\r\n        acreditacion_.ignos = 0;\r\n        acreditacion_.ignos = 0;\r\n\r\n        acreditaciones.push(acreditacion_);\r\n\r\n        AspiranteAcreditacion memory acreditacionAspirante_;\r\n        acreditacionAspirante_.idAcreditacion = 1;\r\n        acreditacionAspirante_.idAspirante = 302220222;\r\n        acreditacionAspirante_.estado = \"Finalizado\";\r\n        acreditacionAspirante_.resultado = \"96: Aprobado\";\r\n        acreditacionAspirante_\r\n            .descripcionResultado = \"El curso fue aprobado con muy buenas calificaciones\";\r\n\r\n        aspirantes.push(acreditacionAspirante_);\r\n    }\r\n\r\n    function agregarAcreditacion(Acreditacion memory _acreditacion) public {\r\n        acreditaciones.push(_acreditacion);\r\n    }\r\n\r\n    function getAcreditacion(string memory conocimiento, string memory titulo)\r\n        public\r\n        view\r\n        returns (Acreditacion memory acreditacion)\r\n    {\r\n        for (uint256 i = 0; i < acreditaciones.length; i++) {\r\n            if (\r\n                keccak256(bytes(acreditaciones[i].conocimiento)) ==\r\n                keccak256(bytes(conocimiento)) &&\r\n                keccak256(bytes(acreditaciones[i].titulo)) ==\r\n                keccak256(bytes(titulo))\r\n            ) return acreditaciones[i];\r\n        }\r\n    }\r\n\r\n    function getAcreditaciones()\r\n        public\r\n        view\r\n        returns (Acreditacion[] memory acreditacion)\r\n    {\r\n        return acreditaciones;\r\n    }\r\n\r\n    /* Aspirante */\r\n\r\n    function agregarAspiranteAcreditacion(\r\n        AspiranteAcreditacion memory _acreditacionAspirante\r\n    ) public {\r\n        aspirantes.push(_acreditacionAspirante);\r\n    }\r\n\r\n    function getAspiranteAcreditacion(uint256 idUsuario, uint256 idAcreditacion)\r\n        public\r\n        view\r\n        returns (AspiranteAcreditacion memory acreditacionAspirante)\r\n    {\r\n        for (uint256 i = 0; i < aspirantes.length; i++) {\r\n            if (\r\n                aspirantes[i].idAcreditacion == idAcreditacion &&\r\n                aspirantes[i].idAspirante == idUsuario\r\n            ) return aspirantes[i];\r\n        }\r\n    }\r\n\r\n    function getAspirantes()\r\n        public\r\n        view\r\n        returns (AspiranteAcreditacion[] memory acreditacionAspirante)\r\n    {\r\n        return aspirantes;\r\n    }\r\n\r\n    function getAspirantesPorAcreditacion(uint256 idAcreditacion)\r\n        public\r\n        view\r\n        returns (AspiranteAcreditacion[] memory acreditacionAspirante)\r\n    {\r\n        AspiranteAcreditacion[] memory res = new AspiranteAcreditacion[](\r\n            aspirantes.length\r\n        );\r\n        uint256 j = 0;\r\n        for (uint256 i = 0; i < aspirantes.length; i++) {\r\n            if (aspirantes[i].idAcreditacion == idAcreditacion) {\r\n                res[j] = aspirantes[i];\r\n                j++;\r\n            }\r\n        }\r\n        return res;\r\n    }\r\n}\r\n",
  "sourcePath": "C:\\Users\\felip\\Documents\\Kraken\\KAPlatform\\contracts\\ContratosAplicacion.sol",
  "compiler": {
    "name": "solc",
    "version": "0.5.16+commit.9c3226ce.Emscripten.clang"
  },
  "schemaVersion": "3.2.0",
  "updatedAt": "2020-07-15T03:33:29.806Z",
  "networkType": "ethereum",
  "devdoc": {
    "methods": {}
  },
  "userdoc": {
    "methods": {}
  }
}