{
  "contractName": "ServiciosAcreditacion",
  "abi": [
    {
      "inputs": [],
      "payable": false,
      "stateMutability": "nonpayable",
      "type": "constructor"
    },
    {
      "constant": false,
      "inputs": [
        {
          "components": [
            {
              "internalType": "string",
              "name": "titulo",
              "type": "string"
            },
            {
              "internalType": "uint256",
              "name": "idAcreditacion",
              "type": "uint256"
            },
            {
              "internalType": "uint256",
              "name": "idAcreditador",
              "type": "uint256"
            },
            {
              "internalType": "string",
              "name": "conocimiento",
              "type": "string"
            },
            {
              "internalType": "string",
              "name": "tipoMedio",
              "type": "string"
            },
            {
              "internalType": "string[]",
              "name": "contenidos",
              "type": "string[]"
            },
            {
              "internalType": "string",
              "name": "descripcion",
              "type": "string"
            },
            {
              "internalType": "int256",
              "name": "ignos",
              "type": "int256"
            }
          ],
          "internalType": "struct ServiciosAcreditacion.Acreditacion",
          "name": "_acreditacion",
          "type": "tuple"
        }
      ],
      "name": "agregarAcreditacion",
      "outputs": [],
      "payable": false,
      "stateMutability": "nonpayable",
      "type": "function"
    },
    {
      "constant": true,
      "inputs": [
        {
          "internalType": "string",
          "name": "conocimiento",
          "type": "string"
        },
        {
          "internalType": "string",
          "name": "titulo",
          "type": "string"
        }
      ],
      "name": "getAcreditacion",
      "outputs": [
        {
          "components": [
            {
              "internalType": "string",
              "name": "titulo",
              "type": "string"
            },
            {
              "internalType": "uint256",
              "name": "idAcreditacion",
              "type": "uint256"
            },
            {
              "internalType": "uint256",
              "name": "idAcreditador",
              "type": "uint256"
            },
            {
              "internalType": "string",
              "name": "conocimiento",
              "type": "string"
            },
            {
              "internalType": "string",
              "name": "tipoMedio",
              "type": "string"
            },
            {
              "internalType": "string[]",
              "name": "contenidos",
              "type": "string[]"
            },
            {
              "internalType": "string",
              "name": "descripcion",
              "type": "string"
            },
            {
              "internalType": "int256",
              "name": "ignos",
              "type": "int256"
            }
          ],
          "internalType": "struct ServiciosAcreditacion.Acreditacion",
          "name": "acreditacion",
          "type": "tuple"
        }
      ],
      "payable": false,
      "stateMutability": "view",
      "type": "function"
    },
    {
      "constant": true,
      "inputs": [],
      "name": "getAcreditaciones",
      "outputs": [
        {
          "components": [
            {
              "internalType": "string",
              "name": "titulo",
              "type": "string"
            },
            {
              "internalType": "uint256",
              "name": "idAcreditacion",
              "type": "uint256"
            },
            {
              "internalType": "uint256",
              "name": "idAcreditador",
              "type": "uint256"
            },
            {
              "internalType": "string",
              "name": "conocimiento",
              "type": "string"
            },
            {
              "internalType": "string",
              "name": "tipoMedio",
              "type": "string"
            },
            {
              "internalType": "string[]",
              "name": "contenidos",
              "type": "string[]"
            },
            {
              "internalType": "string",
              "name": "descripcion",
              "type": "string"
            },
            {
              "internalType": "int256",
              "name": "ignos",
              "type": "int256"
            }
          ],
          "internalType": "struct ServiciosAcreditacion.Acreditacion[]",
          "name": "acreditacion",
          "type": "tuple[]"
        }
      ],
      "payable": false,
      "stateMutability": "view",
      "type": "function"
    },
    {
      "constant": false,
      "inputs": [
        {
          "components": [
            {
              "internalType": "uint256",
              "name": "idAcreditacion",
              "type": "uint256"
            },
            {
              "internalType": "uint256",
              "name": "idAspirante",
              "type": "uint256"
            },
            {
              "internalType": "string",
              "name": "estado",
              "type": "string"
            },
            {
              "internalType": "string",
              "name": "resultado",
              "type": "string"
            },
            {
              "internalType": "string",
              "name": "descripcionResultado",
              "type": "string"
            }
          ],
          "internalType": "struct ServiciosAcreditacion.AspiranteAcreditacion",
          "name": "_acreditacionAspirante",
          "type": "tuple"
        }
      ],
      "name": "agregarAspiranteAcreditacion",
      "outputs": [],
      "payable": false,
      "stateMutability": "nonpayable",
      "type": "function"
    },
    {
      "constant": true,
      "inputs": [
        {
          "internalType": "uint256",
          "name": "idUsuario",
          "type": "uint256"
        },
        {
          "internalType": "uint256",
          "name": "idAcreditacion",
          "type": "uint256"
        }
      ],
      "name": "getAspiranteAcreditacion",
      "outputs": [
        {
          "components": [
            {
              "internalType": "uint256",
              "name": "idAcreditacion",
              "type": "uint256"
            },
            {
              "internalType": "uint256",
              "name": "idAspirante",
              "type": "uint256"
            },
            {
              "internalType": "string",
              "name": "estado",
              "type": "string"
            },
            {
              "internalType": "string",
              "name": "resultado",
              "type": "string"
            },
            {
              "internalType": "string",
              "name": "descripcionResultado",
              "type": "string"
            }
          ],
          "internalType": "struct ServiciosAcreditacion.AspiranteAcreditacion",
          "name": "acreditacionAspirante",
          "type": "tuple"
        }
      ],
      "payable": false,
      "stateMutability": "view",
      "type": "function"
    },
    {
      "constant": true,
      "inputs": [],
      "name": "getAspirantes",
      "outputs": [
        {
          "components": [
            {
              "internalType": "uint256",
              "name": "idAcreditacion",
              "type": "uint256"
            },
            {
              "internalType": "uint256",
              "name": "idAspirante",
              "type": "uint256"
            },
            {
              "internalType": "string",
              "name": "estado",
              "type": "string"
            },
            {
              "internalType": "string",
              "name": "resultado",
              "type": "string"
            },
            {
              "internalType": "string",
              "name": "descripcionResultado",
              "type": "string"
            }
          ],
          "internalType": "struct ServiciosAcreditacion.AspiranteAcreditacion[]",
          "name": "acreditacionAspirante",
          "type": "tuple[]"
        }
      ],
      "payable": false,
      "stateMutability": "view",
      "type": "function"
    },
    {
      "constant": true,
      "inputs": [
        {
          "internalType": "uint256",
          "name": "idAcreditacion",
          "type": "uint256"
        }
      ],
      "name": "getAspirantesPorAcreditacion",
      "outputs": [
        {
          "components": [
            {
              "internalType": "uint256",
              "name": "idAcreditacion",
              "type": "uint256"
            },
            {
              "internalType": "uint256",
              "name": "idAspirante",
              "type": "uint256"
            },
            {
              "internalType": "string",
              "name": "estado",
              "type": "string"
            },
            {
              "internalType": "string",
              "name": "resultado",
              "type": "string"
            },
            {
              "internalType": "string",
              "name": "descripcionResultado",
              "type": "string"
            }
          ],
          "internalType": "struct ServiciosAcreditacion.AspiranteAcreditacion[]",
          "name": "acreditacionAspirante",
          "type": "tuple[]"
        }
      ],
      "payable": false,
      "stateMutability": "view",
      "type": "function"
    }
  ],
  "bytecode": "0x60806040523480156200001157600080fd5b506200001c62000444565b6040518060400160405280600d81526020017f507974686f6e2042617369637300000000000000000000000000000000000000815250816000018190525060018160200181815250506312323768816040018181525050604051806060016040528060358152602001620028ff6035913981606001819052506040518060400160405280601081526020017f4578616d656e205072c3a1637469636f000000000000000000000000000000008152508160800181905250606060026040519080825280602002602001820160405280156200010c57816020015b6060815260200190600190039081620000f65790505b5090506040518060400160405280600981526020017f46756e63696f6e65730000000000000000000000000000000000000000000000815250816000815181106200015357fe5b60200260200101819052506040518060400160405280600b81526020017f457863657063696f6e657300000000000000000000000000000000000000000081525081600181518110620001a257fe5b6020026020010181905250808260a001819052506040518060600160405280603e8152602001620028c1603e91398260c0018190525060008260e001818152505060008260e00181815250506000829080600181540180825580915050906001820390600052602060002090600802016000909192909190915060008201518160000190805190602001906200023a92919062000489565b50602082015181600101556040820151816002015560608201518160030190805190602001906200026d92919062000489565b5060808201518160040190805190602001906200028c92919062000489565b5060a0820151816005019080519060200190620002ab92919062000510565b5060c0820151816006019080519060200190620002ca92919062000489565b5060e08201518160070155505050620002e262000577565b600181600001818152505063120383be8160200181815250506040518060400160405280600a81526020017f46696e616c697a61646f0000000000000000000000000000000000000000000081525081604001819052506040518060400160405280600c81526020017f39363a204170726f6261646f000000000000000000000000000000000000000081525081606001819052506040518060600160405280603381526020016200288e6033913981608001819052506001819080600181540180825580915050906001820390600052602060002090600502016000909192909190915060008201518160000155602082015181600101556040820151816002019080519060200190620003f992919062000489565b5060608201518160030190805190602001906200041892919062000489565b5060808201518160040190805190602001906200043792919062000489565b505050505050506200064b565b60405180610100016040528060608152602001600081526020016000815260200160608152602001606081526020016060815260200160608152602001600081525090565b828054600181600116156101000203166002900490600052602060002090601f016020900481019282601f10620004cc57805160ff1916838001178555620004fd565b82800160010185558215620004fd579182015b82811115620004fc578251825591602001919060010190620004df565b5b5090506200050c9190620005a6565b5090565b82805482825590600052602060002090810192821562000564579160200282015b82811115620005635782518290805190602001906200055292919062000489565b509160200191906001019062000531565b5b509050620005739190620005ce565b5090565b6040518060a0016040528060008152602001600081526020016060815260200160608152602001606081525090565b620005cb91905b80821115620005c7576000816000905550600101620005ad565b5090565b90565b620005fc91905b80821115620005f85760008181620005ee9190620005ff565b50600101620005d5565b5090565b90565b50805460018160011615610100020316600290046000825580601f1062000627575062000648565b601f016020900490600052602060002090810190620006479190620005a6565b5b50565b612233806200065b6000396000f3fe608060405234801561001057600080fd5b506004361061007d5760003560e01c80639d97ef0c1161005b5780639d97ef0c146100ee578063bc7af1c61461011e578063f29136b51461014e578063fd5bbb991461016a5761007d565b806330f467e5146100825780633b1a66f8146100a05780634bdd425e146100be575b600080fd5b61008a610186565b6040516100979190611f61565b60405180910390f35b6100a86103df565b6040516100b59190611f3f565b60405180910390f35b6100d860048036036100d391908101906118b5565b6107ce565b6040516100e59190611f83565b60405180910390f35b610108600480360361010391908101906119a3565b610c41565b6040516101159190611f61565b60405180910390f35b610138600480360361013391908101906119cc565b610f1c565b6040516101459190611fa5565b60405180910390f35b61016860048036036101639190810190611921565b6111c3565b005b610184600480360361017f9190810190611962565b6112a6565b005b60606001805480602002602001604051908101604052809291908181526020016000905b828210156103d657838290600052602060002090600502016040518060a00160405290816000820154815260200160018201548152602001600282018054600181600116156101000203166002900480601f01602080910402602001604051908101604052809291908181526020018280546001816001161561010002031660029004801561027a5780601f1061024f5761010080835404028352916020019161027a565b820191906000526020600020905b81548152906001019060200180831161025d57829003601f168201915b50505050508152602001600382018054600181600116156101000203166002900480601f01602080910402602001604051908101604052809291908181526020018280546001816001161561010002031660029004801561031c5780601f106102f15761010080835404028352916020019161031c565b820191906000526020600020905b8154815290600101906020018083116102ff57829003601f168201915b50505050508152602001600482018054600181600116156101000203166002900480601f0160208091040260200160405190810160405280929190818152602001828054600181600116156101000203166002900480156103be5780601f10610393576101008083540402835291602001916103be565b820191906000526020600020905b8154815290600101906020018083116103a157829003601f168201915b505050505081525050815260200190600101906101aa565b50505050905090565b60606000805480602002602001604051908101604052809291908181526020016000905b828210156107c5578382906000526020600020906008020160405180610100016040529081600082018054600181600116156101000203166002900480601f0160208091040260200160405190810160405280929190818152602001828054600181600116156101000203166002900480156104c05780601f10610495576101008083540402835291602001916104c0565b820191906000526020600020905b8154815290600101906020018083116104a357829003601f168201915b505050505081526020016001820154815260200160028201548152602001600382018054600181600116156101000203166002900480601f0160208091040260200160405190810160405280929190818152602001828054600181600116156101000203166002900480156105765780601f1061054b57610100808354040283529160200191610576565b820191906000526020600020905b81548152906001019060200180831161055957829003601f168201915b50505050508152602001600482018054600181600116156101000203166002900480601f0160208091040260200160405190810160405280929190818152602001828054600181600116156101000203166002900480156106185780601f106105ed57610100808354040283529160200191610618565b820191906000526020600020905b8154815290600101906020018083116105fb57829003601f168201915b5050505050815260200160058201805480602002602001604051908101604052809291908181526020016000905b82821015610702578382906000526020600020018054600181600116156101000203166002900480601f0160208091040260200160405190810160405280929190818152602001828054600181600116156101000203166002900480156106ee5780601f106106c3576101008083540402835291602001916106ee565b820191906000526020600020905b8154815290600101906020018083116106d157829003601f168201915b505050505081526020019060010190610646565b505050508152602001600682018054600181600116156101000203166002900480601f0160208091040260200160405190810160405280929190818152602001828054600181600116156101000203166002900480156107a35780601f10610778576101008083540402835291602001916107a3565b820191906000526020600020905b81548152906001019060200180831161078657829003601f168201915b5050505050815260200160078201548152505081526020019060010190610403565b50505050905090565b6107d6611345565b60008090505b600080549050811015610c39578380519060200120600082815481106107fe57fe5b906000526020600020906008020160030160405161081c9190611f28565b6040518091039020148015610869575082805190602001206000828154811061084157fe5b906000526020600020906008020160000160405161085f9190611f28565b6040518091039020145b15610c2c576000818154811061087b57fe5b906000526020600020906008020160405180610100016040529081600082018054600181600116156101000203166002900480601f01602080910402602001604051908101604052809291908181526020018280546001816001161561010002031660029004801561092e5780601f106109035761010080835404028352916020019161092e565b820191906000526020600020905b81548152906001019060200180831161091157829003601f168201915b505050505081526020016001820154815260200160028201548152602001600382018054600181600116156101000203166002900480601f0160208091040260200160405190810160405280929190818152602001828054600181600116156101000203166002900480156109e45780601f106109b9576101008083540402835291602001916109e4565b820191906000526020600020905b8154815290600101906020018083116109c757829003601f168201915b50505050508152602001600482018054600181600116156101000203166002900480601f016020809104026020016040519081016040528092919081815260200182805460018160011615610100020316600290048015610a865780601f10610a5b57610100808354040283529160200191610a86565b820191906000526020600020905b815481529060010190602001808311610a6957829003601f168201915b5050505050815260200160058201805480602002602001604051908101604052809291908181526020016000905b82821015610b70578382906000526020600020018054600181600116156101000203166002900480601f016020809104026020016040519081016040528092919081815260200182805460018160011615610100020316600290048015610b5c5780601f10610b3157610100808354040283529160200191610b5c565b820191906000526020600020905b815481529060010190602001808311610b3f57829003601f168201915b505050505081526020019060010190610ab4565b505050508152602001600682018054600181600116156101000203166002900480601f016020809104026020016040519081016040528092919081815260200182805460018160011615610100020316600290048015610c115780601f10610be657610100808354040283529160200191610c11565b820191906000526020600020905b815481529060010190602001808311610bf457829003601f168201915b50505050508152602001600782015481525050915050610c3b565b80806001019150506107dc565b505b92915050565b606080600180549050604051908082528060200260200182016040528015610c8357816020015b610c7061138a565b815260200190600190039081610c685790505b509050600080905060008090505b600180549050811015610f11578460018281548110610cac57fe5b9060005260206000209060050201600001541415610f045760018181548110610cd157fe5b90600052602060002090600502016040518060a00160405290816000820154815260200160018201548152602001600282018054600181600116156101000203166002900480601f016020809104026020016040519081016040528092919081815260200182805460018160011615610100020316600290048015610d975780601f10610d6c57610100808354040283529160200191610d97565b820191906000526020600020905b815481529060010190602001808311610d7a57829003601f168201915b50505050508152602001600382018054600181600116156101000203166002900480601f016020809104026020016040519081016040528092919081815260200182805460018160011615610100020316600290048015610e395780601f10610e0e57610100808354040283529160200191610e39565b820191906000526020600020905b815481529060010190602001808311610e1c57829003601f168201915b50505050508152602001600482018054600181600116156101000203166002900480601f016020809104026020016040519081016040528092919081815260200182805460018160011615610100020316600290048015610edb5780601f10610eb057610100808354040283529160200191610edb565b820191906000526020600020905b815481529060010190602001808311610ebe57829003601f168201915b505050505081525050838381518110610ef057fe5b602002602001018190525081806001019250505b8080600101915050610c91565b508192505050919050565b610f246113b9565b60008090505b6001805490508110156111bb578260018281548110610f4557fe5b906000526020600020906005020160000154148015610f8157508360018281548110610f6d57fe5b906000526020600020906005020160010154145b156111ae5760018181548110610f9357fe5b90600052602060002090600502016040518060a00160405290816000820154815260200160018201548152602001600282018054600181600116156101000203166002900480601f0160208091040260200160405190810160405280929190818152602001828054600181600116156101000203166002900480156110595780601f1061102e57610100808354040283529160200191611059565b820191906000526020600020905b81548152906001019060200180831161103c57829003601f168201915b50505050508152602001600382018054600181600116156101000203166002900480601f0160208091040260200160405190810160405280929190818152602001828054600181600116156101000203166002900480156110fb5780601f106110d0576101008083540402835291602001916110fb565b820191906000526020600020905b8154815290600101906020018083116110de57829003601f168201915b50505050508152602001600482018054600181600116156101000203166002900480601f01602080910402602001604051908101604052809291908181526020018280546001816001161561010002031660029004801561119d5780601f106111725761010080835404028352916020019161119d565b820191906000526020600020905b81548152906001019060200180831161118057829003601f168201915b5050505050815250509150506111bd565b8080600101915050610f2a565b505b92915050565b60008190806001815401808255809150509060018203906000526020600020906008020160009091929091909150600082015181600001908051906020019061120d9291906113e8565b506020820151816001015560408201518160020155606082015181600301908051906020019061123e9291906113e8565b50608082015181600401908051906020019061125b9291906113e8565b5060a0820151816005019080519060200190611278929190611468565b5060c08201518160060190805190602001906112959291906113e8565b5060e0820151816007015550505050565b60018190806001815401808255809150509060018203906000526020600020906005020160009091929091909150600082015181600001556020820151816001015560408201518160020190805190602001906113049291906113e8565b5060608201518160030190805190602001906113219291906113e8565b50608082015181600401908051906020019061133e9291906113e8565b5050505050565b60405180610100016040528060608152602001600081526020016000815260200160608152602001606081526020016060815260200160608152602001600081525090565b6040518060a0016040528060008152602001600081526020016060815260200160608152602001606081525090565b6040518060a0016040528060008152602001600081526020016060815260200160608152602001606081525090565b828054600181600116156101000203166002900490600052602060002090601f016020900481019282601f1061142957805160ff1916838001178555611457565b82800160010185558215611457579182015b8281111561145657825182559160200191906001019061143b565b5b50905061146491906114c8565b5090565b8280548282559060005260206000209081019282156114b7579160200282015b828111156114b65782518290805190602001906114a69291906113e8565b5091602001919060010190611488565b5b5090506114c491906114ed565b5090565b6114ea91905b808211156114e65760008160009055506001016114ce565b5090565b90565b61151691905b8082111561151257600081816115099190611519565b506001016114f3565b5090565b90565b50805460018160011615610100020316600290046000825580601f1061153f575061155e565b601f01602090049060005260206000209081019061155d91906114c8565b5b50565b600082601f83011261157257600080fd5b813561158561158082611ff4565b611fc7565b9150818183526020840193506020810190508360005b838110156115cb57813586016115b188826115ea565b84526020840193506020830192505060018101905061159b565b5050505092915050565b6000813590506115e4816121c2565b92915050565b600082601f8301126115fb57600080fd5b813561160e6116098261201c565b611fc7565b9150808252602083016020830185838301111561162a57600080fd5b61163583828461216f565b50505092915050565b600082601f83011261164f57600080fd5b813561166261165d82612048565b611fc7565b9150808252602083016020830185838301111561167e57600080fd5b61168983828461216f565b50505092915050565b600061010082840312156116a557600080fd5b6116b0610100611fc7565b9050600082013567ffffffffffffffff8111156116cc57600080fd5b6116d8848285016115ea565b60008301525060206116ec848285016118a0565b6020830152506040611700848285016118a0565b604083015250606082013567ffffffffffffffff81111561172057600080fd5b61172c848285016115ea565b606083015250608082013567ffffffffffffffff81111561174c57600080fd5b611758848285016115ea565b60808301525060a082013567ffffffffffffffff81111561177857600080fd5b61178484828501611561565b60a08301525060c082013567ffffffffffffffff8111156117a457600080fd5b6117b0848285016115ea565b60c08301525060e06117c4848285016115d5565b60e08301525092915050565b600060a082840312156117e257600080fd5b6117ec60a0611fc7565b905060006117fc848285016118a0565b6000830152506020611810848285016118a0565b602083015250604082013567ffffffffffffffff81111561183057600080fd5b61183c848285016115ea565b604083015250606082013567ffffffffffffffff81111561185c57600080fd5b611868848285016115ea565b606083015250608082013567ffffffffffffffff81111561188857600080fd5b611894848285016115ea565b60808301525092915050565b6000813590506118af816121d9565b92915050565b600080604083850312156118c857600080fd5b600083013567ffffffffffffffff8111156118e257600080fd5b6118ee8582860161163e565b925050602083013567ffffffffffffffff81111561190b57600080fd5b6119178582860161163e565b9150509250929050565b60006020828403121561193357600080fd5b600082013567ffffffffffffffff81111561194d57600080fd5b61195984828501611692565b91505092915050565b60006020828403121561197457600080fd5b600082013567ffffffffffffffff81111561198e57600080fd5b61199a848285016117d0565b91505092915050565b6000602082840312156119b557600080fd5b60006119c3848285016118a0565b91505092915050565b600080604083850312156119df57600080fd5b60006119ed858286016118a0565b92505060206119fe858286016118a0565b9150509250929050565b6000611a148383611c40565b905092915050565b6000611a288383611d45565b905092915050565b6000611a3c8383611e95565b905092915050565b6000611a4f826120b9565b611a59818561210c565b935083602082028501611a6b85612074565b8060005b85811015611aa75784840389528151611a888582611a08565b9450611a93836120e5565b925060208a01995050600181019050611a6f565b50829750879550505050505092915050565b6000611ac4826120c4565b611ace818561211d565b935083602082028501611ae085612084565b8060005b85811015611b1c5784840389528151611afd8582611a1c565b9450611b08836120f2565b925060208a01995050600181019050611ae4565b50829750879550505050505092915050565b6000611b39826120cf565b611b43818561212e565b935083602082028501611b5585612094565b8060005b85811015611b915784840389528151611b728582611a30565b9450611b7d836120ff565b925060208a01995050600181019050611b59565b50829750879550505050505092915050565b600081546001811660008114611bc05760018114611be557611c29565b607f6002830416611bd1818761213f565b955060ff1983168652808601935050611c29565b60028204611bf3818761213f565b9550611bfe856120a4565b60005b82811015611c2057815481890152600182019150602081019050611c01565b82880195505050505b505092915050565b611c3a8161215b565b82525050565b6000611c4b826120da565b611c55818561214a565b9350611c6581856020860161217e565b611c6e816121b1565b840191505092915050565b6000610100830160008301518482036000860152611c978282611c40565b9150506020830151611cac6020860182611f19565b506040830151611cbf6040860182611f19565b5060608301518482036060860152611cd78282611c40565b91505060808301518482036080860152611cf18282611c40565b91505060a083015184820360a0860152611d0b8282611a44565b91505060c083015184820360c0860152611d258282611c40565b91505060e0830151611d3a60e0860182611c31565b508091505092915050565b6000610100830160008301518482036000860152611d638282611c40565b9150506020830151611d786020860182611f19565b506040830151611d8b6040860182611f19565b5060608301518482036060860152611da38282611c40565b91505060808301518482036080860152611dbd8282611c40565b91505060a083015184820360a0860152611dd78282611a44565b91505060c083015184820360c0860152611df18282611c40565b91505060e0830151611e0660e0860182611c31565b508091505092915050565b600060a083016000830151611e296000860182611f19565b506020830151611e3c6020860182611f19565b5060408301518482036040860152611e548282611c40565b91505060608301518482036060860152611e6e8282611c40565b91505060808301518482036080860152611e888282611c40565b9150508091505092915050565b600060a083016000830151611ead6000860182611f19565b506020830151611ec06020860182611f19565b5060408301518482036040860152611ed88282611c40565b91505060608301518482036060860152611ef28282611c40565b91505060808301518482036080860152611f0c8282611c40565b9150508091505092915050565b611f2281612165565b82525050565b6000611f348284611ba3565b915081905092915050565b60006020820190508181036000830152611f598184611ab9565b905092915050565b60006020820190508181036000830152611f7b8184611b2e565b905092915050565b60006020820190508181036000830152611f9d8184611c79565b905092915050565b60006020820190508181036000830152611fbf8184611e11565b905092915050565b6000604051905081810181811067ffffffffffffffff82111715611fea57600080fd5b8060405250919050565b600067ffffffffffffffff82111561200b57600080fd5b602082029050602081019050919050565b600067ffffffffffffffff82111561203357600080fd5b601f19601f8301169050602081019050919050565b600067ffffffffffffffff82111561205f57600080fd5b601f19601f8301169050602081019050919050565b6000819050602082019050919050565b6000819050602082019050919050565b6000819050602082019050919050565b60008190508160005260206000209050919050565b600081519050919050565b600081519050919050565b600081519050919050565b600081519050919050565b6000602082019050919050565b6000602082019050919050565b6000602082019050919050565b600082825260208201905092915050565b600082825260208201905092915050565b600082825260208201905092915050565b600081905092915050565b600082825260208201905092915050565b6000819050919050565b6000819050919050565b82818337600083830152505050565b60005b8381101561219c578082015181840152602081019050612181565b838111156121ab576000848401525b50505050565b6000601f19601f8301169050919050565b6121cb8161215b565b81146121d657600080fd5b50565b6121e281612165565b81146121ed57600080fd5b5056fea365627a7a723158206dcf02dd44fe1bf9a8f8cff63f1830ef737ad658226f3c8597e8024fbe2c0e3c6c6578706572696d656e74616cf564736f6c63430005100040456c20637572736f20667565206170726f6261646f20636f6e206d7579206275656e61732063616c696669636163696f6e6573456e206573746520637572736f20617072656e646572c3a17320736f62726520656c20617274652079206c61206369656e6369612064656c20616e696d654369656e63696173206465206c6120436f6d7075746163696f6e3a204c656e6775616a65732064652050726f6772616d6163696f6e",
  "source": "pragma solidity >=0.4.21 <0.7.0;\r\npragma experimental ABIEncoderV2;\r\n\r\ncontract ServiciosUsuario {\r\n    Usuario[] usuarios;\r\n    mapping (uint256 => uint256) usuariosMap;\r\n    \r\n    struct Usuario {\r\n        string nombre;\r\n        string apellidos;\r\n        string contrasenna;\r\n        string correoElectronico;\r\n        uint256 numeroTelefonico;\r\n        string[] redesSociales;\r\n        uint256 cedula;\r\n    }\r\n    \r\n\r\n    constructor() public {\r\n        Usuario memory usuario_;\r\n        \r\n        usuario_.nombre = \"Felipe Pacheco\";\r\n        usuario_.apellidos = \"Pacheco Cerdas\";\r\n        usuario_.contrasenna = \"felpudo\";\r\n        usuario_.correoElectronico = \"felipepace09@gmail.com\";\r\n        usuario_.numeroTelefonico = 85858585;\r\n        string[] memory rrss = new string[](2);\r\n        rrss[0] = \"Facebook: felipepace09\";\r\n        rrss[1] = \"Instragram: felipe09\";\r\n        usuario_.redesSociales = rrss;\r\n        usuario_.cedula = 305280872;\r\n        \r\n        usuariosMap[usuario_.cedula] = usuarios.length;\r\n        usuarios.push(usuario_);\r\n    }\r\n    \r\n    function agregarUsuario(Usuario memory _usuario) public {\r\n        usuariosMap[_usuario.cedula] = usuarios.length;\r\n        usuarios.push(_usuario);\r\n    }\r\n    \r\n    function getUsuario(uint256 cedula) public view returns (Usuario memory usuario) {\r\n        return usuarios[usuariosMap[cedula]];\r\n    }\r\n    \r\n    function getUsuarios() public view returns (Usuario[] memory usuario) {\r\n        return usuarios;\r\n    }\r\n}\r\n\r\n\r\ncontract ServiciosAcreditacion {\r\n    Acreditacion[] acreditaciones;\r\n    \r\n    AspiranteAcreditacion[] aspirantes;\r\n   \r\n    struct AspiranteAcreditacion {\r\n        uint256 idAcreditacion;\r\n        uint256 idAspirante;\r\n        string estado;\r\n        string resultado;\r\n        string descripcionResultado;\r\n    }\r\n    \r\n    struct Acreditacion {\r\n        string titulo;\r\n        uint256 idAcreditacion;\r\n        uint256 idAcreditador;\r\n        string conocimiento;\r\n        string tipoMedio;\r\n        string[] contenidos;\r\n        string descripcion;\r\n        int ignos;\r\n    }\r\n    \r\n    constructor() public {\r\n        Acreditacion memory acreditacion_;\r\n        acreditacion_.titulo = \"Python Basics\";\r\n        acreditacion_.idAcreditacion = 1;\r\n        acreditacion_.idAcreditador = 305280872;\r\n        acreditacion_.conocimiento = \"Ciencias de la Computacion: Lenguajes de Programacion\";\r\n        acreditacion_.tipoMedio = \"Examen Prctico\";\r\n        string[] memory ct = new string[](2);\r\n        ct[0] = \"Funciones\";\r\n        ct[1] = \"Excepciones\";\r\n        acreditacion_.contenidos = ct;\r\n        acreditacion_.descripcion = \"En este curso aprenders sobre el arte y la ciencia del anime\";\r\n        acreditacion_.ignos = 0;\r\n        acreditacion_.ignos = 0;\r\n        \r\n        acreditaciones.push(acreditacion_);\r\n        \r\n        AspiranteAcreditacion memory acreditacionAspirante_;\r\n        acreditacionAspirante_.idAcreditacion = 1;\r\n        acreditacionAspirante_.idAspirante = 302220222;\r\n        acreditacionAspirante_.estado = \"Finalizado\";\r\n        acreditacionAspirante_.resultado = \"96: Aprobado\";\r\n        acreditacionAspirante_.descripcionResultado = \"El curso fue aprobado con muy buenas calificaciones\";\r\n        \r\n        aspirantes.push(acreditacionAspirante_);\r\n    }\r\n    \r\n    function agregarAcreditacion(Acreditacion memory _acreditacion) public {\r\n        acreditaciones.push(_acreditacion);\r\n    }\r\n    \r\n    function getAcreditacion(string memory conocimiento, string memory titulo) public view returns (Acreditacion memory acreditacion) {\r\n        for (uint256 i = 0; i < acreditaciones.length; i++) {\r\n            if (keccak256(bytes(acreditaciones[i].conocimiento)) == keccak256(bytes(conocimiento)) && keccak256(bytes(acreditaciones[i].titulo)) == keccak256(bytes(titulo)))  \r\n                return acreditaciones[i];\r\n        }\r\n    }\r\n    \r\n    function getAcreditaciones() public view returns (Acreditacion[] memory acreditacion) {\r\n        return acreditaciones;\r\n    }\r\n    \r\n    /* Aspirante */\r\n    \r\n    function agregarAspiranteAcreditacion(AspiranteAcreditacion memory _acreditacionAspirante) public {\r\n        aspirantes.push(_acreditacionAspirante);\r\n    }\r\n    \r\n    function getAspiranteAcreditacion(uint256 idUsuario, uint256 idAcreditacion) public view returns (AspiranteAcreditacion memory acreditacionAspirante) {\r\n        for (uint256 i = 0; i < aspirantes.length; i++) {\r\n            if (aspirantes[i].idAcreditacion == idAcreditacion && aspirantes[i].idAspirante == idUsuario)  \r\n                return  aspirantes[i];\r\n        }\r\n    }\r\n    \r\n    function getAspirantes() public view returns (AspiranteAcreditacion[] memory acreditacionAspirante) {\r\n        return aspirantes;\r\n    }\r\n    \r\n    function getAspirantesPorAcreditacion(uint256 idAcreditacion) public view returns (AspiranteAcreditacion[] memory acreditacionAspirante) {\r\n        AspiranteAcreditacion[] memory res = new AspiranteAcreditacion[](aspirantes.length);\r\n        uint256 j = 0;\r\n        for (uint256 i = 0; i < aspirantes.length; i++) {\r\n            if (aspirantes[i].idAcreditacion == idAcreditacion) { \r\n                res[j] = aspirantes[i];\r\n                j++;\r\n            }\r\n        }\r\n        return res;\r\n    }\r\n}",
  "sourcePath": "C:\\Users\\felip\\Documents\\Kraken\\KAPlatform\\contracts\\ContratosAplicacion.sol",
  "compiler": {
    "name": "solc",
    "version": "0.5.16+commit.9c3226ce.Emscripten.clang"
  },
  "schemaVersion": "3.2.0",
  "updatedAt": "2020-07-15T03:01:46.500Z",
  "networkType": "ethereum",
  "devdoc": {
    "methods": {}
  },
  "userdoc": {
    "methods": {}
  }
}