{
  "contractName": "ServiciosAcreditacion",
  "abi": [
    {
      "inputs": [],
      "payable": false,
      "stateMutability": "nonpayable",
      "type": "constructor"
    },
    {
      "constant": false,
      "inputs": [
        {
          "components": [
            {
              "internalType": "string",
              "name": "titulo",
              "type": "string"
            },
            {
              "internalType": "uint256",
              "name": "idAcreditacion",
              "type": "uint256"
            },
            {
              "internalType": "uint256",
              "name": "idAcreditador",
              "type": "uint256"
            },
            {
              "internalType": "string",
              "name": "conocimiento",
              "type": "string"
            },
            {
              "internalType": "string",
              "name": "tipoMedio",
              "type": "string"
            },
            {
              "internalType": "string[]",
              "name": "contenidos",
              "type": "string[]"
            },
            {
              "internalType": "string",
              "name": "descripcion",
              "type": "string"
            },
            {
              "internalType": "uint256",
              "name": "ignos",
              "type": "uint256"
            },
            {
              "internalType": "uint256",
              "name": "virtus",
              "type": "uint256"
            }
          ],
          "internalType": "struct ServiciosAcreditacion.Acreditacion",
          "name": "_acreditacion",
          "type": "tuple"
        }
      ],
      "name": "agregarAcreditacion",
      "outputs": [
        {
          "internalType": "uint256",
          "name": "",
          "type": "uint256"
        }
      ],
      "payable": false,
      "stateMutability": "nonpayable",
      "type": "function"
    },
    {
      "constant": true,
      "inputs": [
        {
          "internalType": "uint256",
          "name": "idAcreditacion",
          "type": "uint256"
        }
      ],
      "name": "getAcreditacion",
      "outputs": [
        {
          "components": [
            {
              "internalType": "string",
              "name": "titulo",
              "type": "string"
            },
            {
              "internalType": "uint256",
              "name": "idAcreditacion",
              "type": "uint256"
            },
            {
              "internalType": "uint256",
              "name": "idAcreditador",
              "type": "uint256"
            },
            {
              "internalType": "string",
              "name": "conocimiento",
              "type": "string"
            },
            {
              "internalType": "string",
              "name": "tipoMedio",
              "type": "string"
            },
            {
              "internalType": "string[]",
              "name": "contenidos",
              "type": "string[]"
            },
            {
              "internalType": "string",
              "name": "descripcion",
              "type": "string"
            },
            {
              "internalType": "uint256",
              "name": "ignos",
              "type": "uint256"
            },
            {
              "internalType": "uint256",
              "name": "virtus",
              "type": "uint256"
            }
          ],
          "internalType": "struct ServiciosAcreditacion.Acreditacion",
          "name": "acreditacion",
          "type": "tuple"
        }
      ],
      "payable": false,
      "stateMutability": "view",
      "type": "function"
    },
    {
      "constant": true,
      "inputs": [],
      "name": "getAcreditaciones",
      "outputs": [
        {
          "components": [
            {
              "internalType": "string",
              "name": "titulo",
              "type": "string"
            },
            {
              "internalType": "uint256",
              "name": "idAcreditacion",
              "type": "uint256"
            },
            {
              "internalType": "uint256",
              "name": "idAcreditador",
              "type": "uint256"
            },
            {
              "internalType": "string",
              "name": "conocimiento",
              "type": "string"
            },
            {
              "internalType": "string",
              "name": "tipoMedio",
              "type": "string"
            },
            {
              "internalType": "string[]",
              "name": "contenidos",
              "type": "string[]"
            },
            {
              "internalType": "string",
              "name": "descripcion",
              "type": "string"
            },
            {
              "internalType": "uint256",
              "name": "ignos",
              "type": "uint256"
            },
            {
              "internalType": "uint256",
              "name": "virtus",
              "type": "uint256"
            }
          ],
          "internalType": "struct ServiciosAcreditacion.Acreditacion[]",
          "name": "acreditacion",
          "type": "tuple[]"
        }
      ],
      "payable": false,
      "stateMutability": "view",
      "type": "function"
    },
    {
      "constant": false,
      "inputs": [
        {
          "components": [
            {
              "internalType": "uint256",
              "name": "idAcreditacion",
              "type": "uint256"
            },
            {
              "internalType": "uint256",
              "name": "idAspirante",
              "type": "uint256"
            },
            {
              "internalType": "string",
              "name": "estado",
              "type": "string"
            },
            {
              "internalType": "string",
              "name": "resultado",
              "type": "string"
            },
            {
              "internalType": "string",
              "name": "descripcionResultado",
              "type": "string"
            }
          ],
          "internalType": "struct ServiciosAcreditacion.AspiranteAcreditacion",
          "name": "_acreditacionAspirante",
          "type": "tuple"
        }
      ],
      "name": "agregarAspiranteAcreditacion",
      "outputs": [],
      "payable": false,
      "stateMutability": "nonpayable",
      "type": "function"
    },
    {
      "constant": true,
      "inputs": [
        {
          "internalType": "uint256",
          "name": "idUsuario",
          "type": "uint256"
        },
        {
          "internalType": "uint256",
          "name": "idAcreditacion",
          "type": "uint256"
        }
      ],
      "name": "getAspiranteAcreditacion",
      "outputs": [
        {
          "components": [
            {
              "internalType": "uint256",
              "name": "idAcreditacion",
              "type": "uint256"
            },
            {
              "internalType": "uint256",
              "name": "idAspirante",
              "type": "uint256"
            },
            {
              "internalType": "string",
              "name": "estado",
              "type": "string"
            },
            {
              "internalType": "string",
              "name": "resultado",
              "type": "string"
            },
            {
              "internalType": "string",
              "name": "descripcionResultado",
              "type": "string"
            }
          ],
          "internalType": "struct ServiciosAcreditacion.AspiranteAcreditacion",
          "name": "acreditacionAspirante",
          "type": "tuple"
        }
      ],
      "payable": false,
      "stateMutability": "view",
      "type": "function"
    },
    {
      "constant": true,
      "inputs": [],
      "name": "getAspirantes",
      "outputs": [
        {
          "components": [
            {
              "internalType": "uint256",
              "name": "idAcreditacion",
              "type": "uint256"
            },
            {
              "internalType": "uint256",
              "name": "idAspirante",
              "type": "uint256"
            },
            {
              "internalType": "string",
              "name": "estado",
              "type": "string"
            },
            {
              "internalType": "string",
              "name": "resultado",
              "type": "string"
            },
            {
              "internalType": "string",
              "name": "descripcionResultado",
              "type": "string"
            }
          ],
          "internalType": "struct ServiciosAcreditacion.AspiranteAcreditacion[]",
          "name": "acreditacionAspirante",
          "type": "tuple[]"
        }
      ],
      "payable": false,
      "stateMutability": "view",
      "type": "function"
    },
    {
      "constant": true,
      "inputs": [
        {
          "internalType": "uint256",
          "name": "idAcreditacion",
          "type": "uint256"
        }
      ],
      "name": "getAspirantesPorAcreditacion",
      "outputs": [
        {
          "components": [
            {
              "internalType": "uint256",
              "name": "idAcreditacion",
              "type": "uint256"
            },
            {
              "internalType": "uint256",
              "name": "idAspirante",
              "type": "uint256"
            },
            {
              "internalType": "string",
              "name": "estado",
              "type": "string"
            },
            {
              "internalType": "string",
              "name": "resultado",
              "type": "string"
            },
            {
              "internalType": "string",
              "name": "descripcionResultado",
              "type": "string"
            }
          ],
          "internalType": "struct ServiciosAcreditacion.AspiranteAcreditacion[]",
          "name": "acreditacionAspirante",
          "type": "tuple[]"
        }
      ],
      "payable": false,
      "stateMutability": "view",
      "type": "function"
    }
  ],
  "bytecode": "0x60806040523480156200001157600080fd5b506200001c6200162e565b6040518060400160405280600b81526020017f4a617661204261736963730000000000000000000000000000000000000000008152508160000181905250600181602001818152505063123237688160400181815250506040518060400160405280601b81526020017f4369656e63696173206465206c6120436f6d707574616369c3b36e000000000081525081606001819052506040518060400160405280601381526020017f50726f796563746f2050726f6772616d61646f000000000000000000000000008152508160800181905250606060046040519080825280602002602001820160405280156200012857816020015b6060815260200190600190039081620001125790505b5090506040518060600160405280603081526020016200392c60309139816000815181106200015357fe5b60200260200101819052506040518060600160405280603481526020016200395c60349139816001815181106200018657fe5b6020026020010181905250604051806060016040528060238152602001620039096023913981600281518110620001b957fe5b60200260200101819052506040518060400160405280601f81526020017f44617461205374727563747572657320616e6420506572666f726d616e636500815250816003815181106200020857fe5b6020026020010181905250808260a00181905250604051806102c0016040528061029081526020016200430a61029091398260c0018190525060058260e0018181525050600582610100018181525050620002626200162e565b6040518060400160405280601a81526020017f496e74726f6475636369c3b36e20612046696c6f736f66c3ad610000000000008152508160000181905250600281602001818152505063123125a081604001818152505060405180606001604052806027815260200162003a8b6027913981606001819052506040518060400160405280600681526020017f456e7361796f00000000000000000000000000000000000000000000000000008152508160800181905250606060066040519080825280602002602001820160405280156200035257816020015b60608152602001906001900390816200033c5790505b5090506040518060400160405280601881526020017fc2bf5175c3a9206573206c612066696c6f736f66c3ad613f0000000000000000815250816000815181106200039957fe5b602002602001018190525060405180606001604052806029815260200162003a626029913981600181518110620003cc57fe5b60200260200101819052506040518060600160405280602c815260200162003ae9602c913981600281518110620003ff57fe5b6020026020010181905250604051806060016040528060308152602001620039ca60309139816003815181106200043257fe5b60200260200101819052506040518060400160405280601f81526020017f4d656e7465732c206365726562726f73207920636f6d70757461646f72617300815250816004815181106200048157fe5b60200260200101819052506040518060600160405280602b8152602001620039fa602b913981600581518110620004b457fe5b6020026020010181905250808260a00181905250604051806102400160405280610209815260200162003b4f61020991398260c0018190525060058260e00181815250506005826101000181815250506200050e6200162e565b604051806060016040528060238152602001620038e66023913981600001819052506004816020018181525050630706de6a8160400181815250506040518060400160405280600d81526020017f417274653a204dc3ba736963610000000000000000000000000000000000000081525081606001819052506040518060400160405280600581526020017f437572736f000000000000000000000000000000000000000000000000000000815250816080018190525060606005604051908082528060200260200182016040528015620005fe57816020015b6060815260200190600190039081620005e85790505b50905060405180606001604052806024815260200162003ddb60249139816000815181106200062957fe5b602002602001018190525060405180606001604052806037815260200162003ab260379139816001815181106200065c57fe5b60200260200101819052506040518060400160405280601f81526020017f4dc3ba7369636120646520417369612079204d6564696f204f7269656e74650081525081600281518110620006ab57fe5b602002602001018190525060405180606001604052806024815260200162003d586024913981600381518110620006de57fe5b60200260200101819052506040518060600160405280603d815260200162003a25603d9139816004815181106200071157fe5b6020026020010181905250808260a001819052506040518061022001604052806101f7815260200162003ffb6101f791398260c0018190525060058260e00181815250506005826101000181815250506200076b6200162e565b6040518060400160405280600f81526020017f436f6d756e69736d6f204368696e6f000000000000000000000000000000000081525081600001819052506003816020018181525050630706de658160400181815250506040518060600160405280603a815260200162003990603a913981606001819052506040518060400160405280600e81526020017f437572736f2079204578616d656e0000000000000000000000000000000000008152508160800181905250606060056040519080825280602002602001820160405280156200085b57816020015b6060815260200190600190039081620008455790505b5090506040518060400160405280601781526020017fc2bf5175c3a920657320656c20636f6d756e69736d6f3f00000000000000000081525081600081518110620008a257fe5b60200260200101819052506040518060400160405280601b81526020017f496e666c75656e63696120636f6e204d616f205473652054756e67000000000081525081600181518110620008f157fe5b60200260200101819052506040518060400160405280601681526020017f416363696f6e657320696d706c656d656e746164617300000000000000000000815250816002815181106200094057fe5b60200260200101819052506040518060400160405280602081526020017f5265706572637573696f6e657320656e206c61204368696e612061637475616c815250816003815181106200098f57fe5b60200260200101819052506040518060600160405280603a815260200162003b15603a913981600481518110620009c257fe5b6020026020010181905250808260a001819052506040518061022001604052806101fc815260200162003dff6101fc91398260c0018190525060058260e001818152505060058261010001818152505062000a1c6200162e565b6040518060400160405280601181526020017f436572656d6f6e69612064656c2074c3a900000000000000000000000000000081525081600001819052506003816020018181525050630706de658160400181815250506040518060400160405280601081526020017f417274653a20436572656d6f6e6961730000000000000000000000000000000081525081606001819052506040518060400160405280601081526020017f507275656261207072c3a163746963610000000000000000000000000000000081525081608001819052506060600660405190808252806020026020018201604052801562000b2857816020015b606081526020019060019003908162000b125790505b5090506040518060400160405280601981526020017f4c6f73205072696e636970696f73206465204368616e6f7975000000000000008152508160008151811062000b6f57fe5b60200260200101819052506040518060800160405280605e8152602001620041f2605e91398160018151811062000ba257fe5b60200260200101819052506040518060400160405280600781526020017f4b616973656b69000000000000000000000000000000000000000000000000008152508160028151811062000bf157fe5b60200260200101819052506040518060400160405280600a81526020017f4e616b612d6461636869000000000000000000000000000000000000000000008152508160038151811062000c4057fe5b60200260200101819052506040518060400160405280600881526020017f476f7a612d6972690000000000000000000000000000000000000000000000008152508160048151811062000c8f57fe5b60200260200101819052506040518060400160405280600681526020017f55737563686100000000000000000000000000000000000000000000000000008152508160058151811062000cde57fe5b6020026020010181905250808260a001819052506040518060e0016040528060ba81526020016200425060ba91398260c0018190525060058260e001818152505060058261010001818152505060008a90806001815401808255809150509060018203906000526020600020906009020160009091929091909150600082015181600001908051906020019062000d779291906200167a565b506020820151816001015560408201518160020155606082015181600301908051906020019062000daa9291906200167a565b50608082015181600401908051906020019062000dc99291906200167a565b5060a082015181600501908051906020019062000de892919062001701565b5060c082015181600601908051906020019062000e079291906200167a565b5060e08201518160070155610100820151816008015550505060008890806001815401808255809150509060018203906000526020600020906009020160009091929091909150600082015181600001908051906020019062000e6c9291906200167a565b506020820151816001015560408201518160020155606082015181600301908051906020019062000e9f9291906200167a565b50608082015181600401908051906020019062000ebe9291906200167a565b5060a082015181600501908051906020019062000edd92919062001701565b5060c082015181600601908051906020019062000efc9291906200167a565b5060e08201518160070155610100820151816008015550505060008490806001815401808255809150509060018203906000526020600020906009020160009091929091909150600082015181600001908051906020019062000f619291906200167a565b506020820151816001015560408201518160020155606082015181600301908051906020019062000f949291906200167a565b50608082015181600401908051906020019062000fb39291906200167a565b5060a082015181600501908051906020019062000fd292919062001701565b5060c082015181600601908051906020019062000ff19291906200167a565b5060e082015181600701556101008201518160080155505050600086908060018154018082558091505090600182039060005260206000209060090201600090919290919091506000820151816000019080519060200190620010569291906200167a565b5060208201518160010155604082015181600201556060820151816003019080519060200190620010899291906200167a565b506080820151816004019080519060200190620010a89291906200167a565b5060a0820151816005019080519060200190620010c792919062001701565b5060c0820151816006019080519060200190620010e69291906200167a565b5060e0820151816007015561010082015181600801555050506000829080600181540180825580915050906001820390600052602060002090600902016000909192909190915060008201518160000190805190602001906200114b9291906200167a565b50602082015181600101556040820151816002015560608201518160030190805190602001906200117e9291906200167a565b5060808201518160040190805190602001906200119d9291906200167a565b5060a0820151816005019080519060200190620011bc92919062001701565b5060c0820151816006019080519060200190620011db9291906200167a565b5060e082015181600701556101008201518160080155505050620011fe62001768565b600181600001818152505062ba62df8160200181815250506040518060400160405280600a81526020017f46696e616c697a61646f0000000000000000000000000000000000000000000081525081604001819052506040518060400160405280600881526020017f4170726f6261646f00000000000000000000000000000000000000000000000081525081606001819052506040518060800160405280605f815260200162003d7c605f913981608001819052506001819080600181540180825580915050906001820390600052602060002090600502016000909192909190915060008201518160000155602082015181600101556040820151816002019080519060200190620013149291906200167a565b506060820151816003019080519060200190620013339291906200167a565b506080820151816004019080519060200190620013529291906200167a565b505050506200136062001768565b600281600001818152505062ba62df8160200181815250506040518060400160405280600a81526020017f46696e616c697a61646f0000000000000000000000000000000000000000000081525081604001819052506040518060400160405280600881526020017f4170726f6261646f00000000000000000000000000000000000000000000000081525081606001819052506040518060800160405280605f815260200162003d7c605f913981608001819052506001819080600181540180825580915050906001820390600052602060002090600502016000909192909190915060008201518160000155602082015181600101556040820151816002019080519060200190620014769291906200167a565b506060820151816003019080519060200190620014959291906200167a565b506080820151816004019080519060200190620014b49291906200167a565b50505050620014c262001768565b600381600001818152505063123125a08160200181815250506040518060400160405280600a81526020017f46696e616c697a61646f0000000000000000000000000000000000000000000081525081604001819052506040518060400160405280600881526020017f4170726f6261646f00000000000000000000000000000000000000000000000081525081606001819052506040518060800160405280605f815260200162003d7c605f913981608001819052506001819080600181540180825580915050906001820390600052602060002090600502016000909192909190915060008201518160000155602082015181600101556040820151816002019080519060200190620015d99291906200167a565b506060820151816003019080519060200190620015f89291906200167a565b506080820151816004019080519060200190620016179291906200167a565b50505050505050505050505050505050506200183c565b6040518061012001604052806060815260200160008152602001600081526020016060815260200160608152602001606081526020016060815260200160008152602001600081525090565b828054600181600116156101000203166002900490600052602060002090601f016020900481019282601f10620016bd57805160ff1916838001178555620016ee565b82800160010185558215620016ee579182015b82811115620016ed578251825591602001919060010190620016d0565b5b509050620016fd919062001797565b5090565b82805482825590600052602060002090810192821562001755579160200282015b8281111562001754578251829080519060200190620017439291906200167a565b509160200191906001019062001722565b5b509050620017649190620017bf565b5090565b6040518060a0016040528060008152602001600081526020016060815260200160608152602001606081525090565b620017bc91905b80821115620017b85760008160009055506001016200179e565b5090565b90565b620017ed91905b80821115620017e95760008181620017df9190620017f0565b50600101620017c6565b5090565b90565b50805460018160011615610100020316600290046000825580601f1062001818575062001839565b601f01602090049060005260206000209081019062001838919062001797565b5b50565b61209a806200184c6000396000f3fe608060405234801561001057600080fd5b506004361061007d5760003560e01c8063aa2da1771161005b578063aa2da177146100ee578063bc7af1c61461011e578063fc678fe41461014e578063fd5bbb991461017e5761007d565b806330f467e5146100825780633b1a66f8146100a05780639d97ef0c146100be575b600080fd5b61008a61019a565b6040516100979190611e1a565b60405180910390f35b6100a86103f3565b6040516100b59190611df8565b60405180910390f35b6100d860048036036100d391908101906118d7565b6107ec565b6040516100e59190611e1a565b60405180910390f35b610108600480360361010391908101906118d7565b610ac7565b6040516101159190611e3c565b60405180910390f35b61013860048036036101339190810190611900565b610ee4565b6040516101459190611e5e565b60405180910390f35b61016860048036036101639190810190611855565b61118b565b6040516101759190611e80565b60405180910390f35b61019860048036036101939190810190611896565b611292565b005b60606001805480602002602001604051908101604052809291908181526020016000905b828210156103ea57838290600052602060002090600502016040518060a00160405290816000820154815260200160018201548152602001600282018054600181600116156101000203166002900480601f01602080910402602001604051908101604052809291908181526020018280546001816001161561010002031660029004801561028e5780601f106102635761010080835404028352916020019161028e565b820191906000526020600020905b81548152906001019060200180831161027157829003601f168201915b50505050508152602001600382018054600181600116156101000203166002900480601f0160208091040260200160405190810160405280929190818152602001828054600181600116156101000203166002900480156103305780601f1061030557610100808354040283529160200191610330565b820191906000526020600020905b81548152906001019060200180831161031357829003601f168201915b50505050508152602001600482018054600181600116156101000203166002900480601f0160208091040260200160405190810160405280929190818152602001828054600181600116156101000203166002900480156103d25780601f106103a7576101008083540402835291602001916103d2565b820191906000526020600020905b8154815290600101906020018083116103b557829003601f168201915b505050505081525050815260200190600101906101be565b50505050905090565b60606000805480602002602001604051908101604052809291908181526020016000905b828210156107e3578382906000526020600020906009020160405180610120016040529081600082018054600181600116156101000203166002900480601f0160208091040260200160405190810160405280929190818152602001828054600181600116156101000203166002900480156104d45780601f106104a9576101008083540402835291602001916104d4565b820191906000526020600020905b8154815290600101906020018083116104b757829003601f168201915b505050505081526020016001820154815260200160028201548152602001600382018054600181600116156101000203166002900480601f01602080910402602001604051908101604052809291908181526020018280546001816001161561010002031660029004801561058a5780601f1061055f5761010080835404028352916020019161058a565b820191906000526020600020905b81548152906001019060200180831161056d57829003601f168201915b50505050508152602001600482018054600181600116156101000203166002900480601f01602080910402602001604051908101604052809291908181526020018280546001816001161561010002031660029004801561062c5780601f106106015761010080835404028352916020019161062c565b820191906000526020600020905b81548152906001019060200180831161060f57829003601f168201915b5050505050815260200160058201805480602002602001604051908101604052809291908181526020016000905b82821015610716578382906000526020600020018054600181600116156101000203166002900480601f0160208091040260200160405190810160405280929190818152602001828054600181600116156101000203166002900480156107025780601f106106d757610100808354040283529160200191610702565b820191906000526020600020905b8154815290600101906020018083116106e557829003601f168201915b50505050508152602001906001019061065a565b505050508152602001600682018054600181600116156101000203166002900480601f0160208091040260200160405190810160405280929190818152602001828054600181600116156101000203166002900480156107b75780601f1061078c576101008083540402835291602001916107b7565b820191906000526020600020905b81548152906001019060200180831161079a57829003601f168201915b505050505081526020016007820154815260200160088201548152505081526020019060010190610417565b50505050905090565b60608060018054905060405190808252806020026020018201604052801561082e57816020015b61081b611331565b8152602001906001900390816108135790505b509050600080905060008090505b600180549050811015610abc57846001828154811061085757fe5b9060005260206000209060050201600001541415610aaf576001818154811061087c57fe5b90600052602060002090600502016040518060a00160405290816000820154815260200160018201548152602001600282018054600181600116156101000203166002900480601f0160208091040260200160405190810160405280929190818152602001828054600181600116156101000203166002900480156109425780601f1061091757610100808354040283529160200191610942565b820191906000526020600020905b81548152906001019060200180831161092557829003601f168201915b50505050508152602001600382018054600181600116156101000203166002900480601f0160208091040260200160405190810160405280929190818152602001828054600181600116156101000203166002900480156109e45780601f106109b9576101008083540402835291602001916109e4565b820191906000526020600020905b8154815290600101906020018083116109c757829003601f168201915b50505050508152602001600482018054600181600116156101000203166002900480601f016020809104026020016040519081016040528092919081815260200182805460018160011615610100020316600290048015610a865780601f10610a5b57610100808354040283529160200191610a86565b820191906000526020600020905b815481529060010190602001808311610a6957829003601f168201915b505050505081525050838381518110610a9b57fe5b602002602001018190525081806001019250505b808060010191505061083c565b508192505050919050565b610acf611360565b60008090505b600080549050811015610edd578260008281548110610af057fe5b9060005260206000209060090201600101541415610ed05760008181548110610b1557fe5b906000526020600020906009020160405180610120016040529081600082018054600181600116156101000203166002900480601f016020809104026020016040519081016040528092919081815260200182805460018160011615610100020316600290048015610bc85780601f10610b9d57610100808354040283529160200191610bc8565b820191906000526020600020905b815481529060010190602001808311610bab57829003601f168201915b505050505081526020016001820154815260200160028201548152602001600382018054600181600116156101000203166002900480601f016020809104026020016040519081016040528092919081815260200182805460018160011615610100020316600290048015610c7e5780601f10610c5357610100808354040283529160200191610c7e565b820191906000526020600020905b815481529060010190602001808311610c6157829003601f168201915b50505050508152602001600482018054600181600116156101000203166002900480601f016020809104026020016040519081016040528092919081815260200182805460018160011615610100020316600290048015610d205780601f10610cf557610100808354040283529160200191610d20565b820191906000526020600020905b815481529060010190602001808311610d0357829003601f168201915b5050505050815260200160058201805480602002602001604051908101604052809291908181526020016000905b82821015610e0a578382906000526020600020018054600181600116156101000203166002900480601f016020809104026020016040519081016040528092919081815260200182805460018160011615610100020316600290048015610df65780601f10610dcb57610100808354040283529160200191610df6565b820191906000526020600020905b815481529060010190602001808311610dd957829003601f168201915b505050505081526020019060010190610d4e565b505050508152602001600682018054600181600116156101000203166002900480601f016020809104026020016040519081016040528092919081815260200182805460018160011615610100020316600290048015610eab5780601f10610e8057610100808354040283529160200191610eab565b820191906000526020600020905b815481529060010190602001808311610e8e57829003601f168201915b5050505050815260200160078201548152602001600882015481525050915050610edf565b8080600101915050610ad5565b505b919050565b610eec6113ac565b60008090505b600180549050811015611183578260018281548110610f0d57fe5b906000526020600020906005020160000154148015610f4957508360018281548110610f3557fe5b906000526020600020906005020160010154145b156111765760018181548110610f5b57fe5b90600052602060002090600502016040518060a00160405290816000820154815260200160018201548152602001600282018054600181600116156101000203166002900480601f0160208091040260200160405190810160405280929190818152602001828054600181600116156101000203166002900480156110215780601f10610ff657610100808354040283529160200191611021565b820191906000526020600020905b81548152906001019060200180831161100457829003601f168201915b50505050508152602001600382018054600181600116156101000203166002900480601f0160208091040260200160405190810160405280929190818152602001828054600181600116156101000203166002900480156110c35780601f10611098576101008083540402835291602001916110c3565b820191906000526020600020905b8154815290600101906020018083116110a657829003601f168201915b50505050508152602001600482018054600181600116156101000203166002900480601f0160208091040260200160405190810160405280929190818152602001828054600181600116156101000203166002900480156111655780601f1061113a57610100808354040283529160200191611165565b820191906000526020600020905b81548152906001019060200180831161114857829003601f168201915b505050505081525050915050611185565b8080600101915050610ef2565b505b92915050565b600080805490508260200181815250506000829080600181540180825580915050906001820390600052602060002090600902016000909192909190915060008201518160000190805190602001906111e59291906113db565b50602082015181600101556040820151816002015560608201518160030190805190602001906112169291906113db565b5060808201518160040190805190602001906112339291906113db565b5060a082015181600501908051906020019061125092919061145b565b5060c082015181600601908051906020019061126d9291906113db565b5060e08201518160070155610100820151816008015550505081602001519050919050565b60018190806001815401808255809150509060018203906000526020600020906005020160009091929091909150600082015181600001556020820151816001015560408201518160020190805190602001906112f09291906113db565b50606082015181600301908051906020019061130d9291906113db565b50608082015181600401908051906020019061132a9291906113db565b5050505050565b6040518060a0016040528060008152602001600081526020016060815260200160608152602001606081525090565b6040518061012001604052806060815260200160008152602001600081526020016060815260200160608152602001606081526020016060815260200160008152602001600081525090565b6040518060a0016040528060008152602001600081526020016060815260200160608152602001606081525090565b828054600181600116156101000203166002900490600052602060002090601f016020900481019282601f1061141c57805160ff191683800117855561144a565b8280016001018555821561144a579182015b8281111561144957825182559160200191906001019061142e565b5b50905061145791906114bb565b5090565b8280548282559060005260206000209081019282156114aa579160200282015b828111156114a95782518290805190602001906114999291906113db565b509160200191906001019061147b565b5b5090506114b791906114e0565b5090565b6114dd91905b808211156114d95760008160009055506001016114c1565b5090565b90565b61150991905b8082111561150557600081816114fc919061150c565b506001016114e6565b5090565b90565b50805460018160011615610100020316600290046000825580601f106115325750611551565b601f01602090049060005260206000209081019061155091906114bb565b5b50565b600082601f83011261156557600080fd5b813561157861157382611ec8565b611e9b565b9150818183526020840193506020810190508360005b838110156115be57813586016115a488826115c8565b84526020840193506020830192505060018101905061158e565b5050505092915050565b600082601f8301126115d957600080fd5b81356115ec6115e782611ef0565b611e9b565b9150808252602083016020830185838301111561160857600080fd5b611613838284611fed565b50505092915050565b6000610120828403121561162f57600080fd5b61163a610120611e9b565b9050600082013567ffffffffffffffff81111561165657600080fd5b611662848285016115c8565b600083015250602061167684828501611840565b602083015250604061168a84828501611840565b604083015250606082013567ffffffffffffffff8111156116aa57600080fd5b6116b6848285016115c8565b606083015250608082013567ffffffffffffffff8111156116d657600080fd5b6116e2848285016115c8565b60808301525060a082013567ffffffffffffffff81111561170257600080fd5b61170e84828501611554565b60a08301525060c082013567ffffffffffffffff81111561172e57600080fd5b61173a848285016115c8565b60c08301525060e061174e84828501611840565b60e08301525061010061176384828501611840565b6101008301525092915050565b600060a0828403121561178257600080fd5b61178c60a0611e9b565b9050600061179c84828501611840565b60008301525060206117b084828501611840565b602083015250604082013567ffffffffffffffff8111156117d057600080fd5b6117dc848285016115c8565b604083015250606082013567ffffffffffffffff8111156117fc57600080fd5b611808848285016115c8565b606083015250608082013567ffffffffffffffff81111561182857600080fd5b611834848285016115c8565b60808301525092915050565b60008135905061184f81612040565b92915050565b60006020828403121561186757600080fd5b600082013567ffffffffffffffff81111561188157600080fd5b61188d8482850161161c565b91505092915050565b6000602082840312156118a857600080fd5b600082013567ffffffffffffffff8111156118c257600080fd5b6118ce84828501611770565b91505092915050565b6000602082840312156118e957600080fd5b60006118f784828501611840565b91505092915050565b6000806040838503121561191357600080fd5b600061192185828601611840565b925050602061193285828601611840565b9150509250929050565b60006119488383611ad7565b905092915050565b600061195c8383611bf1565b905092915050565b60006119708383611d56565b905092915050565b600061198382611f4c565b61198d8185611f9f565b93508360208202850161199f85611f1c565b8060005b858110156119db57848403895281516119bc858261193c565b94506119c783611f78565b925060208a019950506001810190506119a3565b50829750879550505050505092915050565b60006119f882611f57565b611a028185611fb0565b935083602082028501611a1485611f2c565b8060005b85811015611a505784840389528151611a318582611950565b9450611a3c83611f85565b925060208a01995050600181019050611a18565b50829750879550505050505092915050565b6000611a6d82611f62565b611a778185611fc1565b935083602082028501611a8985611f3c565b8060005b85811015611ac55784840389528151611aa68582611964565b9450611ab183611f92565b925060208a01995050600181019050611a8d565b50829750879550505050505092915050565b6000611ae282611f6d565b611aec8185611fd2565b9350611afc818560208601611ffc565b611b058161202f565b840191505092915050565b6000610120830160008301518482036000860152611b2e8282611ad7565b9150506020830151611b436020860182611dda565b506040830151611b566040860182611dda565b5060608301518482036060860152611b6e8282611ad7565b91505060808301518482036080860152611b888282611ad7565b91505060a083015184820360a0860152611ba28282611978565b91505060c083015184820360c0860152611bbc8282611ad7565b91505060e0830151611bd160e0860182611dda565b50610100830151611be6610100860182611dda565b508091505092915050565b6000610120830160008301518482036000860152611c0f8282611ad7565b9150506020830151611c246020860182611dda565b506040830151611c376040860182611dda565b5060608301518482036060860152611c4f8282611ad7565b91505060808301518482036080860152611c698282611ad7565b91505060a083015184820360a0860152611c838282611978565b91505060c083015184820360c0860152611c9d8282611ad7565b91505060e0830151611cb260e0860182611dda565b50610100830151611cc7610100860182611dda565b508091505092915050565b600060a083016000830151611cea6000860182611dda565b506020830151611cfd6020860182611dda565b5060408301518482036040860152611d158282611ad7565b91505060608301518482036060860152611d2f8282611ad7565b91505060808301518482036080860152611d498282611ad7565b9150508091505092915050565b600060a083016000830151611d6e6000860182611dda565b506020830151611d816020860182611dda565b5060408301518482036040860152611d998282611ad7565b91505060608301518482036060860152611db38282611ad7565b91505060808301518482036080860152611dcd8282611ad7565b9150508091505092915050565b611de381611fe3565b82525050565b611df281611fe3565b82525050565b60006020820190508181036000830152611e1281846119ed565b905092915050565b60006020820190508181036000830152611e348184611a62565b905092915050565b60006020820190508181036000830152611e568184611b10565b905092915050565b60006020820190508181036000830152611e788184611cd2565b905092915050565b6000602082019050611e956000830184611de9565b92915050565b6000604051905081810181811067ffffffffffffffff82111715611ebe57600080fd5b8060405250919050565b600067ffffffffffffffff821115611edf57600080fd5b602082029050602081019050919050565b600067ffffffffffffffff821115611f0757600080fd5b601f19601f8301169050602081019050919050565b6000819050602082019050919050565b6000819050602082019050919050565b6000819050602082019050919050565b600081519050919050565b600081519050919050565b600081519050919050565b600081519050919050565b6000602082019050919050565b6000602082019050919050565b6000602082019050919050565b600082825260208201905092915050565b600082825260208201905092915050565b600082825260208201905092915050565b600082825260208201905092915050565b6000819050919050565b82818337600083830152505050565b60005b8381101561201a578082015181840152602081019050611fff565b83811115612029576000848401525b50505050565b6000601f19601f8301169050919050565b61204981611fe3565b811461205457600080fd5b5056fea365627a7a72315820a3bb4bb8d9e0fbc0a1fe4a1d1734f11270330257c78c26bb9c76ee9063822d846c6578706572696d656e74616cf564736f6c63430005100040496e74726f6475636369c3b36e2061206c612045746e6f6d757369636f6c6f67c3ad614f626a656374204f7269656e7465642050726f6772616d6d696e6720696e204a6176614a6176612050726f6772616d6d696e673a20536f6c76696e672050726f626c656d73207769746820536f6674776172654a6176612050726f6772616d6d696e673a204172726179732c204c697374732c20616e64205374727563747572656420446174614369656e6369617320536f6369616c657320792048756d616e61733a20446f637472696e6120506f6cc3ad746963613a20436f6d756e69736d6fc2bf54656e656d6f7320616c67756e61206f626c6967616369c3b36e206465206f62656365646572206c61206c65793fc2bf4c61732074656f72c3ad6173206369656e74c3ad666963617320736f6e20766572646164657261733fc389706f636120636f6e74656d706f72c3a16e65613a20456c2066696e206465206c6f7320706572696f646f73206d75736963616c657320c2bf4e6f3f4d6f72616c696461643a204f626a65746976612c2072656c6174697661206f20656d6f63696f6e616c4369656e6369617320536f6369616c657320792048756d616e61733a2046696c6f736f66c3ad6144697665727369666963616369c3b36e20696e737472756d656e74616c2061206c6f206c6172676f206465206c6120686973746f726961c2bf5175c3a920657320656c20636f6e6f63696d69656e746f3f20c2bf54656e656d6f7320616c67756e6f3f46757475726120646573747275636369c3b36e2064656c2073697374656d61206361706974616c697374612065737461646f756e6964656e73654573746520637572736f206c652070726573656e746172c3a120616c67756e6173206465206c6173207072696e636970616c657320c3a17265617320646520696e766573746967616369c3b36e20656e2066696c6f736f66c3ad6120636f6e74656d706f72c3a16e65612e20456e2063616461206dc3b364756c6f2c20756e2066696cc3b3736f666f206469666572656e7465206c6f206775696172c3a120612074726176c3a97320646520616c67756e6173206465206c61732070726567756e7461732079206375657374696f6e6573206dc3a17320696d706f7274616e74657320656e20737520c3a172656120646520657370656369616c697a616369c3b36e2e20436f6d656e7a6172656d6f732074726174616e646f20646520656e74656e646572207175c3a9206573206c612066696c6f736f66c3ad612c206375c3a16c657320736f6e20737573206f626a657469766f732079206dc3a9746f646f73206361726163746572c3ad737469636f732c207920656e207175c3a9207365206469666572656e636961206465206f74726f732074656d61732e204c7565676f2c207061736172656d6f7320656c20726573746f2064656c20637572736f206f6274656e69656e646f20756e612076697369c3b36e2067656e6572616c20696e74726f647563746f7269612064652076617269617320c3a172656173206469666572656e7465732e4575726f70612079206c61206dc3ba73696361206465206c6f7320627572677565736573456c20637572736f20667565206170726f6261646f20636f6e206d7579206275656e61732063616c696669636163696f6e65732c206c6f6772616e646f206c6120636f6d7072656e7369c3b36e206465206c6f7320636f6e74656e69646f734f72c3ad67656e6573206573706972697475616c6573206465206c61206dc3ba73696361456e20657374612061637265646974616369c3b36e20736520627573636120636f6e6669726d61722071756520656c206173706972616e746520706f736561206c6f7320636f6e6f63696d69656e746f73206e656365736172696f732066756e64616d656e74616c657320736f62726520656c20636f6d756e69736d6f206368696e6f2e20436f6e20656c2066696e2064652071756520656c206173706972616e74652073656120636170617a20646520636f6d7072656e646572206c617320616363696f6e657320706f6cc3ad7469636173207265616c697a6164617320706f7220656c20676f626965726e6f206368696e6f2061637475616c207265616c697a6164617320656e20626173652061206c6f7320726573756c7461646f73206f6274656e69646f7320647572616e746520746f6461206c6120686973746f72696120656e206c6120766964612064656c20636f6d756e69736d6f206368696e6f2e204c6120706572736f6e6120717565206f6274656e676120657374612061637265646974616369c3b36e2073656120636170617a2064652061706f796172207920646566656e64657220656c20636f6d756e69736d6f206368696e6f20636f6e74656d706f72c3a16e656f20656e207375206c7563686120636f6e20656c206361706974616c69736d6f2065737461646f756e6964656e73652e436f6e206672656375656e6369612064616d6f73206c61206dc3ba7369636120706f722073656e7461646f20656e206e7565737472612076696461206469617269612e205065726f20616c20696775616c20717565206c6120736f636965646164206d69736d612c206c61206dc3ba73696361207475766f20756e206f726967656e20727564696d656e746172696f20717565206a756e746f20612065737461206675652065766f6c7563696f6e616e646f207920666f726d616e646f2070617274652066756e64616d656e74616c206465206c61206964656e7469646164206465206d75636861732063756c74757261732e204361646120756e612070657263696269656e646f206c61206dc3ba7369636120646520666f726d61732074616e2064697374696e74617320636f6d6f206c6f7320696e737472756d656e746f73207175652075736162616e206f206c6f7320657374696c6f732071756520746f636162616e2e20456e206573746520637572736f2070726574656e64656d6f732071756520656c20657374756469616e746520616471756965726120756e6120617072656369616369c3b36e20706f72206c61206964656e7469646164206d75736963616c206465206c61732063756c7475726173206dc3a17320696e666c7579656e74657320656e206c6120686973746f7269612e436f6e6f63696d69656e746f7320736f627265206c6f73207574656e63696c696f733a2043686177616e2c204368616972652c2043686173656e2c204368617368616b752c2048697368616b752c204368616b696e2c2046756b7573612053652062757363612071756520656c206173706972616e746520706f73656120746f646f73206c6f7320636f6e6f63696d69656e746f732074656f7269636f7320707261637469636f7320616365726361206465206c6f732064697374696e746f7320656c656d656e746f7320792070726f6365736f732071756520736f6e206e656365736172696f7320647572616e7465206c6120656c61626f72616369c3b36e206465206c6120636572656d6f6e69612064656c2074c3a94573746120657370656369616c697a616369c3b36e20657374c3a12064657374696e61646120612066757475726f73206465736172726f6c6c61646f72657320646520736f66747761726520636f6e2063696572746120657870657269656e63696120656e2070726f6772616d616369c3b36e20656e20616c206d656e6f73206f74726f206c656e6775616a652064652070726f6772616d616369c3b36e2028706f7220656a656d706c6f2c20507974686f6e2c20432c204a6176615363726970742c206574632e29207175652064657365656e20706f646572207265736f6c7665722070726f626c656d6173206dc3a17320636f6d706c656a6f73207574696c697a616e646f206120756e2064697365c3b16f206f7269656e7461646f2061206f626a65746f7320636f6e204a6176612e204164656dc3a17320646520617072656e646572204a6176612c206f6274656e6472c3a120657870657269656e63696120636f6e20646f7320656e746f726e6f73206465206465736172726f6c6c6f204a6176612028426c75654a20792045636c69707365292c20617072656e646572c3a120612070726f6772616d617220636f6e20696e7465726661636573206772c3a16669636173206465207573756172696f207920617072656e646572c3a120612064697365c3b161722070726f6772616d61732063617061636573206465206d616e656a6172206772616e6465732063616e74696461646573206465206461746f732e20457374617320686162696c69646164657320646520696e67656e696572c3ad6120646520736f66747761726520736f6e20616d706c69616d656e74652061706c696361626c657320656e20756e6120616d706c69612067616d6120646520696e64757374726961732e",
  "source": "pragma solidity >=0.4.21 <0.7.0;\r\npragma experimental ABIEncoderV2;\r\n\r\ncontract ServiciosUsuario {\r\n    Usuario[] usuarios;\r\n    mapping(uint256 => uint256) usuariosMap;\r\n\r\n    struct Usuario {\r\n        string first_name;\r\n        string last_name;\r\n        string password;\r\n        string email;\r\n        uint256 telefono;\r\n        string[] redes;\r\n        uint256 cedula;\r\n    }\r\n\r\n    constructor() public {\r\n        Usuario memory usuario_;\r\n        Usuario memory usuario_2;\r\n        Usuario memory usuario_3;\r\n        Usuario memory usuario_4;\r\n        Usuario memory usuario_5;\r\n\r\n        usuario_.first_name = \"Felipe\";\r\n        usuario_.last_name = \"Pacheco Cerdas\";\r\n        usuario_.password = \"felipe1\";\r\n        usuario_.email = \"felipepace09@gmail.com\";\r\n        usuario_.telefono = 85858585;\r\n        string[] memory rrss = new string[](2);\r\n        rrss[0] = \"Facebook: felipepace09\";\r\n        rrss[1] = \"Instragram: felipe09\";\r\n        usuario_.redes = rrss;\r\n        usuario_.cedula = 305280872;\r\n\r\n        usuario_2.first_name = \"Jeremy\";\r\n        usuario_2.last_name = \"Tencio Morales\";\r\n        usuario_2.password = \"jeremy1\";\r\n        usuario_2.email = \"jdtm23@gmail.com\";\r\n        usuario_2.telefono = 75417878;\r\n        string[] memory rrss2 = new string[](2);\r\n        rrss2[0] = \"Facebook: jdtm23\";\r\n        rrss2[1] = \"Instragram: jdtm23\";\r\n        usuario_2.redes = rrss;\r\n        usuario_2.cedula = 305210784;\r\n\r\n        usuario_3.first_name = \"Bernold\";\r\n        usuario_3.last_name = \"Abarca Ziga\";\r\n        usuario_3.password = \"bernold1\";\r\n        usuario_3.email = \"bernoldaz.com\";\r\n        usuario_3.telefono = 70132088;\r\n        string[] memory rrss3 = new string[](2);\r\n        rrss3[0] = \"Facebook: bernoldaz\";\r\n        rrss3[1] = \"Instragram: bernoldaz\";\r\n        usuario_3.redes = rrss;\r\n        usuario_3.cedula = 117890661;\r\n\r\n        usuario_4.first_name = \"Gerardo\";\r\n        usuario_4.last_name = \"Lpez\";\r\n        usuario_4.password = \"g.rar1\";\r\n        usuario_4.email = \"g.rar@gmail.com\";\r\n        usuario_4.telefono = 91479012;\r\n        string[] memory rrss4 = new string[](2);\r\n        rrss4[0] = \"Facebook: g.rar\";\r\n        rrss4[1] = \"Instragram: g.rar\";\r\n        usuario_4.redes = rrss;\r\n        usuario_4.cedula = 117890666;\r\n\r\n        usuario_5.first_name = \"Arturo\";\r\n        usuario_5.last_name = \"Vsquez\";\r\n        usuario_5.password = \"arturo1\";\r\n        usuario_5.email = \"arturo@gmail.com\";\r\n        usuario_5.telefono = 12215007;\r\n        string[] memory rrss5 = new string[](2);\r\n        rrss5[0] = \"Facebook: arturo?\";\r\n        rrss5[1] = \"Instragram: arturo?\";\r\n        usuario_5.redes = rrss;\r\n        usuario_5.cedula = 12215007;\r\n\r\n        usuariosMap[usuario_.cedula] = usuarios.length;\r\n        usuarios.push(usuario_);\r\n        usuariosMap[usuario_2.cedula] = usuarios.length;\r\n        usuarios.push(usuario_2);\r\n        usuariosMap[usuario_3.cedula] = usuarios.length;\r\n        usuarios.push(usuario_3);\r\n        usuariosMap[usuario_4.cedula] = usuarios.length;\r\n        usuarios.push(usuario_4);\r\n        usuariosMap[usuario_5.cedula] = usuarios.length;\r\n        usuarios.push(usuario_5);\r\n    }\r\n\r\n    function agregarUsuario(Usuario memory _usuario)\r\n        public\r\n        returns (string memory)\r\n    {\r\n        if (usuariosMap[_usuario.cedula] == 0) {\r\n            usuariosMap[_usuario.cedula] = usuarios.length;\r\n            usuarios.push(_usuario);\r\n            return \"S\";\r\n        } else {\r\n            return \"F\";\r\n        }\r\n    }\r\n\r\n    function getUsuario(uint256 cedula)\r\n        public\r\n        view\r\n        returns (Usuario memory usuario)\r\n    {\r\n        return usuarios[usuariosMap[cedula]];\r\n    }\r\n\r\n    function getUsuarios() public view returns (Usuario[] memory usuario) {\r\n        return usuarios;\r\n    }\r\n}\r\n\r\ncontract ServiciosAcreditacion {\r\n    Acreditacion[] acreditaciones;\r\n\r\n    AspiranteAcreditacion[] aspirantes;\r\n\r\n    struct AspiranteAcreditacion {\r\n        uint256 idAcreditacion;\r\n        uint256 idAspirante;\r\n        string estado;\r\n        string resultado;\r\n        string descripcionResultado;\r\n    }\r\n\r\n    struct Acreditacion {\r\n        string titulo;\r\n        uint256 idAcreditacion;\r\n        uint256 idAcreditador;\r\n        string conocimiento;\r\n        string tipoMedio;\r\n        string[] contenidos;\r\n        string descripcion;\r\n        uint256 ignos;\r\n        uint256 virtus;\r\n    }\r\n\r\n    constructor() public {\r\n        Acreditacion memory acreditacion_;\r\n        acreditacion_.titulo = \"Java Basics\";\r\n        acreditacion_.idAcreditacion = 1;\r\n        acreditacion_.idAcreditador = 305280872;\r\n        acreditacion_.conocimiento = \"Ciencias de la Computacin\";\r\n        acreditacion_.tipoMedio = \"Proyecto Programado\";\r\n        string[] memory ct = new string[](4);\r\n        ct[0] = \"Java Programming: Solving Problems with Software\";\r\n        ct[1] = \"Java Programming: Arrays, Lists, and Structured Data\";\r\n        ct[2] = \"Object Oriented Programming in Java\";\r\n        ct[3] = \"Data Structures and Performance\";\r\n        acreditacion_.contenidos = ct;\r\n        acreditacion_\r\n            .descripcion = \"Esta especializacin est destinada a futuros desarrolladores de software con cierta experiencia en programacin en al menos otro lenguaje de programacin (por ejemplo, Python, C, JavaScript, etc.) que deseen poder resolver problemas ms complejos utilizando a un diseo orientado a objetos con Java. Adems de aprender Java, obtendr experiencia con dos entornos de desarrollo Java (BlueJ y Eclipse), aprender a programar con interfaces grficas de usuario y aprender a disear programas capaces de manejar grandes cantidades de datos. Estas habilidades de ingeniera de software son ampliamente aplicables en una amplia gama de industrias.\";\r\n        acreditacion_.ignos = 5;\r\n        acreditacion_.virtus = 5;\r\n\r\n        Acreditacion memory acreditacion_2;\r\n        acreditacion_2.titulo = \"Introduccin a Filosofa\";\r\n        acreditacion_2.idAcreditacion = 2;\r\n        acreditacion_2.idAcreditador = 305210784;\r\n        acreditacion_2.conocimiento = \"Ciencias Sociales y Humanas: Filosofa\";\r\n        acreditacion_2.tipoMedio = \"Ensayo\";\r\n        string[] memory ct2 = new string[](6);\r\n        ct2[0] = \"Qu es la filosofa?\";\r\n        ct2[1] = \"Moralidad: Objetiva, relativa o emocional\";\r\n        ct2[2] = \"Qu es el conocimiento? Tenemos alguno?\";\r\n        ct2[3] = \"Tenemos alguna obligacin de obeceder la ley?\";\r\n        ct2[4] = \"Mentes, cerebros y computadoras\";\r\n        ct2[5] = \"Las teoras cientficas son verdaderas?\";\r\n        acreditacion_2.contenidos = ct2;\r\n        acreditacion_2\r\n            .descripcion = \"Este curso le presentar algunas de las principales reas de investigacin en filosofa contempornea. En cada mdulo, un filsofo diferente lo guiar a travs de algunas de las preguntas y cuestiones ms importantes en su rea de especializacin. Comenzaremos tratando de entender qu es la filosofa, cules son sus objetivos y mtodos caractersticos, y en qu se diferencia de otros temas. Luego, pasaremos el resto del curso obteniendo una visin general introductoria de varias reas diferentes.\";\r\n        acreditacion_2.ignos = 5;\r\n        acreditacion_2.virtus = 5;\r\n\r\n        Acreditacion memory acreditacion_4;\r\n        acreditacion_4.titulo = \"Introduccin a la Etnomusicologa\";\r\n        acreditacion_4.idAcreditacion = 4;\r\n        acreditacion_4.idAcreditador = 117890666;\r\n        acreditacion_4.conocimiento = \"Arte: Msica\";\r\n        acreditacion_4.tipoMedio = \"Curso\";\r\n        string[] memory ct4 = new string[](5);\r\n        ct4[0] = \"Orgenes espirituales de la msica\";\r\n        ct4[1] = \"Diversificacin instrumental a lo largo de la historia\";\r\n        ct4[2] = \"Msica de Asia y Medio Oriente\";\r\n        ct4[3] = \"Europa y la msica de los burgueses\";\r\n        ct4[4] = \"poca contempornea: El fin de los periodos musicales No?\";\r\n        acreditacion_4.contenidos = ct4;\r\n        acreditacion_4\r\n            .descripcion = \"Con frecuencia damos la msica por sentado en nuestra vida diaria. Pero al igual que la sociedad misma, la msica tuvo un origen rudimentario que junto a esta fue evolucionando y formando parte fundamental de la identidad de muchas culturas. Cada una percibiendo la msica de formas tan distintas como los instrumentos que usaban o los estilos que tocaban. En este curso pretendemos que el estudiante adquiera una apreciacin por la identidad musical de las culturas ms influyentes en la historia.\";\r\n        acreditacion_4.ignos = 5;\r\n        acreditacion_4.virtus = 5;\r\n\r\n        Acreditacion memory acreditacion_3;\r\n        acreditacion_3.titulo = \"Comunismo Chino\";\r\n        acreditacion_3.idAcreditacion = 3;\r\n        acreditacion_3.idAcreditador = 117890661;\r\n        acreditacion_3\r\n            .conocimiento = \"Ciencias Sociales y Humanas: Doctrina Poltica: Comunismo\";\r\n        acreditacion_3.tipoMedio = \"Curso y Examen\";\r\n        string[] memory ct3 = new string[](5);\r\n        ct3[0] = \"Qu es el comunismo?\";\r\n        ct3[1] = \"Influencia con Mao Tse Tung\";\r\n        ct3[2] = \"Acciones implementadas\";\r\n        ct3[3] = \"Repercusiones en la China actual\";\r\n        ct3[4] = \"Futura destruccin del sistema capitalista estadounidense\";\r\n        acreditacion_3.contenidos = ct3;\r\n        acreditacion_3\r\n            .descripcion = \"En esta acreditacin se busca confirmar que el aspirante posea los conocimientos necesarios fundamentales sobre el comunismo chino. Con el fin de que el aspirante sea capaz de comprender las acciones polticas realizadas por el gobierno chino actual realizadas en base a los resultados obtenidos durante toda la historia en la vida del comunismo chino. La persona que obtenga esta acreditacin sea capaz de apoyar y defender el comunismo chino contemporneo en su lucha con el capitalismo estadounidense.\";\r\n        acreditacion_3.ignos = 5;\r\n        acreditacion_3.virtus = 5;\r\n\r\n        Acreditacion memory acreditacion_5;\r\n        acreditacion_5.titulo = \"Ceremonia del t\";\r\n        acreditacion_5.idAcreditacion = 3;\r\n        acreditacion_5.idAcreditador = 117890661;\r\n        acreditacion_5.conocimiento = \"Arte: Ceremonias\";\r\n        acreditacion_5.tipoMedio = \"Prueba prctica\";\r\n        string[] memory ct5 = new string[](6);\r\n        ct5[0] = \"Los Principios de Chanoyu\";\r\n        ct5[1] = \"Conocimientos sobre los utencilios: Chawan, Chaire, Chasen, Chashaku, Hishaku, Chakin, Fukusa \";\r\n        ct5[2] = \"Kaiseki\";\r\n        ct5[3] = \"Naka-dachi\";\r\n        ct5[4] = \"Goza-iri\";\r\n        ct5[5] = \"Usucha\";\r\n        acreditacion_5.contenidos = ct5;\r\n        acreditacion_5\r\n            .descripcion = \"Se busca que el aspirante posea todos los conocimientos teoricos practicos acerca de los distintos elementos y procesos que son necesarios durante la elaboracin de la ceremonia del t\";\r\n        acreditacion_5.ignos = 5;\r\n        acreditacion_5.virtus = 5;\r\n\r\n        acreditaciones.push(acreditacion_);\r\n        acreditaciones.push(acreditacion_2);\r\n        acreditaciones.push(acreditacion_3);\r\n        acreditaciones.push(acreditacion_4);\r\n        acreditaciones.push(acreditacion_5);\r\n\r\n        AspiranteAcreditacion memory acreditacionAspirante_;\r\n        acreditacionAspirante_.idAcreditacion = 1;\r\n        acreditacionAspirante_.idAspirante = 12215007;\r\n        acreditacionAspirante_.estado = \"Finalizado\";\r\n        acreditacionAspirante_.resultado = \"Aprobado\";\r\n        acreditacionAspirante_\r\n            .descripcionResultado = \"El curso fue aprobado con muy buenas calificaciones, logrando la comprensin de los contenidos\";\r\n\r\n        aspirantes.push(acreditacionAspirante_);\r\n\r\n        AspiranteAcreditacion memory acreditacionAspirante_7;\r\n        acreditacionAspirante_7.idAcreditacion = 2;\r\n        acreditacionAspirante_7.idAspirante = 12215007;\r\n        acreditacionAspirante_7.estado = \"Finalizado\";\r\n        acreditacionAspirante_7.resultado = \"Aprobado\";\r\n        acreditacionAspirante_7\r\n            .descripcionResultado = \"El curso fue aprobado con muy buenas calificaciones, logrando la comprensin de los contenidos\";\r\n\r\n        aspirantes.push(acreditacionAspirante_7);\r\n\r\n        AspiranteAcreditacion memory acreditacionAspirante_8;\r\n        acreditacionAspirante_8.idAcreditacion = 3;\r\n        acreditacionAspirante_8.idAspirante = 305210784;\r\n        acreditacionAspirante_8.estado = \"Finalizado\";\r\n        acreditacionAspirante_8.resultado = \"Aprobado\";\r\n        acreditacionAspirante_8\r\n            .descripcionResultado = \"El curso fue aprobado con muy buenas calificaciones, logrando la comprensin de los contenidos\";\r\n\r\n        aspirantes.push(acreditacionAspirante_8);\r\n    }\r\n\r\n    function agregarAcreditacion(Acreditacion memory _acreditacion)\r\n        public\r\n        returns (uint256)\r\n    {\r\n        _acreditacion.idAcreditacion = acreditaciones.length;\r\n        acreditaciones.push(_acreditacion);\r\n        return _acreditacion.idAcreditacion;\r\n    }\r\n\r\n    function getAcreditacion(uint256 idAcreditacion)\r\n        public\r\n        view\r\n        returns (Acreditacion memory acreditacion)\r\n    {\r\n        for (uint256 i = 0; i < acreditaciones.length; i++) {\r\n            if (acreditaciones[i].idAcreditacion == idAcreditacion) {\r\n                return acreditaciones[i];\r\n            }\r\n        }\r\n    }\r\n\r\n    function getAcreditaciones()\r\n        public\r\n        view\r\n        returns (Acreditacion[] memory acreditacion)\r\n    {\r\n        return acreditaciones;\r\n    }\r\n\r\n    /* Aspirante */\r\n\r\n    function agregarAspiranteAcreditacion(\r\n        AspiranteAcreditacion memory _acreditacionAspirante\r\n    ) public {\r\n        aspirantes.push(_acreditacionAspirante);\r\n    }\r\n\r\n    function getAspiranteAcreditacion(uint256 idUsuario, uint256 idAcreditacion)\r\n        public\r\n        view\r\n        returns (AspiranteAcreditacion memory acreditacionAspirante)\r\n    {\r\n        for (uint256 i = 0; i < aspirantes.length; i++) {\r\n            if (\r\n                aspirantes[i].idAcreditacion == idAcreditacion &&\r\n                aspirantes[i].idAspirante == idUsuario\r\n            ) return aspirantes[i];\r\n        }\r\n    }\r\n\r\n    function getAspirantes()\r\n        public\r\n        view\r\n        returns (AspiranteAcreditacion[] memory acreditacionAspirante)\r\n    {\r\n        return aspirantes;\r\n    }\r\n\r\n    function getAspirantesPorAcreditacion(uint256 idAcreditacion)\r\n        public\r\n        view\r\n        returns (AspiranteAcreditacion[] memory acreditacionAspirante)\r\n    {\r\n        AspiranteAcreditacion[] memory res = new AspiranteAcreditacion[](\r\n            aspirantes.length\r\n        );\r\n        uint256 j = 0;\r\n        for (uint256 i = 0; i < aspirantes.length; i++) {\r\n            if (aspirantes[i].idAcreditacion == idAcreditacion) {\r\n                res[j] = aspirantes[i];\r\n                j++;\r\n            }\r\n        }\r\n        return res;\r\n    }\r\n}\r\n",
  "sourcePath": "C:\\Users\\felip\\Documents\\Kraken\\KAPlatform\\contracts\\ContratosAplicacion.sol",
  "compiler": {
    "name": "solc",
    "version": "0.5.16+commit.9c3226ce.Emscripten.clang"
  },
  "schemaVersion": "3.2.0",
  "updatedAt": "2020-07-17T06:10:16.059Z",
  "networkType": "ethereum",
  "devdoc": {
    "methods": {}
  },
  "userdoc": {
    "methods": {}
  }
}