{
  "contractName": "ServiciosAcreditacion",
  "abi": [
    {
      "inputs": [],
      "payable": false,
      "stateMutability": "nonpayable",
      "type": "constructor"
    },
    {
      "constant": false,
      "inputs": [
        {
          "components": [
            {
              "internalType": "string",
              "name": "titulo",
              "type": "string"
            },
            {
              "internalType": "uint256",
              "name": "idAcreditacion",
              "type": "uint256"
            },
            {
              "internalType": "uint256",
              "name": "idAcreditador",
              "type": "uint256"
            },
            {
              "internalType": "string",
              "name": "conocimiento",
              "type": "string"
            },
            {
              "internalType": "string",
              "name": "tipoMedio",
              "type": "string"
            },
            {
              "internalType": "string[]",
              "name": "contenidos",
              "type": "string[]"
            },
            {
              "internalType": "string",
              "name": "descripcion",
              "type": "string"
            },
            {
              "internalType": "uint256",
              "name": "ignos",
              "type": "uint256"
            },
            {
              "internalType": "uint256",
              "name": "virtus",
              "type": "uint256"
            }
          ],
          "internalType": "struct ServiciosAcreditacion.Acreditacion",
          "name": "_acreditacion",
          "type": "tuple"
        }
      ],
      "name": "agregarAcreditacion",
      "outputs": [],
      "payable": false,
      "stateMutability": "nonpayable",
      "type": "function"
    },
    {
      "constant": true,
      "inputs": [
        {
          "internalType": "uint256",
          "name": "idAcreditacion",
          "type": "uint256"
        }
      ],
      "name": "getAcreditacion",
      "outputs": [
        {
          "components": [
            {
              "internalType": "string",
              "name": "titulo",
              "type": "string"
            },
            {
              "internalType": "uint256",
              "name": "idAcreditacion",
              "type": "uint256"
            },
            {
              "internalType": "uint256",
              "name": "idAcreditador",
              "type": "uint256"
            },
            {
              "internalType": "string",
              "name": "conocimiento",
              "type": "string"
            },
            {
              "internalType": "string",
              "name": "tipoMedio",
              "type": "string"
            },
            {
              "internalType": "string[]",
              "name": "contenidos",
              "type": "string[]"
            },
            {
              "internalType": "string",
              "name": "descripcion",
              "type": "string"
            },
            {
              "internalType": "uint256",
              "name": "ignos",
              "type": "uint256"
            },
            {
              "internalType": "uint256",
              "name": "virtus",
              "type": "uint256"
            }
          ],
          "internalType": "struct ServiciosAcreditacion.Acreditacion",
          "name": "acreditacion",
          "type": "tuple"
        }
      ],
      "payable": false,
      "stateMutability": "view",
      "type": "function"
    },
    {
      "constant": true,
      "inputs": [],
      "name": "getAcreditaciones",
      "outputs": [
        {
          "components": [
            {
              "internalType": "string",
              "name": "titulo",
              "type": "string"
            },
            {
              "internalType": "uint256",
              "name": "idAcreditacion",
              "type": "uint256"
            },
            {
              "internalType": "uint256",
              "name": "idAcreditador",
              "type": "uint256"
            },
            {
              "internalType": "string",
              "name": "conocimiento",
              "type": "string"
            },
            {
              "internalType": "string",
              "name": "tipoMedio",
              "type": "string"
            },
            {
              "internalType": "string[]",
              "name": "contenidos",
              "type": "string[]"
            },
            {
              "internalType": "string",
              "name": "descripcion",
              "type": "string"
            },
            {
              "internalType": "uint256",
              "name": "ignos",
              "type": "uint256"
            },
            {
              "internalType": "uint256",
              "name": "virtus",
              "type": "uint256"
            }
          ],
          "internalType": "struct ServiciosAcreditacion.Acreditacion[]",
          "name": "acreditacion",
          "type": "tuple[]"
        }
      ],
      "payable": false,
      "stateMutability": "view",
      "type": "function"
    },
    {
      "constant": false,
      "inputs": [
        {
          "components": [
            {
              "internalType": "uint256",
              "name": "idAcreditacion",
              "type": "uint256"
            },
            {
              "internalType": "uint256",
              "name": "idAspirante",
              "type": "uint256"
            },
            {
              "internalType": "string",
              "name": "estado",
              "type": "string"
            },
            {
              "internalType": "string",
              "name": "resultado",
              "type": "string"
            },
            {
              "internalType": "string",
              "name": "descripcionResultado",
              "type": "string"
            }
          ],
          "internalType": "struct ServiciosAcreditacion.AspiranteAcreditacion",
          "name": "_acreditacionAspirante",
          "type": "tuple"
        }
      ],
      "name": "agregarAspiranteAcreditacion",
      "outputs": [],
      "payable": false,
      "stateMutability": "nonpayable",
      "type": "function"
    },
    {
      "constant": true,
      "inputs": [
        {
          "internalType": "uint256",
          "name": "idUsuario",
          "type": "uint256"
        },
        {
          "internalType": "uint256",
          "name": "idAcreditacion",
          "type": "uint256"
        }
      ],
      "name": "getAspiranteAcreditacion",
      "outputs": [
        {
          "components": [
            {
              "internalType": "uint256",
              "name": "idAcreditacion",
              "type": "uint256"
            },
            {
              "internalType": "uint256",
              "name": "idAspirante",
              "type": "uint256"
            },
            {
              "internalType": "string",
              "name": "estado",
              "type": "string"
            },
            {
              "internalType": "string",
              "name": "resultado",
              "type": "string"
            },
            {
              "internalType": "string",
              "name": "descripcionResultado",
              "type": "string"
            }
          ],
          "internalType": "struct ServiciosAcreditacion.AspiranteAcreditacion",
          "name": "acreditacionAspirante",
          "type": "tuple"
        }
      ],
      "payable": false,
      "stateMutability": "view",
      "type": "function"
    },
    {
      "constant": true,
      "inputs": [],
      "name": "getAspirantes",
      "outputs": [
        {
          "components": [
            {
              "internalType": "uint256",
              "name": "idAcreditacion",
              "type": "uint256"
            },
            {
              "internalType": "uint256",
              "name": "idAspirante",
              "type": "uint256"
            },
            {
              "internalType": "string",
              "name": "estado",
              "type": "string"
            },
            {
              "internalType": "string",
              "name": "resultado",
              "type": "string"
            },
            {
              "internalType": "string",
              "name": "descripcionResultado",
              "type": "string"
            }
          ],
          "internalType": "struct ServiciosAcreditacion.AspiranteAcreditacion[]",
          "name": "acreditacionAspirante",
          "type": "tuple[]"
        }
      ],
      "payable": false,
      "stateMutability": "view",
      "type": "function"
    },
    {
      "constant": true,
      "inputs": [
        {
          "internalType": "uint256",
          "name": "idAcreditacion",
          "type": "uint256"
        }
      ],
      "name": "getAspirantesPorAcreditacion",
      "outputs": [
        {
          "components": [
            {
              "internalType": "uint256",
              "name": "idAcreditacion",
              "type": "uint256"
            },
            {
              "internalType": "uint256",
              "name": "idAspirante",
              "type": "uint256"
            },
            {
              "internalType": "string",
              "name": "estado",
              "type": "string"
            },
            {
              "internalType": "string",
              "name": "resultado",
              "type": "string"
            },
            {
              "internalType": "string",
              "name": "descripcionResultado",
              "type": "string"
            }
          ],
          "internalType": "struct ServiciosAcreditacion.AspiranteAcreditacion[]",
          "name": "acreditacionAspirante",
          "type": "tuple[]"
        }
      ],
      "payable": false,
      "stateMutability": "view",
      "type": "function"
    }
  ],
  "bytecode": "0x60806040523480156200001157600080fd5b506200001c6200085a565b6040518060400160405280600b81526020017f4a617661204261736963730000000000000000000000000000000000000000008152508160000181905250600181602001818152505063123237688160400181815250506040518060400160405280601b81526020017f4369656e63696173206465206c6120436f6d707574616369c3b36e000000000081525081606001819052506040518060400160405280600581526020017f437572736f0000000000000000000000000000000000000000000000000000008152508160800181905250606060046040519080825280602002602001820160405280156200012857816020015b6060815260200190600190039081620001125790505b50905060405180606001604052806030815260200162002b0b60309139816000815181106200015357fe5b602002602001018190525060405180606001604052806034815260200162002b3b60349139816001815181106200018657fe5b602002602001018190525060405180606001604052806023815260200162002ae86023913981600281518110620001b957fe5b60200260200101819052506040518060400160405280601f81526020017f44617461205374727563747572657320616e6420506572666f726d616e636500815250816003815181106200020857fe5b6020026020010181905250808260a00181905250604051806102c00160405280610290815260200162002e5b61029091398260c0018190525060058260e001818152505060058260e0018181525050620002616200085a565b6040518060400160405280601a81526020017f496e74726f6475636369c3b36e20612046696c6f736f66c3ad610000000000008152508160000181905250600281602001818152505063123237688160400181815250506040518060600160405280602d815260200162002abb602d913981606001819052506040518060400160405280600581526020017f437572736f0000000000000000000000000000000000000000000000000000008152508160800181905250606060066040519080825280602002602001820160405280156200035157816020015b60608152602001906001900390816200033b5790505b5090506040518060400160405280601881526020017fc2bf5175c3a9206573206c612066696c6f736f66c3ad613f0000000000000000815250816000815181106200039857fe5b602002602001018190525060405180606001604052806029815260200162002bca6029913981600181518110620003cb57fe5b60200260200101819052506040518060600160405280602c815260200162002bf3602c913981600281518110620003fe57fe5b602002602001018190525060405180606001604052806030815260200162002b6f60309139816003815181106200043157fe5b60200260200101819052506040518060400160405280601f81526020017f4d656e7465732c206365726562726f73207920636f6d70757461646f72617300815250816004815181106200048057fe5b60200260200101819052506040518060600160405280602b815260200162002b9f602b913981600581518110620004b357fe5b6020026020010181905250808260a00181905250604051806102400160405280610209815260200162002c5261020991398260c0018190525060058260e001818152505060058260e00181815250506000849080600181540180825580915050906001820390600052602060002090600902016000909192909190915060008201518160000190805190602001906200054e929190620008a6565b506020820151816001015560408201518160020155606082015181600301908051906020019062000581929190620008a6565b506080820151816004019080519060200190620005a0929190620008a6565b5060a0820151816005019080519060200190620005bf9291906200092d565b5060c0820151816006019080519060200190620005de929190620008a6565b5060e08201518160070155610100820151816008015550505060008290806001815401808255809150509060018203906000526020600020906009020160009091929091909150600082015181600001908051906020019062000643929190620008a6565b506020820151816001015560408201518160020155606082015181600301908051906020019062000676929190620008a6565b50608082015181600401908051906020019062000695929190620008a6565b5060a0820151816005019080519060200190620006b49291906200092d565b5060c0820151816006019080519060200190620006d3929190620008a6565b5060e082015181600701556101008201518160080155505050620006f662000994565b600181600001818152505063120383be8160200181815250506040518060400160405280600a81526020017f46696e616c697a61646f0000000000000000000000000000000000000000000081525081604001819052506040518060400160405280600c81526020017f39363a204170726f6261646f0000000000000000000000000000000000000000815250816060018190525060405180606001604052806033815260200162002c1f60339139816080018190525060018190806001815401808255809150509060018203906000526020600020906005020160009091929091909150600082015181600001556020820151816001015560408201518160020190805190602001906200080d929190620008a6565b5060608201518160030190805190602001906200082c929190620008a6565b5060808201518160040190805190602001906200084b929190620008a6565b50505050505050505062000a68565b6040518061012001604052806060815260200160008152602001600081526020016060815260200160608152602001606081526020016060815260200160008152602001600081525090565b828054600181600116156101000203166002900490600052602060002090601f016020900481019282601f10620008e957805160ff19168380011785556200091a565b828001600101855582156200091a579182015b8281111562000919578251825591602001919060010190620008fc565b5b509050620009299190620009c3565b5090565b82805482825590600052602060002090810192821562000981579160200282015b82811115620009805782518290805190602001906200096f929190620008a6565b50916020019190600101906200094e565b5b509050620009909190620009eb565b5090565b6040518060a0016040528060008152602001600081526020016060815260200160608152602001606081525090565b620009e891905b80821115620009e4576000816000905550600101620009ca565b5090565b90565b62000a1991905b8082111562000a15576000818162000a0b919062000a1c565b50600101620009f2565b5090565b90565b50805460018160011615610100020316600290046000825580601f1062000a44575062000a65565b601f01602090049060005260206000209081019062000a649190620009c3565b5b50565b6120438062000a786000396000f3fe608060405234801561001057600080fd5b506004361061007d5760003560e01c8063aa2da1771161005b578063aa2da177146100ee578063bc7af1c61461011e578063fc678fe41461014e578063fd5bbb991461016a5761007d565b806330f467e5146100825780633b1a66f8146100a05780639d97ef0c146100be575b600080fd5b61008a610186565b6040516100979190611dde565b60405180910390f35b6100a86103df565b6040516100b59190611dbc565b60405180910390f35b6100d860048036036100d391908101906118aa565b6107d8565b6040516100e59190611dde565b60405180910390f35b610108600480360361010391908101906118aa565b610ab3565b6040516101159190611e00565b60405180910390f35b610138600480360361013391908101906118d3565b610ed0565b6040516101459190611e22565b60405180910390f35b61016860048036036101639190810190611828565b611177565b005b610184600480360361017f9190810190611869565b611265565b005b60606001805480602002602001604051908101604052809291908181526020016000905b828210156103d657838290600052602060002090600502016040518060a00160405290816000820154815260200160018201548152602001600282018054600181600116156101000203166002900480601f01602080910402602001604051908101604052809291908181526020018280546001816001161561010002031660029004801561027a5780601f1061024f5761010080835404028352916020019161027a565b820191906000526020600020905b81548152906001019060200180831161025d57829003601f168201915b50505050508152602001600382018054600181600116156101000203166002900480601f01602080910402602001604051908101604052809291908181526020018280546001816001161561010002031660029004801561031c5780601f106102f15761010080835404028352916020019161031c565b820191906000526020600020905b8154815290600101906020018083116102ff57829003601f168201915b50505050508152602001600482018054600181600116156101000203166002900480601f0160208091040260200160405190810160405280929190818152602001828054600181600116156101000203166002900480156103be5780601f10610393576101008083540402835291602001916103be565b820191906000526020600020905b8154815290600101906020018083116103a157829003601f168201915b505050505081525050815260200190600101906101aa565b50505050905090565b60606000805480602002602001604051908101604052809291908181526020016000905b828210156107cf578382906000526020600020906009020160405180610120016040529081600082018054600181600116156101000203166002900480601f0160208091040260200160405190810160405280929190818152602001828054600181600116156101000203166002900480156104c05780601f10610495576101008083540402835291602001916104c0565b820191906000526020600020905b8154815290600101906020018083116104a357829003601f168201915b505050505081526020016001820154815260200160028201548152602001600382018054600181600116156101000203166002900480601f0160208091040260200160405190810160405280929190818152602001828054600181600116156101000203166002900480156105765780601f1061054b57610100808354040283529160200191610576565b820191906000526020600020905b81548152906001019060200180831161055957829003601f168201915b50505050508152602001600482018054600181600116156101000203166002900480601f0160208091040260200160405190810160405280929190818152602001828054600181600116156101000203166002900480156106185780601f106105ed57610100808354040283529160200191610618565b820191906000526020600020905b8154815290600101906020018083116105fb57829003601f168201915b5050505050815260200160058201805480602002602001604051908101604052809291908181526020016000905b82821015610702578382906000526020600020018054600181600116156101000203166002900480601f0160208091040260200160405190810160405280929190818152602001828054600181600116156101000203166002900480156106ee5780601f106106c3576101008083540402835291602001916106ee565b820191906000526020600020905b8154815290600101906020018083116106d157829003601f168201915b505050505081526020019060010190610646565b505050508152602001600682018054600181600116156101000203166002900480601f0160208091040260200160405190810160405280929190818152602001828054600181600116156101000203166002900480156107a35780601f10610778576101008083540402835291602001916107a3565b820191906000526020600020905b81548152906001019060200180831161078657829003601f168201915b505050505081526020016007820154815260200160088201548152505081526020019060010190610403565b50505050905090565b60608060018054905060405190808252806020026020018201604052801561081a57816020015b610807611304565b8152602001906001900390816107ff5790505b509050600080905060008090505b600180549050811015610aa857846001828154811061084357fe5b9060005260206000209060050201600001541415610a9b576001818154811061086857fe5b90600052602060002090600502016040518060a00160405290816000820154815260200160018201548152602001600282018054600181600116156101000203166002900480601f01602080910402602001604051908101604052809291908181526020018280546001816001161561010002031660029004801561092e5780601f106109035761010080835404028352916020019161092e565b820191906000526020600020905b81548152906001019060200180831161091157829003601f168201915b50505050508152602001600382018054600181600116156101000203166002900480601f0160208091040260200160405190810160405280929190818152602001828054600181600116156101000203166002900480156109d05780601f106109a5576101008083540402835291602001916109d0565b820191906000526020600020905b8154815290600101906020018083116109b357829003601f168201915b50505050508152602001600482018054600181600116156101000203166002900480601f016020809104026020016040519081016040528092919081815260200182805460018160011615610100020316600290048015610a725780601f10610a4757610100808354040283529160200191610a72565b820191906000526020600020905b815481529060010190602001808311610a5557829003601f168201915b505050505081525050838381518110610a8757fe5b602002602001018190525081806001019250505b8080600101915050610828565b508192505050919050565b610abb611333565b60008090505b600080549050811015610ec9578260008281548110610adc57fe5b9060005260206000209060090201600101541415610ebc5760008181548110610b0157fe5b906000526020600020906009020160405180610120016040529081600082018054600181600116156101000203166002900480601f016020809104026020016040519081016040528092919081815260200182805460018160011615610100020316600290048015610bb45780601f10610b8957610100808354040283529160200191610bb4565b820191906000526020600020905b815481529060010190602001808311610b9757829003601f168201915b505050505081526020016001820154815260200160028201548152602001600382018054600181600116156101000203166002900480601f016020809104026020016040519081016040528092919081815260200182805460018160011615610100020316600290048015610c6a5780601f10610c3f57610100808354040283529160200191610c6a565b820191906000526020600020905b815481529060010190602001808311610c4d57829003601f168201915b50505050508152602001600482018054600181600116156101000203166002900480601f016020809104026020016040519081016040528092919081815260200182805460018160011615610100020316600290048015610d0c5780601f10610ce157610100808354040283529160200191610d0c565b820191906000526020600020905b815481529060010190602001808311610cef57829003601f168201915b5050505050815260200160058201805480602002602001604051908101604052809291908181526020016000905b82821015610df6578382906000526020600020018054600181600116156101000203166002900480601f016020809104026020016040519081016040528092919081815260200182805460018160011615610100020316600290048015610de25780601f10610db757610100808354040283529160200191610de2565b820191906000526020600020905b815481529060010190602001808311610dc557829003601f168201915b505050505081526020019060010190610d3a565b505050508152602001600682018054600181600116156101000203166002900480601f016020809104026020016040519081016040528092919081815260200182805460018160011615610100020316600290048015610e975780601f10610e6c57610100808354040283529160200191610e97565b820191906000526020600020905b815481529060010190602001808311610e7a57829003601f168201915b5050505050815260200160078201548152602001600882015481525050915050610ecb565b8080600101915050610ac1565b505b919050565b610ed861137f565b60008090505b60018054905081101561116f578260018281548110610ef957fe5b906000526020600020906005020160000154148015610f3557508360018281548110610f2157fe5b906000526020600020906005020160010154145b156111625760018181548110610f4757fe5b90600052602060002090600502016040518060a00160405290816000820154815260200160018201548152602001600282018054600181600116156101000203166002900480601f01602080910402602001604051908101604052809291908181526020018280546001816001161561010002031660029004801561100d5780601f10610fe25761010080835404028352916020019161100d565b820191906000526020600020905b815481529060010190602001808311610ff057829003601f168201915b50505050508152602001600382018054600181600116156101000203166002900480601f0160208091040260200160405190810160405280929190818152602001828054600181600116156101000203166002900480156110af5780601f10611084576101008083540402835291602001916110af565b820191906000526020600020905b81548152906001019060200180831161109257829003601f168201915b50505050508152602001600482018054600181600116156101000203166002900480601f0160208091040260200160405190810160405280929190818152602001828054600181600116156101000203166002900480156111515780601f1061112657610100808354040283529160200191611151565b820191906000526020600020905b81548152906001019060200180831161113457829003601f168201915b505050505081525050915050611171565b8080600101915050610ede565b505b92915050565b6000819080600181540180825580915050906001820390600052602060002090600902016000909192909190915060008201518160000190805190602001906111c19291906113ae565b50602082015181600101556040820151816002015560608201518160030190805190602001906111f29291906113ae565b50608082015181600401908051906020019061120f9291906113ae565b5060a082015181600501908051906020019061122c92919061142e565b5060c08201518160060190805190602001906112499291906113ae565b5060e08201518160070155610100820151816008015550505050565b60018190806001815401808255809150509060018203906000526020600020906005020160009091929091909150600082015181600001556020820151816001015560408201518160020190805190602001906112c39291906113ae565b5060608201518160030190805190602001906112e09291906113ae565b5060808201518160040190805190602001906112fd9291906113ae565b5050505050565b6040518060a0016040528060008152602001600081526020016060815260200160608152602001606081525090565b6040518061012001604052806060815260200160008152602001600081526020016060815260200160608152602001606081526020016060815260200160008152602001600081525090565b6040518060a0016040528060008152602001600081526020016060815260200160608152602001606081525090565b828054600181600116156101000203166002900490600052602060002090601f016020900481019282601f106113ef57805160ff191683800117855561141d565b8280016001018555821561141d579182015b8281111561141c578251825591602001919060010190611401565b5b50905061142a919061148e565b5090565b82805482825590600052602060002090810192821561147d579160200282015b8281111561147c57825182908051906020019061146c9291906113ae565b509160200191906001019061144e565b5b50905061148a91906114b3565b5090565b6114b091905b808211156114ac576000816000905550600101611494565b5090565b90565b6114dc91905b808211156114d857600081816114cf91906114df565b506001016114b9565b5090565b90565b50805460018160011615610100020316600290046000825580601f106115055750611524565b601f016020900490600052602060002090810190611523919061148e565b5b50565b600082601f83011261153857600080fd5b813561154b61154682611e71565b611e44565b9150818183526020840193506020810190508360005b838110156115915781358601611577888261159b565b845260208401935060208301925050600181019050611561565b5050505092915050565b600082601f8301126115ac57600080fd5b81356115bf6115ba82611e99565b611e44565b915080825260208301602083018583830111156115db57600080fd5b6115e6838284611f96565b50505092915050565b6000610120828403121561160257600080fd5b61160d610120611e44565b9050600082013567ffffffffffffffff81111561162957600080fd5b6116358482850161159b565b600083015250602061164984828501611813565b602083015250604061165d84828501611813565b604083015250606082013567ffffffffffffffff81111561167d57600080fd5b6116898482850161159b565b606083015250608082013567ffffffffffffffff8111156116a957600080fd5b6116b58482850161159b565b60808301525060a082013567ffffffffffffffff8111156116d557600080fd5b6116e184828501611527565b60a08301525060c082013567ffffffffffffffff81111561170157600080fd5b61170d8482850161159b565b60c08301525060e061172184828501611813565b60e08301525061010061173684828501611813565b6101008301525092915050565b600060a0828403121561175557600080fd5b61175f60a0611e44565b9050600061176f84828501611813565b600083015250602061178384828501611813565b602083015250604082013567ffffffffffffffff8111156117a357600080fd5b6117af8482850161159b565b604083015250606082013567ffffffffffffffff8111156117cf57600080fd5b6117db8482850161159b565b606083015250608082013567ffffffffffffffff8111156117fb57600080fd5b6118078482850161159b565b60808301525092915050565b60008135905061182281611fe9565b92915050565b60006020828403121561183a57600080fd5b600082013567ffffffffffffffff81111561185457600080fd5b611860848285016115ef565b91505092915050565b60006020828403121561187b57600080fd5b600082013567ffffffffffffffff81111561189557600080fd5b6118a184828501611743565b91505092915050565b6000602082840312156118bc57600080fd5b60006118ca84828501611813565b91505092915050565b600080604083850312156118e657600080fd5b60006118f485828601611813565b925050602061190585828601611813565b9150509250929050565b600061191b8383611aaa565b905092915050565b600061192f8383611bc4565b905092915050565b60006119438383611d29565b905092915050565b600061195682611ef5565b6119608185611f48565b93508360208202850161197285611ec5565b8060005b858110156119ae578484038952815161198f858261190f565b945061199a83611f21565b925060208a01995050600181019050611976565b50829750879550505050505092915050565b60006119cb82611f00565b6119d58185611f59565b9350836020820285016119e785611ed5565b8060005b85811015611a235784840389528151611a048582611923565b9450611a0f83611f2e565b925060208a019950506001810190506119eb565b50829750879550505050505092915050565b6000611a4082611f0b565b611a4a8185611f6a565b935083602082028501611a5c85611ee5565b8060005b85811015611a985784840389528151611a798582611937565b9450611a8483611f3b565b925060208a01995050600181019050611a60565b50829750879550505050505092915050565b6000611ab582611f16565b611abf8185611f7b565b9350611acf818560208601611fa5565b611ad881611fd8565b840191505092915050565b6000610120830160008301518482036000860152611b018282611aaa565b9150506020830151611b166020860182611dad565b506040830151611b296040860182611dad565b5060608301518482036060860152611b418282611aaa565b91505060808301518482036080860152611b5b8282611aaa565b91505060a083015184820360a0860152611b75828261194b565b91505060c083015184820360c0860152611b8f8282611aaa565b91505060e0830151611ba460e0860182611dad565b50610100830151611bb9610100860182611dad565b508091505092915050565b6000610120830160008301518482036000860152611be28282611aaa565b9150506020830151611bf76020860182611dad565b506040830151611c0a6040860182611dad565b5060608301518482036060860152611c228282611aaa565b91505060808301518482036080860152611c3c8282611aaa565b91505060a083015184820360a0860152611c56828261194b565b91505060c083015184820360c0860152611c708282611aaa565b91505060e0830151611c8560e0860182611dad565b50610100830151611c9a610100860182611dad565b508091505092915050565b600060a083016000830151611cbd6000860182611dad565b506020830151611cd06020860182611dad565b5060408301518482036040860152611ce88282611aaa565b91505060608301518482036060860152611d028282611aaa565b91505060808301518482036080860152611d1c8282611aaa565b9150508091505092915050565b600060a083016000830151611d416000860182611dad565b506020830151611d546020860182611dad565b5060408301518482036040860152611d6c8282611aaa565b91505060608301518482036060860152611d868282611aaa565b91505060808301518482036080860152611da08282611aaa565b9150508091505092915050565b611db681611f8c565b82525050565b60006020820190508181036000830152611dd681846119c0565b905092915050565b60006020820190508181036000830152611df88184611a35565b905092915050565b60006020820190508181036000830152611e1a8184611ae3565b905092915050565b60006020820190508181036000830152611e3c8184611ca5565b905092915050565b6000604051905081810181811067ffffffffffffffff82111715611e6757600080fd5b8060405250919050565b600067ffffffffffffffff821115611e8857600080fd5b602082029050602081019050919050565b600067ffffffffffffffff821115611eb057600080fd5b601f19601f8301169050602081019050919050565b6000819050602082019050919050565b6000819050602082019050919050565b6000819050602082019050919050565b600081519050919050565b600081519050919050565b600081519050919050565b600081519050919050565b6000602082019050919050565b6000602082019050919050565b6000602082019050919050565b600082825260208201905092915050565b600082825260208201905092915050565b600082825260208201905092915050565b600082825260208201905092915050565b6000819050919050565b82818337600083830152505050565b60005b83811015611fc3578082015181840152602081019050611fa8565b83811115611fd2576000848401525b50505050565b6000601f19601f8301169050919050565b611ff281611f8c565b8114611ffd57600080fd5b5056fea365627a7a72315820d071e61769a7261ddad72fcfb852fbd55b5c463dc43c8c3e73bf1236e6d63f836c6578706572696d656e74616cf564736f6c634300051000404369656e6369617320536f6369616c657320792048756d616e61733a2046696c6f736f66c3ad613a20505554414f626a656374204f7269656e7465642050726f6772616d6d696e6720696e204a6176614a6176612050726f6772616d6d696e673a20536f6c76696e672050726f626c656d73207769746820536f6674776172654a6176612050726f6772616d6d696e673a204172726179732c204c697374732c20616e6420537472756374757265642044617461c2bf54656e656d6f7320616c67756e61206f626c6967616369c3b36e206465206f62656365646572206c61206c65793fc2bf4c61732074656f72c3ad6173206369656e74c3ad666963617320736f6e20766572646164657261733f4d6f72616c696461643a204f626a65746976612c2072656c6174697661206f20656d6f63696f6e616cc2bf5175c3a920657320656c20636f6e6f63696d69656e746f3f20c2bf54656e656d6f7320616c67756e6f3f456c20637572736f20667565206170726f6261646f20636f6e206d7579206275656e61732063616c696669636163696f6e65734573746520637572736f206c652070726573656e746172c3a120616c67756e6173206465206c6173207072696e636970616c657320c3a17265617320646520696e766573746967616369c3b36e20656e2066696c6f736f66c3ad6120636f6e74656d706f72c3a16e65612e20456e2063616461206dc3b364756c6f2c20756e2066696cc3b3736f666f206469666572656e7465206c6f206775696172c3a120612074726176c3a97320646520616c67756e6173206465206c61732070726567756e7461732079206375657374696f6e6573206dc3a17320696d706f7274616e74657320656e20737520c3a172656120646520657370656369616c697a616369c3b36e2e20436f6d656e7a6172656d6f732074726174616e646f20646520656e74656e646572207175c3a9206573206c612066696c6f736f66c3ad612c206375c3a16c657320736f6e20737573206f626a657469766f732079206dc3a9746f646f73206361726163746572c3ad737469636f732c207920656e207175c3a9207365206469666572656e636961206465206f74726f732074656d61732e204c7565676f2c207061736172656d6f7320656c20726573746f2064656c20637572736f206f6274656e69656e646f20756e612076697369c3b36e2067656e6572616c20696e74726f647563746f7269612064652076617269617320c3a172656173206469666572656e7465732e4573746120657370656369616c697a616369c3b36e20657374c3a12064657374696e61646120612066757475726f73206465736172726f6c6c61646f72657320646520736f66747761726520636f6e2063696572746120657870657269656e63696120656e2070726f6772616d616369c3b36e20656e20616c206d656e6f73206f74726f206c656e6775616a652064652070726f6772616d616369c3b36e2028706f7220656a656d706c6f2c20507974686f6e2c20432c204a6176615363726970742c206574632e29207175652064657365656e20706f646572207265736f6c7665722070726f626c656d6173206dc3a17320636f6d706c656a6f73207574696c697a616e646f206120756e2064697365c3b16f206f7269656e7461646f2061206f626a65746f7320636f6e204a6176612e204164656dc3a17320646520617072656e646572204a6176612c206f6274656e6472c3a120657870657269656e63696120636f6e20646f7320656e746f726e6f73206465206465736172726f6c6c6f204a6176612028426c75654a20792045636c69707365292c20617072656e646572c3a120612070726f6772616d617220636f6e20696e7465726661636573206772c3a16669636173206465207573756172696f207920617072656e646572c3a120612064697365c3b161722070726f6772616d61732063617061636573206465206d616e656a6172206772616e6465732063616e74696461646573206465206461746f732e20457374617320686162696c69646164657320646520696e67656e696572c3ad6120646520736f66747761726520736f6e20616d706c69616d656e74652061706c696361626c657320656e20756e6120616d706c69612067616d6120646520696e64757374726961732e",
  "source": "pragma solidity >=0.4.21 <0.7.0;\r\npragma experimental ABIEncoderV2;\r\n\r\ncontract ServiciosUsuario {\r\n    Usuario[] usuarios;\r\n    mapping(uint256 => uint256) usuariosMap;\r\n\r\n    struct Usuario {\r\n        string first_name;\r\n        string last_name;\r\n        string password;\r\n        string email;\r\n        uint256 telefono;\r\n        string[] redes;\r\n        uint256 cedula;\r\n    }\r\n\r\n    constructor() public {\r\n        Usuario memory usuario_;\r\n\r\n        usuario_.first_name = \"Felipe Pacheco\";\r\n        usuario_.last_name = \"Pacheco Cerdas\";\r\n        usuario_.password = \"felpudo\";\r\n        usuario_.email = \"felipepace09@gmail.com\";\r\n        usuario_.telefono = 85858585;\r\n        string[] memory rrss = new string[](2);\r\n        rrss[0] = \"Facebook: felipepace09\";\r\n        rrss[1] = \"Instragram: felipe09\";\r\n        usuario_.redes = rrss;\r\n        usuario_.cedula = 305280872;\r\n\r\n        usuariosMap[usuario_.cedula] = usuarios.length;\r\n        usuarios.push(usuario_);\r\n    }\r\n\r\n    function agregarUsuario(Usuario memory _usuario)\r\n        public\r\n        returns (string memory)\r\n    {\r\n        if (usuariosMap[_usuario.cedula] == 0) {\r\n            usuariosMap[_usuario.cedula] = usuarios.length;\r\n            usuarios.push(_usuario);\r\n            return \"S\";\r\n        } else {\r\n            return \"F\";\r\n        }\r\n    }\r\n\r\n    function getUsuario(uint256 cedula)\r\n        public\r\n        view\r\n        returns (Usuario memory usuario)\r\n    {\r\n        return usuarios[usuariosMap[cedula]];\r\n    }\r\n\r\n    function getUsuarios() public view returns (Usuario[] memory usuario) {\r\n        return usuarios;\r\n    }\r\n}\r\n\r\ncontract ServiciosAcreditacion {\r\n    Acreditacion[] acreditaciones;\r\n\r\n    AspiranteAcreditacion[] aspirantes;\r\n\r\n    struct AspiranteAcreditacion {\r\n        uint256 idAcreditacion;\r\n        uint256 idAspirante;\r\n        string estado;\r\n        string resultado;\r\n        string descripcionResultado;\r\n    }\r\n\r\n    struct Acreditacion {\r\n        string titulo;\r\n        uint256 idAcreditacion;\r\n        uint256 idAcreditador;\r\n        string conocimiento;\r\n        string tipoMedio;\r\n        string[] contenidos;\r\n        string descripcion;\r\n        uint256 ignos;\r\n        uint256 virtus;\r\n    }\r\n\r\n    constructor() public {\r\n        Acreditacion memory acreditacion_;\r\n        acreditacion_.titulo = \"Java Basics\";\r\n        acreditacion_.idAcreditacion = 1;\r\n        acreditacion_.idAcreditador = 305280872;\r\n        acreditacion_.conocimiento = \"Ciencias de la Computacin\";\r\n        acreditacion_.tipoMedio = \"Curso\";\r\n        string[] memory ct = new string[](4);\r\n        ct[0] = \"Java Programming: Solving Problems with Software\";\r\n        ct[1] = \"Java Programming: Arrays, Lists, and Structured Data\";\r\n        ct[2] = \"Object Oriented Programming in Java\";\r\n        ct[3] = \"Data Structures and Performance\";\r\n        acreditacion_.contenidos = ct;\r\n        acreditacion_\r\n            .descripcion = \"Esta especializacin est destinada a futuros desarrolladores de software con cierta experiencia en programacin en al menos otro lenguaje de programacin (por ejemplo, Python, C, JavaScript, etc.) que deseen poder resolver problemas ms complejos utilizando a un diseo orientado a objetos con Java. Adems de aprender Java, obtendr experiencia con dos entornos de desarrollo Java (BlueJ y Eclipse), aprender a programar con interfaces grficas de usuario y aprender a disear programas capaces de manejar grandes cantidades de datos. Estas habilidades de ingeniera de software son ampliamente aplicables en una amplia gama de industrias.\";\r\n        acreditacion_.ignos = 5;\r\n        acreditacion_.ignos = 5;\r\n\r\n        Acreditacion memory acreditacion_2;\r\n        acreditacion_2.titulo = \"Introduccin a Filosofa\";\r\n        acreditacion_2.idAcreditacion = 2;\r\n        acreditacion_2.idAcreditador = 305280872;\r\n        acreditacion_2\r\n            .conocimiento = \"Ciencias Sociales y Humanas: Filosofa: PUTA\";\r\n        acreditacion_2.tipoMedio = \"Curso\";\r\n        string[] memory ct2 = new string[](6);\r\n        ct2[0] = \"Qu es la filosofa?\";\r\n        ct2[1] = \"Moralidad: Objetiva, relativa o emocional\";\r\n        ct2[2] = \"Qu es el conocimiento? Tenemos alguno?\";\r\n        ct2[3] = \"Tenemos alguna obligacin de obeceder la ley?\";\r\n        ct2[4] = \"Mentes, cerebros y computadoras\";\r\n        ct2[5] = \"Las teoras cientficas son verdaderas?\";\r\n        acreditacion_2.contenidos = ct2;\r\n        acreditacion_2\r\n            .descripcion = \"Este curso le presentar algunas de las principales reas de investigacin en filosofa contempornea. En cada mdulo, un filsofo diferente lo guiar a travs de algunas de las preguntas y cuestiones ms importantes en su rea de especializacin. Comenzaremos tratando de entender qu es la filosofa, cules son sus objetivos y mtodos caractersticos, y en qu se diferencia de otros temas. Luego, pasaremos el resto del curso obteniendo una visin general introductoria de varias reas diferentes.\";\r\n        acreditacion_2.ignos = 5;\r\n        acreditacion_2.ignos = 5;\r\n\r\n        acreditaciones.push(acreditacion_);\r\n        acreditaciones.push(acreditacion_2);\r\n\r\n        AspiranteAcreditacion memory acreditacionAspirante_;\r\n        acreditacionAspirante_.idAcreditacion = 1;\r\n        acreditacionAspirante_.idAspirante = 302220222;\r\n        acreditacionAspirante_.estado = \"Finalizado\";\r\n        acreditacionAspirante_.resultado = \"96: Aprobado\";\r\n        acreditacionAspirante_\r\n            .descripcionResultado = \"El curso fue aprobado con muy buenas calificaciones\";\r\n\r\n        aspirantes.push(acreditacionAspirante_);\r\n    }\r\n\r\n    function agregarAcreditacion(Acreditacion memory _acreditacion) public {\r\n        acreditaciones.push(_acreditacion);\r\n    }\r\n\r\n    function getAcreditacion(uint256 idAcreditacion)\r\n        public\r\n        view\r\n        returns (Acreditacion memory acreditacion)\r\n    {\r\n        for (uint256 i = 0; i < acreditaciones.length; i++) {\r\n            if (acreditaciones[i].idAcreditacion == idAcreditacion) {\r\n                return acreditaciones[i];\r\n            }\r\n        }\r\n    }\r\n\r\n    function getAcreditaciones()\r\n        public\r\n        view\r\n        returns (Acreditacion[] memory acreditacion)\r\n    {\r\n        return acreditaciones;\r\n    }\r\n\r\n    /* Aspirante */\r\n\r\n    function agregarAspiranteAcreditacion(\r\n        AspiranteAcreditacion memory _acreditacionAspirante\r\n    ) public {\r\n        aspirantes.push(_acreditacionAspirante);\r\n    }\r\n\r\n    function getAspiranteAcreditacion(uint256 idUsuario, uint256 idAcreditacion)\r\n        public\r\n        view\r\n        returns (AspiranteAcreditacion memory acreditacionAspirante)\r\n    {\r\n        for (uint256 i = 0; i < aspirantes.length; i++) {\r\n            if (\r\n                aspirantes[i].idAcreditacion == idAcreditacion &&\r\n                aspirantes[i].idAspirante == idUsuario\r\n            ) return aspirantes[i];\r\n        }\r\n    }\r\n\r\n    function getAspirantes()\r\n        public\r\n        view\r\n        returns (AspiranteAcreditacion[] memory acreditacionAspirante)\r\n    {\r\n        return aspirantes;\r\n    }\r\n\r\n    function getAspirantesPorAcreditacion(uint256 idAcreditacion)\r\n        public\r\n        view\r\n        returns (AspiranteAcreditacion[] memory acreditacionAspirante)\r\n    {\r\n        AspiranteAcreditacion[] memory res = new AspiranteAcreditacion[](\r\n            aspirantes.length\r\n        );\r\n        uint256 j = 0;\r\n        for (uint256 i = 0; i < aspirantes.length; i++) {\r\n            if (aspirantes[i].idAcreditacion == idAcreditacion) {\r\n                res[j] = aspirantes[i];\r\n                j++;\r\n            }\r\n        }\r\n        return res;\r\n    }\r\n}\r\n",
  "sourcePath": "C:\\Users\\felip\\Documents\\Kraken\\KAPlatform\\contracts\\ContratosAplicacion.sol",
  "compiler": {
    "name": "solc",
    "version": "0.5.16+commit.9c3226ce.Emscripten.clang"
  },
  "schemaVersion": "3.2.0",
  "updatedAt": "2020-07-17T02:41:00.761Z",
  "networkType": "ethereum",
  "devdoc": {
    "methods": {}
  },
  "userdoc": {
    "methods": {}
  }
}