{
  "contractName": "ServiciosUsuario",
  "abi": [
    {
      "inputs": [],
      "payable": false,
      "stateMutability": "nonpayable",
      "type": "constructor"
    },
    {
      "constant": false,
      "inputs": [
        {
          "components": [
            {
              "internalType": "string",
              "name": "first_name",
              "type": "string"
            },
            {
              "internalType": "string",
              "name": "last_name",
              "type": "string"
            },
            {
              "internalType": "string",
              "name": "password",
              "type": "string"
            },
            {
              "internalType": "string",
              "name": "email",
              "type": "string"
            },
            {
              "internalType": "uint256",
              "name": "telefono",
              "type": "uint256"
            },
            {
              "internalType": "string[]",
              "name": "redes",
              "type": "string[]"
            },
            {
              "internalType": "uint256",
              "name": "cedula",
              "type": "uint256"
            }
          ],
          "internalType": "struct ServiciosUsuario.Usuario",
          "name": "_usuario",
          "type": "tuple"
        }
      ],
      "name": "agregarUsuario",
      "outputs": [
        {
          "internalType": "string",
          "name": "",
          "type": "string"
        }
      ],
      "payable": false,
      "stateMutability": "nonpayable",
      "type": "function"
    },
    {
      "constant": true,
      "inputs": [
        {
          "internalType": "uint256",
          "name": "cedula",
          "type": "uint256"
        }
      ],
      "name": "getUsuario",
      "outputs": [
        {
          "components": [
            {
              "internalType": "string",
              "name": "first_name",
              "type": "string"
            },
            {
              "internalType": "string",
              "name": "last_name",
              "type": "string"
            },
            {
              "internalType": "string",
              "name": "password",
              "type": "string"
            },
            {
              "internalType": "string",
              "name": "email",
              "type": "string"
            },
            {
              "internalType": "uint256",
              "name": "telefono",
              "type": "uint256"
            },
            {
              "internalType": "string[]",
              "name": "redes",
              "type": "string[]"
            },
            {
              "internalType": "uint256",
              "name": "cedula",
              "type": "uint256"
            }
          ],
          "internalType": "struct ServiciosUsuario.Usuario",
          "name": "usuario",
          "type": "tuple"
        }
      ],
      "payable": false,
      "stateMutability": "view",
      "type": "function"
    },
    {
      "constant": true,
      "inputs": [],
      "name": "getUsuarios",
      "outputs": [
        {
          "components": [
            {
              "internalType": "string",
              "name": "first_name",
              "type": "string"
            },
            {
              "internalType": "string",
              "name": "last_name",
              "type": "string"
            },
            {
              "internalType": "string",
              "name": "password",
              "type": "string"
            },
            {
              "internalType": "string",
              "name": "email",
              "type": "string"
            },
            {
              "internalType": "uint256",
              "name": "telefono",
              "type": "uint256"
            },
            {
              "internalType": "string[]",
              "name": "redes",
              "type": "string[]"
            },
            {
              "internalType": "uint256",
              "name": "cedula",
              "type": "uint256"
            }
          ],
          "internalType": "struct ServiciosUsuario.Usuario[]",
          "name": "usuario",
          "type": "tuple[]"
        }
      ],
      "payable": false,
      "stateMutability": "view",
      "type": "function"
    }
  ],
  "bytecode": "0x60806040523480156200001157600080fd5b506200001c62000f2a565b6200002662000f2a565b6200003062000f2a565b6200003a62000f2a565b6200004462000f2a565b6040518060400160405280600681526020017f46656c697065000000000000000000000000000000000000000000000000000081525085600001819052506040518060400160405280600e81526020017f5061636865636f2043657264617300000000000000000000000000000000000081525085602001819052506040518060400160405280600781526020017f66656c697065310000000000000000000000000000000000000000000000000081525085604001819052506040518060400160405280601681526020017f66656c69706570616365303940676d61696c2e636f6d00000000000000000000815250856060018190525063051e1919856080018181525050606060026040519080825280602002602001820160405280156200018357816020015b60608152602001906001900390816200016d5790505b5090506040518060400160405280601681526020017f46616365626f6f6b3a2066656c6970657061636530390000000000000000000081525081600081518110620001ca57fe5b60200260200101819052506040518060400160405280601481526020017f496e737472616772616d3a2066656c6970653039000000000000000000000000815250816001815181106200021957fe5b6020026020010181905250808660a0018190525063123237688660c00181815250506040518060400160405280600681526020017f4a6572656d79000000000000000000000000000000000000000000000000000081525085600001819052506040518060400160405280600e81526020017f54656e63696f204d6f72616c657300000000000000000000000000000000000081525085602001819052506040518060400160405280600781526020017f6a6572656d79310000000000000000000000000000000000000000000000000081525085604001819052506040518060400160405280601081526020017f6a64746d323340676d61696c2e636f6d00000000000000000000000000000000815250856060018190525063047ec916856080018181525050606060026040519080825280602002602001820160405280156200037a57816020015b6060815260200190600190039081620003645790505b5090506040518060400160405280601081526020017f46616365626f6f6b3a206a64746d32330000000000000000000000000000000081525081600081518110620003c157fe5b60200260200101819052506040518060400160405280601281526020017f496e737472616772616d3a206a64746d32330000000000000000000000000000815250816001815181106200041057fe5b6020026020010181905250818660a0018190525063123125a08660c00181815250506040518060400160405280600781526020017f4265726e6f6c640000000000000000000000000000000000000000000000000081525085600001819052506040518060400160405280600f81526020017f416261726361205ac3bac3b1696761000000000000000000000000000000000081525085602001819052506040518060400160405280600881526020017f6265726e6f6c643100000000000000000000000000000000000000000000000081525085604001819052506040518060400160405280600d81526020017f6265726e6f6c64617a2e636f6d00000000000000000000000000000000000000815250856060018190525063042e2178856080018181525050606060026040519080825280602002602001820160405280156200057157816020015b60608152602001906001900390816200055b5790505b5090506040518060400160405280601381526020017f46616365626f6f6b3a206265726e6f6c64617a0000000000000000000000000081525081600081518110620005b857fe5b60200260200101819052506040518060400160405280601581526020017f496e737472616772616d3a206265726e6f6c64617a0000000000000000000000815250816001815181106200060757fe5b6020026020010181905250828660a00181905250630706de658660c00181815250506040518060400160405280600781526020017f4765726172646f0000000000000000000000000000000000000000000000000081525085600001819052506040518060400160405280600681526020017f4cc3b370657a000000000000000000000000000000000000000000000000000081525085602001819052506040518060400160405280600681526020017f672e72617231000000000000000000000000000000000000000000000000000081525085604001819052506040518060400160405280600f81526020017f672e72617240676d61696c2e636f6d00000000000000000000000000000000008152508560600181905250630573dbe4856080018181525050606060026040519080825280602002602001820160405280156200076857816020015b6060815260200190600190039081620007525790505b5090506040518060400160405280600f81526020017f46616365626f6f6b3a20672e726172000000000000000000000000000000000081525081600081518110620007af57fe5b60200260200101819052506040518060400160405280601181526020017f496e737472616772616d3a20672e72617200000000000000000000000000000081525081600181518110620007fe57fe5b6020026020010181905250838660a00181905250630706de6a8660c00181815250506040518060400160405280600681526020017f41727475726f000000000000000000000000000000000000000000000000000081525085600001819052506040518060400160405280600881526020017f56c3a1737175657a00000000000000000000000000000000000000000000000081525085602001819052506040518060400160405280600781526020017f61727475726f310000000000000000000000000000000000000000000000000081525085604001819052506040518060400160405280601081526020017f61727475726f40676d61696c2e636f6d00000000000000000000000000000000815250856060018190525062ba62df856080018181525050606060026040519080825280602002602001820160405280156200095e57816020015b6060815260200190600190039081620009485790505b5090506040518060400160405280601181526020017f46616365626f6f6b3a2061727475726f3f00000000000000000000000000000081525081600081518110620009a557fe5b60200260200101819052506040518060400160405280601381526020017f496e737472616772616d3a2061727475726f3f0000000000000000000000000081525081600181518110620009f457fe5b6020026020010181905250848660a0018190525062ba62df8660c0018181525050600080549050600160008c60c0015181526020019081526020016000208190555060008a90806001815401808255809150509060018203906000526020600020906007020160009091929091909150600082015181600001908051906020019062000a8292919062000f67565b50602082015181600101908051906020019062000aa192919062000f67565b50604082015181600201908051906020019062000ac092919062000f67565b50606082015181600301908051906020019062000adf92919062000f67565b506080820151816004015560a082015181600501908051906020019062000b0892919062000fee565b5060c08201518160060155505050600080549050600160008b60c0015181526020019081526020016000208190555060008990806001815401808255809150509060018203906000526020600020906007020160009091929091909150600082015181600001908051906020019062000b8392919062000f67565b50602082015181600101908051906020019062000ba292919062000f67565b50604082015181600201908051906020019062000bc192919062000f67565b50606082015181600301908051906020019062000be092919062000f67565b506080820151816004015560a082015181600501908051906020019062000c0992919062000fee565b5060c08201518160060155505050600080549050600160008a60c0015181526020019081526020016000208190555060008890806001815401808255809150509060018203906000526020600020906007020160009091929091909150600082015181600001908051906020019062000c8492919062000f67565b50602082015181600101908051906020019062000ca392919062000f67565b50604082015181600201908051906020019062000cc292919062000f67565b50606082015181600301908051906020019062000ce192919062000f67565b506080820151816004015560a082015181600501908051906020019062000d0a92919062000fee565b5060c08201518160060155505050600080549050600160008960c0015181526020019081526020016000208190555060008790806001815401808255809150509060018203906000526020600020906007020160009091929091909150600082015181600001908051906020019062000d8592919062000f67565b50602082015181600101908051906020019062000da492919062000f67565b50604082015181600201908051906020019062000dc392919062000f67565b50606082015181600301908051906020019062000de292919062000f67565b506080820151816004015560a082015181600501908051906020019062000e0b92919062000fee565b5060c08201518160060155505050600080549050600160008860c0015181526020019081526020016000208190555060008690806001815401808255809150509060018203906000526020600020906007020160009091929091909150600082015181600001908051906020019062000e8692919062000f67565b50602082015181600101908051906020019062000ea592919062000f67565b50604082015181600201908051906020019062000ec492919062000f67565b50606082015181600301908051906020019062000ee392919062000f67565b506080820151816004015560a082015181600501908051906020019062000f0c92919062000fee565b5060c0820151816006015550505050505050505050505050620010fa565b6040518060e00160405280606081526020016060815260200160608152602001606081526020016000815260200160608152602001600081525090565b828054600181600116156101000203166002900490600052602060002090601f016020900481019282601f1062000faa57805160ff191683800117855562000fdb565b8280016001018555821562000fdb579182015b8281111562000fda57825182559160200191906001019062000fbd565b5b50905062000fea919062001055565b5090565b82805482825590600052602060002090810192821562001042579160200282015b82811115620010415782518290805190602001906200103092919062000f67565b50916020019190600101906200100f565b5b5090506200105191906200107d565b5090565b6200107a91905b80821115620010765760008160009055506001016200105c565b5090565b90565b620010ab91905b80821115620010a757600081816200109d9190620010ae565b5060010162001084565b5090565b90565b50805460018160011615610100020316600290046000825580601f10620010d65750620010f7565b601f016020900490600052602060002090810190620010f6919062001055565b5b50565b611379806200110a6000396000f3fe608060405234801561001057600080fd5b50600436106100415760003560e01c80633e0b774e1461004657806383d9861514610076578063b51cf23a14610094575b600080fd5b610060600480360361005b9190810190610dc4565b6100c4565b60405161006d9190611153565b60405180910390f35b61007e610258565b60405161008b9190611131565b60405180910390f35b6100ae60048036036100a99190810190610e05565b61063c565b6040516100bb9190611175565b60405180910390f35b60606000600160008460c00151815260200190815260200160002054141561021a57600080549050600160008460c00151815260200190815260200160002081905550600082908060018154018082558091505090600182039060005260206000209060070201600090919290919091506000820151816000019080519060200190610151929190610a09565b50602082015181600101908051906020019061016e929190610a09565b50604082015181600201908051906020019061018b929190610a09565b5060608201518160030190805190602001906101a8929190610a09565b506080820151816004015560a08201518160050190805190602001906101cf929190610a89565b5060c082015181600601555050506040518060400160405280600181526020017f53000000000000000000000000000000000000000000000000000000000000008152509050610253565b6040518060400160405280600181526020017f460000000000000000000000000000000000000000000000000000000000000081525090505b919050565b60606000805480602002602001604051908101604052809291908181526020016000905b8282101561063357838290600052602060002090600702016040518060e0016040529081600082018054600181600116156101000203166002900480601f0160208091040260200160405190810160405280929190818152602001828054600181600116156101000203166002900480156103385780601f1061030d57610100808354040283529160200191610338565b820191906000526020600020905b81548152906001019060200180831161031b57829003601f168201915b50505050508152602001600182018054600181600116156101000203166002900480601f0160208091040260200160405190810160405280929190818152602001828054600181600116156101000203166002900480156103da5780601f106103af576101008083540402835291602001916103da565b820191906000526020600020905b8154815290600101906020018083116103bd57829003601f168201915b50505050508152602001600282018054600181600116156101000203166002900480601f01602080910402602001604051908101604052809291908181526020018280546001816001161561010002031660029004801561047c5780601f106104515761010080835404028352916020019161047c565b820191906000526020600020905b81548152906001019060200180831161045f57829003601f168201915b50505050508152602001600382018054600181600116156101000203166002900480601f01602080910402602001604051908101604052809291908181526020018280546001816001161561010002031660029004801561051e5780601f106104f35761010080835404028352916020019161051e565b820191906000526020600020905b81548152906001019060200180831161050157829003601f168201915b505050505081526020016004820154815260200160058201805480602002602001604051908101604052809291908181526020016000905b82821015610612578382906000526020600020018054600181600116156101000203166002900480601f0160208091040260200160405190810160405280929190818152602001828054600181600116156101000203166002900480156105fe5780601f106105d3576101008083540402835291602001916105fe565b820191906000526020600020905b8154815290600101906020018083116105e157829003601f168201915b505050505081526020019060010190610556565b5050505081526020016006820154815250508152602001906001019061027c565b50505050905090565b610644610ae9565b600060016000848152602001908152602001600020548154811061066457fe5b90600052602060002090600702016040518060e0016040529081600082018054600181600116156101000203166002900480601f0160208091040260200160405190810160405280929190818152602001828054600181600116156101000203166002900480156107165780601f106106eb57610100808354040283529160200191610716565b820191906000526020600020905b8154815290600101906020018083116106f957829003601f168201915b50505050508152602001600182018054600181600116156101000203166002900480601f0160208091040260200160405190810160405280929190818152602001828054600181600116156101000203166002900480156107b85780601f1061078d576101008083540402835291602001916107b8565b820191906000526020600020905b81548152906001019060200180831161079b57829003601f168201915b50505050508152602001600282018054600181600116156101000203166002900480601f01602080910402602001604051908101604052809291908181526020018280546001816001161561010002031660029004801561085a5780601f1061082f5761010080835404028352916020019161085a565b820191906000526020600020905b81548152906001019060200180831161083d57829003601f168201915b50505050508152602001600382018054600181600116156101000203166002900480601f0160208091040260200160405190810160405280929190818152602001828054600181600116156101000203166002900480156108fc5780601f106108d1576101008083540402835291602001916108fc565b820191906000526020600020905b8154815290600101906020018083116108df57829003601f168201915b505050505081526020016004820154815260200160058201805480602002602001604051908101604052809291908181526020016000905b828210156109f0578382906000526020600020018054600181600116156101000203166002900480601f0160208091040260200160405190810160405280929190818152602001828054600181600116156101000203166002900480156109dc5780601f106109b1576101008083540402835291602001916109dc565b820191906000526020600020905b8154815290600101906020018083116109bf57829003601f168201915b505050505081526020019060010190610934565b5050505081526020016006820154815250509050919050565b828054600181600116156101000203166002900490600052602060002090601f016020900481019282601f10610a4a57805160ff1916838001178555610a78565b82800160010185558215610a78579182015b82811115610a77578251825591602001919060010190610a5c565b5b509050610a859190610b26565b5090565b828054828255906000526020600020908101928215610ad8579160200282015b82811115610ad7578251829080519060200190610ac7929190610a09565b5091602001919060010190610aa9565b5b509050610ae59190610b4b565b5090565b6040518060e00160405280606081526020016060815260200160608152602001606081526020016000815260200160608152602001600081525090565b610b4891905b80821115610b44576000816000905550600101610b2c565b5090565b90565b610b7491905b80821115610b705760008181610b679190610b77565b50600101610b51565b5090565b90565b50805460018160011615610100020316600290046000825580601f10610b9d5750610bbc565b601f016020900490600052602060002090810190610bbb9190610b26565b5b50565b600082601f830112610bd057600080fd5b8135610be3610bde826111c4565b611197565b9150818183526020840193506020810190508360005b83811015610c295781358601610c0f8882610c33565b845260208401935060208301925050600181019050610bf9565b5050505092915050565b600082601f830112610c4457600080fd5b8135610c57610c52826111ec565b611197565b91508082526020830160208301858383011115610c7357600080fd5b610c7e8382846112cc565b50505092915050565b600060e08284031215610c9957600080fd5b610ca360e0611197565b9050600082013567ffffffffffffffff811115610cbf57600080fd5b610ccb84828501610c33565b600083015250602082013567ffffffffffffffff811115610ceb57600080fd5b610cf784828501610c33565b602083015250604082013567ffffffffffffffff811115610d1757600080fd5b610d2384828501610c33565b604083015250606082013567ffffffffffffffff811115610d4357600080fd5b610d4f84828501610c33565b6060830152506080610d6384828501610daf565b60808301525060a082013567ffffffffffffffff811115610d8357600080fd5b610d8f84828501610bbf565b60a08301525060c0610da384828501610daf565b60c08301525092915050565b600081359050610dbe8161131f565b92915050565b600060208284031215610dd657600080fd5b600082013567ffffffffffffffff811115610df057600080fd5b610dfc84828501610c87565b91505092915050565b600060208284031215610e1757600080fd5b6000610e2584828501610daf565b91505092915050565b6000610e3a8383610f79565b905092915050565b6000610e4e838361106a565b905092915050565b6000610e6182611238565b610e6b818561127e565b935083602082028501610e7d85611218565b8060005b85811015610eb95784840389528151610e9a8582610e2e565b9450610ea583611264565b925060208a01995050600181019050610e81565b50829750879550505050505092915050565b6000610ed682611243565b610ee0818561128f565b935083602082028501610ef285611228565b8060005b85811015610f2e5784840389528151610f0f8582610e42565b9450610f1a83611271565b925060208a01995050600181019050610ef6565b50829750879550505050505092915050565b6000610f4b82611259565b610f5581856112b1565b9350610f658185602086016112db565b610f6e8161130e565b840191505092915050565b6000610f848261124e565b610f8e81856112a0565b9350610f9e8185602086016112db565b610fa78161130e565b840191505092915050565b600060e0830160008301518482036000860152610fcf8282610f79565b91505060208301518482036020860152610fe98282610f79565b915050604083015184820360408601526110038282610f79565b9150506060830151848203606086015261101d8282610f79565b91505060808301516110326080860182611122565b5060a083015184820360a086015261104a8282610e56565b91505060c083015161105f60c0860182611122565b508091505092915050565b600060e08301600083015184820360008601526110878282610f79565b915050602083015184820360208601526110a18282610f79565b915050604083015184820360408601526110bb8282610f79565b915050606083015184820360608601526110d58282610f79565b91505060808301516110ea6080860182611122565b5060a083015184820360a08601526111028282610e56565b91505060c083015161111760c0860182611122565b508091505092915050565b61112b816112c2565b82525050565b6000602082019050818103600083015261114b8184610ecb565b905092915050565b6000602082019050818103600083015261116d8184610f40565b905092915050565b6000602082019050818103600083015261118f8184610fb2565b905092915050565b6000604051905081810181811067ffffffffffffffff821117156111ba57600080fd5b8060405250919050565b600067ffffffffffffffff8211156111db57600080fd5b602082029050602081019050919050565b600067ffffffffffffffff82111561120357600080fd5b601f19601f8301169050602081019050919050565b6000819050602082019050919050565b6000819050602082019050919050565b600081519050919050565b600081519050919050565b600081519050919050565b600081519050919050565b6000602082019050919050565b6000602082019050919050565b600082825260208201905092915050565b600082825260208201905092915050565b600082825260208201905092915050565b600082825260208201905092915050565b6000819050919050565b82818337600083830152505050565b60005b838110156112f95780820151818401526020810190506112de565b83811115611308576000848401525b50505050565b6000601f19601f8301169050919050565b611328816112c2565b811461133357600080fd5b5056fea365627a7a723158208584b99056f695aeeb0dd4f40b296ee1c66f36a9611b5176c04c2ccc2fcc573e6c6578706572696d656e74616cf564736f6c63430005100040",
  "source": "pragma solidity >=0.4.21 <0.7.0;\r\npragma experimental ABIEncoderV2;\r\n\r\ncontract ServiciosUsuario {\r\n    Usuario[] usuarios;\r\n    mapping(uint256 => uint256) usuariosMap;\r\n\r\n    struct Usuario {\r\n        string first_name;\r\n        string last_name;\r\n        string password;\r\n        string email;\r\n        uint256 telefono;\r\n        string[] redes;\r\n        uint256 cedula;\r\n    }\r\n\r\n    constructor() public {\r\n        Usuario memory usuario_;\r\n        Usuario memory usuario_2;\r\n        Usuario memory usuario_3;\r\n        Usuario memory usuario_4;\r\n        Usuario memory usuario_5;\r\n\r\n        usuario_.first_name = \"Felipe\";\r\n        usuario_.last_name = \"Pacheco Cerdas\";\r\n        usuario_.password = \"felipe1\";\r\n        usuario_.email = \"felipepace09@gmail.com\";\r\n        usuario_.telefono = 85858585;\r\n        string[] memory rrss = new string[](2);\r\n        rrss[0] = \"Facebook: felipepace09\";\r\n        rrss[1] = \"Instragram: felipe09\";\r\n        usuario_.redes = rrss;\r\n        usuario_.cedula = 305280872;\r\n\r\n        usuario_2.first_name = \"Jeremy\";\r\n        usuario_2.last_name = \"Tencio Morales\";\r\n        usuario_2.password = \"jeremy1\";\r\n        usuario_2.email = \"jdtm23@gmail.com\";\r\n        usuario_2.telefono = 75417878;\r\n        string[] memory rrss2 = new string[](2);\r\n        rrss2[0] = \"Facebook: jdtm23\";\r\n        rrss2[1] = \"Instragram: jdtm23\";\r\n        usuario_2.redes = rrss;\r\n        usuario_2.cedula = 305210784;\r\n\r\n        usuario_3.first_name = \"Bernold\";\r\n        usuario_3.last_name = \"Abarca Ziga\";\r\n        usuario_3.password = \"bernold1\";\r\n        usuario_3.email = \"bernoldaz.com\";\r\n        usuario_3.telefono = 70132088;\r\n        string[] memory rrss3 = new string[](2);\r\n        rrss3[0] = \"Facebook: bernoldaz\";\r\n        rrss3[1] = \"Instragram: bernoldaz\";\r\n        usuario_3.redes = rrss;\r\n        usuario_3.cedula = 117890661;\r\n\r\n        usuario_4.first_name = \"Gerardo\";\r\n        usuario_4.last_name = \"Lpez\";\r\n        usuario_4.password = \"g.rar1\";\r\n        usuario_4.email = \"g.rar@gmail.com\";\r\n        usuario_4.telefono = 91479012;\r\n        string[] memory rrss4 = new string[](2);\r\n        rrss4[0] = \"Facebook: g.rar\";\r\n        rrss4[1] = \"Instragram: g.rar\";\r\n        usuario_4.redes = rrss;\r\n        usuario_4.cedula = 117890666;\r\n\r\n        usuario_5.first_name = \"Arturo\";\r\n        usuario_5.last_name = \"Vsquez\";\r\n        usuario_5.password = \"arturo1\";\r\n        usuario_5.email = \"arturo@gmail.com\";\r\n        usuario_5.telefono = 12215007;\r\n        string[] memory rrss5 = new string[](2);\r\n        rrss5[0] = \"Facebook: arturo?\";\r\n        rrss5[1] = \"Instragram: arturo?\";\r\n        usuario_5.redes = rrss;\r\n        usuario_5.cedula = 12215007;\r\n\r\n        usuariosMap[usuario_.cedula] = usuarios.length;\r\n        usuarios.push(usuario_);\r\n        usuariosMap[usuario_2.cedula] = usuarios.length;\r\n        usuarios.push(usuario_2);\r\n        usuariosMap[usuario_3.cedula] = usuarios.length;\r\n        usuarios.push(usuario_3);\r\n        usuariosMap[usuario_4.cedula] = usuarios.length;\r\n        usuarios.push(usuario_4);\r\n        usuariosMap[usuario_5.cedula] = usuarios.length;\r\n        usuarios.push(usuario_5);\r\n    }\r\n\r\n    function agregarUsuario(Usuario memory _usuario)\r\n        public\r\n        returns (string memory)\r\n    {\r\n        if (usuariosMap[_usuario.cedula] == 0) {\r\n            usuariosMap[_usuario.cedula] = usuarios.length;\r\n            usuarios.push(_usuario);\r\n            return \"S\";\r\n        } else {\r\n            return \"F\";\r\n        }\r\n    }\r\n\r\n    function getUsuario(uint256 cedula)\r\n        public\r\n        view\r\n        returns (Usuario memory usuario)\r\n    {\r\n        return usuarios[usuariosMap[cedula]];\r\n    }\r\n\r\n    function getUsuarios() public view returns (Usuario[] memory usuario) {\r\n        return usuarios;\r\n    }\r\n}\r\n\r\ncontract ServiciosAcreditacion {\r\n    Acreditacion[] acreditaciones;\r\n\r\n    AspiranteAcreditacion[] aspirantes;\r\n\r\n    struct AspiranteAcreditacion {\r\n        uint256 idAcreditacion;\r\n        uint256 idAspirante;\r\n        string estado;\r\n        string resultado;\r\n        string descripcionResultado;\r\n    }\r\n\r\n    struct Acreditacion {\r\n        string titulo;\r\n        uint256 idAcreditacion;\r\n        uint256 idAcreditador;\r\n        string conocimiento;\r\n        string tipoMedio;\r\n        string[] contenidos;\r\n        string descripcion;\r\n        uint256 ignos;\r\n        uint256 virtus;\r\n    }\r\n\r\n    constructor() public {\r\n        Acreditacion memory acreditacion_;\r\n        acreditacion_.titulo = \"Java Basics\";\r\n        acreditacion_.idAcreditacion = 1;\r\n        acreditacion_.idAcreditador = 305280872;\r\n        acreditacion_.conocimiento = \"Ciencias de la Computacin\";\r\n        acreditacion_.tipoMedio = \"Proyecto Programado\";\r\n        string[] memory ct = new string[](4);\r\n        ct[0] = \"Java Programming: Solving Problems with Software\";\r\n        ct[1] = \"Java Programming: Arrays, Lists, and Structured Data\";\r\n        ct[2] = \"Object Oriented Programming in Java\";\r\n        ct[3] = \"Data Structures and Performance\";\r\n        acreditacion_.contenidos = ct;\r\n        acreditacion_\r\n            .descripcion = \"Esta especializacin est destinada a futuros desarrolladores de software con cierta experiencia en programacin en al menos otro lenguaje de programacin (por ejemplo, Python, C, JavaScript, etc.) que deseen poder resolver problemas ms complejos utilizando a un diseo orientado a objetos con Java. Adems de aprender Java, obtendr experiencia con dos entornos de desarrollo Java (BlueJ y Eclipse), aprender a programar con interfaces grficas de usuario y aprender a disear programas capaces de manejar grandes cantidades de datos. Estas habilidades de ingeniera de software son ampliamente aplicables en una amplia gama de industrias.\";\r\n        acreditacion_.ignos = 5;\r\n        acreditacion_.virtus = 5;\r\n\r\n        Acreditacion memory acreditacion_2;\r\n        acreditacion_2.titulo = \"Introduccin a Filosofa\";\r\n        acreditacion_2.idAcreditacion = 2;\r\n        acreditacion_2.idAcreditador = 305210784;\r\n        acreditacion_2.conocimiento = \"Ciencias Sociales y Humanas: Filosofa\";\r\n        acreditacion_2.tipoMedio = \"Ensayo\";\r\n        string[] memory ct2 = new string[](6);\r\n        ct2[0] = \"Qu es la filosofa?\";\r\n        ct2[1] = \"Moralidad: Objetiva, relativa o emocional\";\r\n        ct2[2] = \"Qu es el conocimiento? Tenemos alguno?\";\r\n        ct2[3] = \"Tenemos alguna obligacin de obeceder la ley?\";\r\n        ct2[4] = \"Mentes, cerebros y computadoras\";\r\n        ct2[5] = \"Las teoras cientficas son verdaderas?\";\r\n        acreditacion_2.contenidos = ct2;\r\n        acreditacion_2\r\n            .descripcion = \"Este curso le presentar algunas de las principales reas de investigacin en filosofa contempornea. En cada mdulo, un filsofo diferente lo guiar a travs de algunas de las preguntas y cuestiones ms importantes en su rea de especializacin. Comenzaremos tratando de entender qu es la filosofa, cules son sus objetivos y mtodos caractersticos, y en qu se diferencia de otros temas. Luego, pasaremos el resto del curso obteniendo una visin general introductoria de varias reas diferentes.\";\r\n        acreditacion_2.ignos = 5;\r\n        acreditacion_2.virtus = 5;\r\n\r\n        Acreditacion memory acreditacion_4;\r\n        acreditacion_4.titulo = \"Introduccin a la Etnomusicologa\";\r\n        acreditacion_4.idAcreditacion = 4;\r\n        acreditacion_4.idAcreditador = 117890666;\r\n        acreditacion_4.conocimiento = \"Arte: Msica\";\r\n        acreditacion_4.tipoMedio = \"Curso\";\r\n        string[] memory ct4 = new string[](5);\r\n        ct4[0] = \"Orgenes espirituales de la msica\";\r\n        ct4[1] = \"Diversificacin instrumental a lo largo de la historia\";\r\n        ct4[2] = \"Msica de Asia y Medio Oriente\";\r\n        ct4[3] = \"Europa y la msica de los burgueses\";\r\n        ct4[4] = \"poca contempornea: El fin de los periodos musicales No?\";\r\n        acreditacion_4.contenidos = ct4;\r\n        acreditacion_4\r\n            .descripcion = \"Con frecuencia damos la msica por sentado en nuestra vida diaria. Pero al igual que la sociedad misma, la msica tuvo un origen rudimentario que junto a esta fue evolucionando y formando parte fundamental de la identidad de muchas culturas. Cada una percibiendo la msica de formas tan distintas como los instrumentos que usaban o los estilos que tocaban. En este curso pretendemos que el estudiante adquiera una apreciacin por la identidad musical de las culturas ms influyentes en la historia.\";\r\n        acreditacion_4.ignos = 5;\r\n        acreditacion_4.virtus = 5;\r\n\r\n        Acreditacion memory acreditacion_3;\r\n        acreditacion_3.titulo = \"Comunismo Chino\";\r\n        acreditacion_3.idAcreditacion = 3;\r\n        acreditacion_3.idAcreditador = 117890661;\r\n        acreditacion_3\r\n            .conocimiento = \"Ciencias Sociales y Humanas: Doctrina Poltica: Comunismo\";\r\n        acreditacion_3.tipoMedio = \"Curso y Examen\";\r\n        string[] memory ct3 = new string[](5);\r\n        ct3[0] = \"Qu es el comunismo?\";\r\n        ct3[1] = \"Influencia con Mao Tse Tung\";\r\n        ct3[2] = \"Acciones implementadas\";\r\n        ct3[3] = \"Repercusiones en la China actual\";\r\n        ct3[4] = \"Futura destruccin del sistema capitalista estadounidense\";\r\n        acreditacion_3.contenidos = ct3;\r\n        acreditacion_3\r\n            .descripcion = \"En esta acreditacin se busca confirmar que el aspirante posea los conocimientos necesarios fundamentales sobre el comunismo chino. Con el fin de que el aspirante sea capaz de comprender las acciones polticas realizadas por el gobierno chino actual realizadas en base a los resultados obtenidos durante toda la historia en la vida del comunismo chino. La persona que obtenga esta acreditacin sea capaz de apoyar y defender el comunismo chino contemporneo en su lucha con el capitalismo estadounidense.\";\r\n        acreditacion_3.ignos = 5;\r\n        acreditacion_3.virtus = 5;\r\n\r\n        Acreditacion memory acreditacion_5;\r\n        acreditacion_5.titulo = \"Ceremonia del t\";\r\n        acreditacion_5.idAcreditacion = 3;\r\n        acreditacion_5.idAcreditador = 117890661;\r\n        acreditacion_5.conocimiento = \"Arte: Ceremonias\";\r\n        acreditacion_5.tipoMedio = \"Prueba prctica\";\r\n        string[] memory ct5 = new string[](6);\r\n        ct5[0] = \"Los Principios de Chanoyu\";\r\n        ct5[1] = \"Conocimientos sobre los utencilios: Chawan, Chaire, Chasen, Chashaku, Hishaku, Chakin, Fukusa \";\r\n        ct5[2] = \"Kaiseki\";\r\n        ct5[3] = \"Naka-dachi\";\r\n        ct5[4] = \"Goza-iri\";\r\n        ct5[5] = \"Usucha\";\r\n        acreditacion_5.contenidos = ct5;\r\n        acreditacion_5\r\n            .descripcion = \"Se busca que el aspirante posea todos los conocimientos teoricos practicos acerca de los distintos elementos y procesos que son necesarios durante la elaboracin de la ceremonia del t\";\r\n        acreditacion_5.ignos = 5;\r\n        acreditacion_5.virtus = 5;\r\n\r\n        acreditaciones.push(acreditacion_);\r\n        acreditaciones.push(acreditacion_2);\r\n        acreditaciones.push(acreditacion_3);\r\n        acreditaciones.push(acreditacion_4);\r\n        acreditaciones.push(acreditacion_5);\r\n\r\n        AspiranteAcreditacion memory acreditacionAspirante_;\r\n        acreditacionAspirante_.idAcreditacion = 1;\r\n        acreditacionAspirante_.idAspirante = 12215007;\r\n        acreditacionAspirante_.estado = \"Finalizado\";\r\n        acreditacionAspirante_.resultado = \"Aprobado\";\r\n        acreditacionAspirante_\r\n            .descripcionResultado = \"El curso fue aprobado con muy buenas calificaciones, logrando la comprensin de los contenidos\";\r\n\r\n        aspirantes.push(acreditacionAspirante_);\r\n\r\n        AspiranteAcreditacion memory acreditacionAspirante_7;\r\n        acreditacionAspirante_7.idAcreditacion = 2;\r\n        acreditacionAspirante_7.idAspirante = 12215007;\r\n        acreditacionAspirante_7.estado = \"Finalizado\";\r\n        acreditacionAspirante_7.resultado = \"Aprobado\";\r\n        acreditacionAspirante_7\r\n            .descripcionResultado = \"El curso fue aprobado con muy buenas calificaciones, logrando la comprensin de los contenidos\";\r\n\r\n        aspirantes.push(acreditacionAspirante_7);\r\n\r\n        AspiranteAcreditacion memory acreditacionAspirante_8;\r\n        acreditacionAspirante_8.idAcreditacion = 3;\r\n        acreditacionAspirante_8.idAspirante = 305210784;\r\n        acreditacionAspirante_8.estado = \"Finalizado\";\r\n        acreditacionAspirante_8.resultado = \"Aprobado\";\r\n        acreditacionAspirante_8\r\n            .descripcionResultado = \"El curso fue aprobado con muy buenas calificaciones, logrando la comprensin de los contenidos\";\r\n\r\n        aspirantes.push(acreditacionAspirante_8);\r\n    }\r\n\r\n    function agregarAcreditacion(Acreditacion memory _acreditacion)\r\n        public\r\n        returns (uint256)\r\n    {\r\n        _acreditacion.idAcreditacion = acreditaciones.length;\r\n        acreditaciones.push(_acreditacion);\r\n        return _acreditacion.idAcreditacion;\r\n    }\r\n\r\n    function getAcreditacion(uint256 idAcreditacion)\r\n        public\r\n        view\r\n        returns (Acreditacion memory acreditacion)\r\n    {\r\n        for (uint256 i = 0; i < acreditaciones.length; i++) {\r\n            if (acreditaciones[i].idAcreditacion == idAcreditacion) {\r\n                return acreditaciones[i];\r\n            }\r\n        }\r\n    }\r\n\r\n    function getAcreditaciones()\r\n        public\r\n        view\r\n        returns (Acreditacion[] memory acreditacion)\r\n    {\r\n        return acreditaciones;\r\n    }\r\n\r\n    /* Aspirante */\r\n\r\n    function agregarAspiranteAcreditacion(\r\n        AspiranteAcreditacion memory _acreditacionAspirante\r\n    ) public {\r\n        aspirantes.push(_acreditacionAspirante);\r\n    }\r\n\r\n    function getAspiranteAcreditacion(uint256 idUsuario, uint256 idAcreditacion)\r\n        public\r\n        view\r\n        returns (AspiranteAcreditacion memory acreditacionAspirante)\r\n    {\r\n        for (uint256 i = 0; i < aspirantes.length; i++) {\r\n            if (\r\n                aspirantes[i].idAcreditacion == idAcreditacion &&\r\n                aspirantes[i].idAspirante == idUsuario\r\n            ) return aspirantes[i];\r\n        }\r\n    }\r\n\r\n    function getAspirantes()\r\n        public\r\n        view\r\n        returns (AspiranteAcreditacion[] memory acreditacionAspirante)\r\n    {\r\n        return aspirantes;\r\n    }\r\n\r\n    function getAspirantesPorAcreditacion(uint256 idAcreditacion)\r\n        public\r\n        view\r\n        returns (AspiranteAcreditacion[] memory acreditacionAspirante)\r\n    {\r\n        AspiranteAcreditacion[] memory res = new AspiranteAcreditacion[](\r\n            aspirantes.length\r\n        );\r\n        uint256 j = 0;\r\n        for (uint256 i = 0; i < aspirantes.length; i++) {\r\n            if (aspirantes[i].idAcreditacion == idAcreditacion) {\r\n                res[j] = aspirantes[i];\r\n                j++;\r\n            }\r\n        }\r\n        return res;\r\n    }\r\n}\r\n",
  "sourcePath": "C:\\Users\\felip\\Documents\\Kraken\\KAPlatform\\contracts\\ContratosAplicacion.sol",
  "compiler": {
    "name": "solc",
    "version": "0.5.16+commit.9c3226ce.Emscripten.clang"
  },
  "schemaVersion": "3.2.0",
  "updatedAt": "2020-07-17T06:10:16.359Z",
  "networkType": "ethereum",
  "devdoc": {
    "methods": {}
  },
  "userdoc": {
    "methods": {}
  }
}