{
  "contractName": "ServiciosAcreditacion",
  "abi": [
    {
      "inputs": [],
      "payable": false,
      "stateMutability": "nonpayable",
      "type": "constructor"
    },
    {
      "constant": false,
      "inputs": [
        {
          "components": [
            {
              "internalType": "string",
              "name": "titulo",
              "type": "string"
            },
            {
              "internalType": "uint256",
              "name": "idAcreditacion",
              "type": "uint256"
            },
            {
              "internalType": "uint256",
              "name": "idAcreditador",
              "type": "uint256"
            },
            {
              "internalType": "string",
              "name": "conocimiento",
              "type": "string"
            },
            {
              "internalType": "string",
              "name": "tipoMedio",
              "type": "string"
            },
            {
              "internalType": "string[]",
              "name": "contenidos",
              "type": "string[]"
            },
            {
              "internalType": "string",
              "name": "descripcion",
              "type": "string"
            },
            {
              "internalType": "uint256",
              "name": "ignos",
              "type": "uint256"
            },
            {
              "internalType": "uint256",
              "name": "virtus",
              "type": "uint256"
            }
          ],
          "internalType": "struct ServiciosAcreditacion.Acreditacion",
          "name": "_acreditacion",
          "type": "tuple"
        }
      ],
      "name": "agregarAcreditacion",
      "outputs": [
        {
          "internalType": "uint256",
          "name": "",
          "type": "uint256"
        }
      ],
      "payable": false,
      "stateMutability": "nonpayable",
      "type": "function"
    },
    {
      "constant": true,
      "inputs": [
        {
          "internalType": "uint256",
          "name": "idAcreditacion",
          "type": "uint256"
        }
      ],
      "name": "getAcreditacion",
      "outputs": [
        {
          "components": [
            {
              "internalType": "string",
              "name": "titulo",
              "type": "string"
            },
            {
              "internalType": "uint256",
              "name": "idAcreditacion",
              "type": "uint256"
            },
            {
              "internalType": "uint256",
              "name": "idAcreditador",
              "type": "uint256"
            },
            {
              "internalType": "string",
              "name": "conocimiento",
              "type": "string"
            },
            {
              "internalType": "string",
              "name": "tipoMedio",
              "type": "string"
            },
            {
              "internalType": "string[]",
              "name": "contenidos",
              "type": "string[]"
            },
            {
              "internalType": "string",
              "name": "descripcion",
              "type": "string"
            },
            {
              "internalType": "uint256",
              "name": "ignos",
              "type": "uint256"
            },
            {
              "internalType": "uint256",
              "name": "virtus",
              "type": "uint256"
            }
          ],
          "internalType": "struct ServiciosAcreditacion.Acreditacion",
          "name": "acreditacion",
          "type": "tuple"
        }
      ],
      "payable": false,
      "stateMutability": "view",
      "type": "function"
    },
    {
      "constant": false,
      "inputs": [
        {
          "internalType": "uint256",
          "name": "idAcreditacion",
          "type": "uint256"
        },
        {
          "internalType": "uint256",
          "name": "idAspirante",
          "type": "uint256"
        },
        {
          "internalType": "uint256",
          "name": "aceptado",
          "type": "uint256"
        }
      ],
      "name": "setAceptadoRechazado",
      "outputs": [
        {
          "components": [
            {
              "internalType": "uint256",
              "name": "idAcreditacion",
              "type": "uint256"
            },
            {
              "internalType": "uint256",
              "name": "idAspirante",
              "type": "uint256"
            },
            {
              "internalType": "string",
              "name": "estado",
              "type": "string"
            },
            {
              "internalType": "string",
              "name": "resultado",
              "type": "string"
            },
            {
              "internalType": "string",
              "name": "descripcionResultado",
              "type": "string"
            }
          ],
          "internalType": "struct ServiciosAcreditacion.AspiranteAcreditacion",
          "name": "acreditacionAspirante",
          "type": "tuple"
        }
      ],
      "payable": false,
      "stateMutability": "nonpayable",
      "type": "function"
    },
    {
      "constant": true,
      "inputs": [],
      "name": "getAcreditaciones",
      "outputs": [
        {
          "components": [
            {
              "internalType": "string",
              "name": "titulo",
              "type": "string"
            },
            {
              "internalType": "uint256",
              "name": "idAcreditacion",
              "type": "uint256"
            },
            {
              "internalType": "uint256",
              "name": "idAcreditador",
              "type": "uint256"
            },
            {
              "internalType": "string",
              "name": "conocimiento",
              "type": "string"
            },
            {
              "internalType": "string",
              "name": "tipoMedio",
              "type": "string"
            },
            {
              "internalType": "string[]",
              "name": "contenidos",
              "type": "string[]"
            },
            {
              "internalType": "string",
              "name": "descripcion",
              "type": "string"
            },
            {
              "internalType": "uint256",
              "name": "ignos",
              "type": "uint256"
            },
            {
              "internalType": "uint256",
              "name": "virtus",
              "type": "uint256"
            }
          ],
          "internalType": "struct ServiciosAcreditacion.Acreditacion[]",
          "name": "acreditacion",
          "type": "tuple[]"
        }
      ],
      "payable": false,
      "stateMutability": "view",
      "type": "function"
    },
    {
      "constant": false,
      "inputs": [
        {
          "components": [
            {
              "internalType": "uint256",
              "name": "idAcreditacion",
              "type": "uint256"
            },
            {
              "internalType": "uint256",
              "name": "idAspirante",
              "type": "uint256"
            },
            {
              "internalType": "string",
              "name": "estado",
              "type": "string"
            },
            {
              "internalType": "string",
              "name": "resultado",
              "type": "string"
            },
            {
              "internalType": "string",
              "name": "descripcionResultado",
              "type": "string"
            }
          ],
          "internalType": "struct ServiciosAcreditacion.AspiranteAcreditacion",
          "name": "_acreditacionAspirante",
          "type": "tuple"
        }
      ],
      "name": "agregarAspiranteAcreditacion",
      "outputs": [],
      "payable": false,
      "stateMutability": "nonpayable",
      "type": "function"
    },
    {
      "constant": true,
      "inputs": [
        {
          "internalType": "uint256",
          "name": "idUsuario",
          "type": "uint256"
        },
        {
          "internalType": "uint256",
          "name": "idAcreditacion",
          "type": "uint256"
        }
      ],
      "name": "getAspiranteAcreditacion",
      "outputs": [
        {
          "components": [
            {
              "internalType": "uint256",
              "name": "idAcreditacion",
              "type": "uint256"
            },
            {
              "internalType": "uint256",
              "name": "idAspirante",
              "type": "uint256"
            },
            {
              "internalType": "string",
              "name": "estado",
              "type": "string"
            },
            {
              "internalType": "string",
              "name": "resultado",
              "type": "string"
            },
            {
              "internalType": "string",
              "name": "descripcionResultado",
              "type": "string"
            }
          ],
          "internalType": "struct ServiciosAcreditacion.AspiranteAcreditacion",
          "name": "acreditacionAspirante",
          "type": "tuple"
        }
      ],
      "payable": false,
      "stateMutability": "view",
      "type": "function"
    },
    {
      "constant": true,
      "inputs": [],
      "name": "getAspirantes",
      "outputs": [
        {
          "components": [
            {
              "internalType": "uint256",
              "name": "idAcreditacion",
              "type": "uint256"
            },
            {
              "internalType": "uint256",
              "name": "idAspirante",
              "type": "uint256"
            },
            {
              "internalType": "string",
              "name": "estado",
              "type": "string"
            },
            {
              "internalType": "string",
              "name": "resultado",
              "type": "string"
            },
            {
              "internalType": "string",
              "name": "descripcionResultado",
              "type": "string"
            }
          ],
          "internalType": "struct ServiciosAcreditacion.AspiranteAcreditacion[]",
          "name": "acreditacionAspirante",
          "type": "tuple[]"
        }
      ],
      "payable": false,
      "stateMutability": "view",
      "type": "function"
    },
    {
      "constant": true,
      "inputs": [
        {
          "internalType": "uint256",
          "name": "idAcreditacion",
          "type": "uint256"
        }
      ],
      "name": "getAspirantesPorAcreditacion",
      "outputs": [
        {
          "components": [
            {
              "internalType": "uint256",
              "name": "idAcreditacion",
              "type": "uint256"
            },
            {
              "internalType": "uint256",
              "name": "idAspirante",
              "type": "uint256"
            },
            {
              "internalType": "string",
              "name": "estado",
              "type": "string"
            },
            {
              "internalType": "string",
              "name": "resultado",
              "type": "string"
            },
            {
              "internalType": "string",
              "name": "descripcionResultado",
              "type": "string"
            }
          ],
          "internalType": "struct ServiciosAcreditacion.AspiranteAcreditacion[]",
          "name": "acreditacionAspirante",
          "type": "tuple[]"
        }
      ],
      "payable": false,
      "stateMutability": "view",
      "type": "function"
    }
  ],
  "bytecode": "0x60806040523480156200001157600080fd5b506200001c6200162e565b6040518060400160405280600b81526020017f4a617661204261736963730000000000000000000000000000000000000000008152508160000181905250600181602001818152505063123237688160400181815250506040518060400160405280601b81526020017f4369656e63696173206465206c6120436f6d707574616369c3b36e000000000081525081606001819052506040518060400160405280601381526020017f50726f796563746f2050726f6772616d61646f000000000000000000000000008152508160800181905250606060046040519080825280602002602001820160405280156200012857816020015b6060815260200190600190039081620001125790505b50905060405180606001604052806030815260200162003e2560309139816000815181106200015357fe5b602002602001018190525060405180606001604052806034815260200162003e5560349139816001815181106200018657fe5b602002602001018190525060405180606001604052806023815260200162003e026023913981600281518110620001b957fe5b60200260200101819052506040518060400160405280601f81526020017f44617461205374727563747572657320616e6420506572666f726d616e636500815250816003815181106200020857fe5b6020026020010181905250808260a00181905250604051806102c0016040528061029081526020016200480361029091398260c0018190525060048260e0018181525050600582610100018181525050620002626200162e565b6040518060400160405280601a81526020017f496e74726f6475636369c3b36e20612046696c6f736f66c3ad610000000000008152508160000181905250600281602001818152505063123125a081604001818152505060405180606001604052806027815260200162003f846027913981606001819052506040518060400160405280600681526020017f456e7361796f00000000000000000000000000000000000000000000000000008152508160800181905250606060066040519080825280602002602001820160405280156200035257816020015b60608152602001906001900390816200033c5790505b5090506040518060400160405280601881526020017fc2bf5175c3a9206573206c612066696c6f736f66c3ad613f0000000000000000815250816000815181106200039957fe5b602002602001018190525060405180606001604052806029815260200162003f5b6029913981600181518110620003cc57fe5b60200260200101819052506040518060600160405280602c815260200162003fe2602c913981600281518110620003ff57fe5b602002602001018190525060405180606001604052806030815260200162003ec360309139816003815181106200043257fe5b60200260200101819052506040518060400160405280601f81526020017f4d656e7465732c206365726562726f73207920636f6d70757461646f72617300815250816004815181106200048157fe5b60200260200101819052506040518060600160405280602b815260200162003ef3602b913981600581518110620004b457fe5b6020026020010181905250808260a0018190525060405180610240016040528061020981526020016200404861020991398260c0018190525060038260e00181815250506005826101000181815250506200050e6200162e565b60405180606001604052806023815260200162003ddf6023913981600001819052506004816020018181525050630706de6a8160400181815250506040518060400160405280600d81526020017f417274653a204dc3ba736963610000000000000000000000000000000000000081525081606001819052506040518060400160405280600581526020017f437572736f000000000000000000000000000000000000000000000000000000815250816080018190525060606005604051908082528060200260200182016040528015620005fe57816020015b6060815260200190600190039081620005e85790505b509050604051806060016040528060248152602001620042d460249139816000815181106200062957fe5b602002602001018190525060405180606001604052806037815260200162003fab60379139816001815181106200065c57fe5b60200260200101819052506040518060400160405280601f81526020017f4dc3ba7369636120646520417369612079204d6564696f204f7269656e74650081525081600281518110620006ab57fe5b6020026020010181905250604051806060016040528060248152602001620042516024913981600381518110620006de57fe5b60200260200101819052506040518060600160405280603d815260200162003f1e603d9139816004815181106200071157fe5b6020026020010181905250808260a001819052506040518061022001604052806101f78152602001620044f46101f791398260c0018190525060038260e00181815250506005826101000181815250506200076b6200162e565b6040518060400160405280600f81526020017f436f6d756e69736d6f204368696e6f000000000000000000000000000000000081525081600001819052506003816020018181525050630706de658160400181815250506040518060600160405280603a815260200162003e89603a913981606001819052506040518060400160405280600e81526020017f437572736f2079204578616d656e0000000000000000000000000000000000008152508160800181905250606060056040519080825280602002602001820160405280156200085b57816020015b6060815260200190600190039081620008455790505b5090506040518060400160405280601781526020017fc2bf5175c3a920657320656c20636f6d756e69736d6f3f00000000000000000081525081600081518110620008a257fe5b60200260200101819052506040518060400160405280601b81526020017f496e666c75656e63696120636f6e204d616f205473652054756e67000000000081525081600181518110620008f157fe5b60200260200101819052506040518060400160405280601681526020017f416363696f6e657320696d706c656d656e746164617300000000000000000000815250816002815181106200094057fe5b60200260200101819052506040518060400160405280602081526020017f5265706572637573696f6e657320656e206c61204368696e612061637475616c815250816003815181106200098f57fe5b60200260200101819052506040518060600160405280603a81526020016200400e603a913981600481518110620009c257fe5b6020026020010181905250808260a001819052506040518061022001604052806101fc8152602001620042f86101fc91398260c0018190525060038260e001818152505060028261010001818152505062000a1c6200162e565b6040518060400160405280601181526020017f436572656d6f6e69612064656c2074c3a900000000000000000000000000000081525081600001819052506005816020018181525050630706de658160400181815250506040518060400160405280601081526020017f417274653a20436572656d6f6e6961730000000000000000000000000000000081525081606001819052506040518060400160405280601081526020017f507275656261207072c3a163746963610000000000000000000000000000000081525081608001819052506060600660405190808252806020026020018201604052801562000b2857816020015b606081526020019060019003908162000b125790505b5090506040518060400160405280601981526020017f4c6f73205072696e636970696f73206465204368616e6f7975000000000000008152508160008151811062000b6f57fe5b60200260200101819052506040518060800160405280605e8152602001620046eb605e91398160018151811062000ba257fe5b60200260200101819052506040518060400160405280600781526020017f4b616973656b69000000000000000000000000000000000000000000000000008152508160028151811062000bf157fe5b60200260200101819052506040518060400160405280600a81526020017f4e616b612d6461636869000000000000000000000000000000000000000000008152508160038151811062000c4057fe5b60200260200101819052506040518060400160405280600881526020017f476f7a612d6972690000000000000000000000000000000000000000000000008152508160048151811062000c8f57fe5b60200260200101819052506040518060400160405280600681526020017f55737563686100000000000000000000000000000000000000000000000000008152508160058151811062000cde57fe5b6020026020010181905250808260a001819052506040518060e0016040528060ba81526020016200474960ba91398260c0018190525060058260e001818152505060048261010001818152505060008a90806001815401808255809150509060018203906000526020600020906009020160009091929091909150600082015181600001908051906020019062000d779291906200167a565b506020820151816001015560408201518160020155606082015181600301908051906020019062000daa9291906200167a565b50608082015181600401908051906020019062000dc99291906200167a565b5060a082015181600501908051906020019062000de892919062001701565b5060c082015181600601908051906020019062000e079291906200167a565b5060e08201518160070155610100820151816008015550505060008890806001815401808255809150509060018203906000526020600020906009020160009091929091909150600082015181600001908051906020019062000e6c9291906200167a565b506020820151816001015560408201518160020155606082015181600301908051906020019062000e9f9291906200167a565b50608082015181600401908051906020019062000ebe9291906200167a565b5060a082015181600501908051906020019062000edd92919062001701565b5060c082015181600601908051906020019062000efc9291906200167a565b5060e08201518160070155610100820151816008015550505060008490806001815401808255809150509060018203906000526020600020906009020160009091929091909150600082015181600001908051906020019062000f619291906200167a565b506020820151816001015560408201518160020155606082015181600301908051906020019062000f949291906200167a565b50608082015181600401908051906020019062000fb39291906200167a565b5060a082015181600501908051906020019062000fd292919062001701565b5060c082015181600601908051906020019062000ff19291906200167a565b5060e082015181600701556101008201518160080155505050600086908060018154018082558091505090600182039060005260206000209060090201600090919290919091506000820151816000019080519060200190620010569291906200167a565b5060208201518160010155604082015181600201556060820151816003019080519060200190620010899291906200167a565b506080820151816004019080519060200190620010a89291906200167a565b5060a0820151816005019080519060200190620010c792919062001701565b5060c0820151816006019080519060200190620010e69291906200167a565b5060e0820151816007015561010082015181600801555050506000829080600181540180825580915050906001820390600052602060002090600902016000909192909190915060008201518160000190805190602001906200114b9291906200167a565b50602082015181600101556040820151816002015560608201518160030190805190602001906200117e9291906200167a565b5060808201518160040190805190602001906200119d9291906200167a565b5060a0820151816005019080519060200190620011bc92919062001701565b5060c0820151816006019080519060200190620011db9291906200167a565b5060e082015181600701556101008201518160080155505050620011fe62001768565b600181600001818152505062ba62df8160200181815250506040518060400160405280600a81526020017f46696e616c697a61646f0000000000000000000000000000000000000000000081525081604001819052506040518060400160405280600881526020017f4170726f6261646f00000000000000000000000000000000000000000000000081525081606001819052506040518060800160405280605f815260200162004275605f913981608001819052506001819080600181540180825580915050906001820390600052602060002090600502016000909192909190915060008201518160000155602082015181600101556040820151816002019080519060200190620013149291906200167a565b506060820151816003019080519060200190620013339291906200167a565b506080820151816004019080519060200190620013529291906200167a565b505050506200136062001768565b600281600001818152505062ba62df8160200181815250506040518060400160405280600a81526020017f46696e616c697a61646f0000000000000000000000000000000000000000000081525081604001819052506040518060400160405280600881526020017f4170726f6261646f00000000000000000000000000000000000000000000000081525081606001819052506040518060800160405280605f815260200162004275605f913981608001819052506001819080600181540180825580915050906001820390600052602060002090600502016000909192909190915060008201518160000155602082015181600101556040820151816002019080519060200190620014769291906200167a565b506060820151816003019080519060200190620014959291906200167a565b506080820151816004019080519060200190620014b49291906200167a565b50505050620014c262001768565b600381600001818152505063123125a08160200181815250506040518060400160405280600a81526020017f46696e616c697a61646f0000000000000000000000000000000000000000000081525081604001819052506040518060400160405280600881526020017f4170726f6261646f00000000000000000000000000000000000000000000000081525081606001819052506040518060800160405280605f815260200162004275605f913981608001819052506001819080600181540180825580915050906001820390600052602060002090600502016000909192909190915060008201518160000155602082015181600101556040820151816002019080519060200190620015d99291906200167a565b506060820151816003019080519060200190620015f89291906200167a565b506080820151816004019080519060200190620016179291906200167a565b50505050505050505050505050505050506200183c565b6040518061012001604052806060815260200160008152602001600081526020016060815260200160608152602001606081526020016060815260200160008152602001600081525090565b828054600181600116156101000203166002900490600052602060002090601f016020900481019282601f10620016bd57805160ff1916838001178555620016ee565b82800160010185558215620016ee579182015b82811115620016ed578251825591602001919060010190620016d0565b5b509050620016fd919062001797565b5090565b82805482825590600052602060002090810192821562001755579160200282015b8281111562001754578251829080519060200190620017439291906200167a565b509160200191906001019062001722565b5b509050620017649190620017bf565b5090565b6040518060a0016040528060008152602001600081526020016060815260200160608152602001606081525090565b620017bc91905b80821115620017b85760008160009055506001016200179e565b5090565b90565b620017ed91905b80821115620017e95760008181620017df9190620017f0565b50600101620017c6565b5090565b90565b50805460018160011615610100020316600290046000825580601f1062001818575062001839565b601f01602090049060005260206000209081019062001838919062001797565b5b50565b612593806200184c6000396000f3fe608060405234801561001057600080fd5b50600436106100885760003560e01c8063aa2da1771161005b578063aa2da17714610129578063bc7af1c614610159578063fc678fe414610189578063fd5bbb99146101b957610088565b806330f467e51461008d5780633b1a66f8146100ab57806395fd9420146100c95780639d97ef0c146100f9575b600080fd5b6100956101d5565b6040516100a29190612313565b60405180910390f35b6100b361042e565b6040516100c091906122f1565b60405180910390f35b6100e360048036036100de9190810190611de6565b610827565b6040516100f09190612357565b60405180910390f35b610113600480360361010e9190810190611d81565b610c16565b6040516101209190612313565b60405180910390f35b610143600480360361013e9190810190611d81565b610ef1565b6040516101509190612335565b60405180910390f35b610173600480360361016e9190810190611daa565b61130e565b6040516101809190612357565b60405180910390f35b6101a3600480360361019e9190810190611cff565b6115b5565b6040516101b09190612379565b60405180910390f35b6101d360048036036101ce9190810190611d40565b6116bc565b005b60606001805480602002602001604051908101604052809291908181526020016000905b8282101561042557838290600052602060002090600502016040518060a00160405290816000820154815260200160018201548152602001600282018054600181600116156101000203166002900480601f0160208091040260200160405190810160405280929190818152602001828054600181600116156101000203166002900480156102c95780601f1061029e576101008083540402835291602001916102c9565b820191906000526020600020905b8154815290600101906020018083116102ac57829003601f168201915b50505050508152602001600382018054600181600116156101000203166002900480601f01602080910402602001604051908101604052809291908181526020018280546001816001161561010002031660029004801561036b5780601f106103405761010080835404028352916020019161036b565b820191906000526020600020905b81548152906001019060200180831161034e57829003601f168201915b50505050508152602001600482018054600181600116156101000203166002900480601f01602080910402602001604051908101604052809291908181526020018280546001816001161561010002031660029004801561040d5780601f106103e25761010080835404028352916020019161040d565b820191906000526020600020905b8154815290600101906020018083116103f057829003601f168201915b505050505081525050815260200190600101906101f9565b50505050905090565b60606000805480602002602001604051908101604052809291908181526020016000905b8282101561081e578382906000526020600020906009020160405180610120016040529081600082018054600181600116156101000203166002900480601f01602080910402602001604051908101604052809291908181526020018280546001816001161561010002031660029004801561050f5780601f106104e45761010080835404028352916020019161050f565b820191906000526020600020905b8154815290600101906020018083116104f257829003601f168201915b505050505081526020016001820154815260200160028201548152602001600382018054600181600116156101000203166002900480601f0160208091040260200160405190810160405280929190818152602001828054600181600116156101000203166002900480156105c55780601f1061059a576101008083540402835291602001916105c5565b820191906000526020600020905b8154815290600101906020018083116105a857829003601f168201915b50505050508152602001600482018054600181600116156101000203166002900480601f0160208091040260200160405190810160405280929190818152602001828054600181600116156101000203166002900480156106675780601f1061063c57610100808354040283529160200191610667565b820191906000526020600020905b81548152906001019060200180831161064a57829003601f168201915b5050505050815260200160058201805480602002602001604051908101604052809291908181526020016000905b82821015610751578382906000526020600020018054600181600116156101000203166002900480601f01602080910402602001604051908101604052809291908181526020018280546001816001161561010002031660029004801561073d5780601f106107125761010080835404028352916020019161073d565b820191906000526020600020905b81548152906001019060200180831161072057829003601f168201915b505050505081526020019060010190610695565b505050508152602001600682018054600181600116156101000203166002900480601f0160208091040260200160405190810160405280929190818152602001828054600181600116156101000203166002900480156107f25780601f106107c7576101008083540402835291602001916107f2565b820191906000526020600020905b8154815290600101906020018083116107d557829003601f168201915b505050505081526020016007820154815260200160088201548152505081526020019060010190610452565b50505050905090565b61082f61175b565b60008090505b600180549050811015610c0d57846001828154811061085057fe5b90600052602060002090600502016000015414801561088c5750836001828154811061087857fe5b906000526020600020906005020160010154145b15610c00576001831415610907576040518060400160405280600881526020017f416365707461646f000000000000000000000000000000000000000000000000815250600182815481106108dd57fe5b9060005260206000209060050201600301908051906020019061090192919061178a565b50610970565b6040518060400160405280600981526020017f52656368617a61646f00000000000000000000000000000000000000000000008152506001828154811061094a57fe5b9060005260206000209060050201600301908051906020019061096e92919061178a565b505b6040518060400160405280600a81526020017f46696e616c697a61646f00000000000000000000000000000000000000000000815250600182815481106109b357fe5b906000526020600020906005020160020190805190602001906109d792919061178a565b50600181815481106109e557fe5b90600052602060002090600502016040518060a00160405290816000820154815260200160018201548152602001600282018054600181600116156101000203166002900480601f016020809104026020016040519081016040528092919081815260200182805460018160011615610100020316600290048015610aab5780601f10610a8057610100808354040283529160200191610aab565b820191906000526020600020905b815481529060010190602001808311610a8e57829003601f168201915b50505050508152602001600382018054600181600116156101000203166002900480601f016020809104026020016040519081016040528092919081815260200182805460018160011615610100020316600290048015610b4d5780601f10610b2257610100808354040283529160200191610b4d565b820191906000526020600020905b815481529060010190602001808311610b3057829003601f168201915b50505050508152602001600482018054600181600116156101000203166002900480601f016020809104026020016040519081016040528092919081815260200182805460018160011615610100020316600290048015610bef5780601f10610bc457610100808354040283529160200191610bef565b820191906000526020600020905b815481529060010190602001808311610bd257829003601f168201915b505050505081525050915050610c0f565b8080600101915050610835565b505b9392505050565b606080600180549050604051908082528060200260200182016040528015610c5857816020015b610c4561180a565b815260200190600190039081610c3d5790505b509050600080905060008090505b600180549050811015610ee6578460018281548110610c8157fe5b9060005260206000209060050201600001541415610ed95760018181548110610ca657fe5b90600052602060002090600502016040518060a00160405290816000820154815260200160018201548152602001600282018054600181600116156101000203166002900480601f016020809104026020016040519081016040528092919081815260200182805460018160011615610100020316600290048015610d6c5780601f10610d4157610100808354040283529160200191610d6c565b820191906000526020600020905b815481529060010190602001808311610d4f57829003601f168201915b50505050508152602001600382018054600181600116156101000203166002900480601f016020809104026020016040519081016040528092919081815260200182805460018160011615610100020316600290048015610e0e5780601f10610de357610100808354040283529160200191610e0e565b820191906000526020600020905b815481529060010190602001808311610df157829003601f168201915b50505050508152602001600482018054600181600116156101000203166002900480601f016020809104026020016040519081016040528092919081815260200182805460018160011615610100020316600290048015610eb05780601f10610e8557610100808354040283529160200191610eb0565b820191906000526020600020905b815481529060010190602001808311610e9357829003601f168201915b505050505081525050838381518110610ec557fe5b602002602001018190525081806001019250505b8080600101915050610c66565b508192505050919050565b610ef9611839565b60008090505b600080549050811015611307578260008281548110610f1a57fe5b90600052602060002090600902016001015414156112fa5760008181548110610f3f57fe5b906000526020600020906009020160405180610120016040529081600082018054600181600116156101000203166002900480601f016020809104026020016040519081016040528092919081815260200182805460018160011615610100020316600290048015610ff25780601f10610fc757610100808354040283529160200191610ff2565b820191906000526020600020905b815481529060010190602001808311610fd557829003601f168201915b505050505081526020016001820154815260200160028201548152602001600382018054600181600116156101000203166002900480601f0160208091040260200160405190810160405280929190818152602001828054600181600116156101000203166002900480156110a85780601f1061107d576101008083540402835291602001916110a8565b820191906000526020600020905b81548152906001019060200180831161108b57829003601f168201915b50505050508152602001600482018054600181600116156101000203166002900480601f01602080910402602001604051908101604052809291908181526020018280546001816001161561010002031660029004801561114a5780601f1061111f5761010080835404028352916020019161114a565b820191906000526020600020905b81548152906001019060200180831161112d57829003601f168201915b5050505050815260200160058201805480602002602001604051908101604052809291908181526020016000905b82821015611234578382906000526020600020018054600181600116156101000203166002900480601f0160208091040260200160405190810160405280929190818152602001828054600181600116156101000203166002900480156112205780601f106111f557610100808354040283529160200191611220565b820191906000526020600020905b81548152906001019060200180831161120357829003601f168201915b505050505081526020019060010190611178565b505050508152602001600682018054600181600116156101000203166002900480601f0160208091040260200160405190810160405280929190818152602001828054600181600116156101000203166002900480156112d55780601f106112aa576101008083540402835291602001916112d5565b820191906000526020600020905b8154815290600101906020018083116112b857829003601f168201915b5050505050815260200160078201548152602001600882015481525050915050611309565b8080600101915050610eff565b505b919050565b61131661175b565b60008090505b6001805490508110156115ad57826001828154811061133757fe5b9060005260206000209060050201600001541480156113735750836001828154811061135f57fe5b906000526020600020906005020160010154145b156115a0576001818154811061138557fe5b90600052602060002090600502016040518060a00160405290816000820154815260200160018201548152602001600282018054600181600116156101000203166002900480601f01602080910402602001604051908101604052809291908181526020018280546001816001161561010002031660029004801561144b5780601f106114205761010080835404028352916020019161144b565b820191906000526020600020905b81548152906001019060200180831161142e57829003601f168201915b50505050508152602001600382018054600181600116156101000203166002900480601f0160208091040260200160405190810160405280929190818152602001828054600181600116156101000203166002900480156114ed5780601f106114c2576101008083540402835291602001916114ed565b820191906000526020600020905b8154815290600101906020018083116114d057829003601f168201915b50505050508152602001600482018054600181600116156101000203166002900480601f01602080910402602001604051908101604052809291908181526020018280546001816001161561010002031660029004801561158f5780601f106115645761010080835404028352916020019161158f565b820191906000526020600020905b81548152906001019060200180831161157257829003601f168201915b5050505050815250509150506115af565b808060010191505061131c565b505b92915050565b6000808054905082602001818152505060008290806001815401808255809150509060018203906000526020600020906009020160009091929091909150600082015181600001908051906020019061160f929190611885565b5060208201518160010155604082015181600201556060820151816003019080519060200190611640929190611885565b50608082015181600401908051906020019061165d929190611885565b5060a082015181600501908051906020019061167a929190611905565b5060c0820151816006019080519060200190611697929190611885565b5060e08201518160070155610100820151816008015550505081602001519050919050565b600181908060018154018082558091505090600182039060005260206000209060050201600090919290919091506000820151816000015560208201518160010155604082015181600201908051906020019061171a929190611885565b506060820151816003019080519060200190611737929190611885565b506080820151816004019080519060200190611754929190611885565b5050505050565b6040518060a0016040528060008152602001600081526020016060815260200160608152602001606081525090565b828054600181600116156101000203166002900490600052602060002090601f016020900481019282601f106117cb57805160ff19168380011785556117f9565b828001600101855582156117f9579182015b828111156117f85782518255916020019190600101906117dd565b5b5090506118069190611965565b5090565b6040518060a0016040528060008152602001600081526020016060815260200160608152602001606081525090565b6040518061012001604052806060815260200160008152602001600081526020016060815260200160608152602001606081526020016060815260200160008152602001600081525090565b828054600181600116156101000203166002900490600052602060002090601f016020900481019282601f106118c657805160ff19168380011785556118f4565b828001600101855582156118f4579182015b828111156118f35782518255916020019190600101906118d8565b5b5090506119019190611965565b5090565b828054828255906000526020600020908101928215611954579160200282015b82811115611953578251829080519060200190611943929190611885565b5091602001919060010190611925565b5b509050611961919061198a565b5090565b61198791905b8082111561198357600081600090555060010161196b565b5090565b90565b6119b391905b808211156119af57600081816119a691906119b6565b50600101611990565b5090565b90565b50805460018160011615610100020316600290046000825580601f106119dc57506119fb565b601f0160209004906000526020600020908101906119fa9190611965565b5b50565b600082601f830112611a0f57600080fd5b8135611a22611a1d826123c1565b612394565b9150818183526020840193506020810190508360005b83811015611a685781358601611a4e8882611a72565b845260208401935060208301925050600181019050611a38565b5050505092915050565b600082601f830112611a8357600080fd5b8135611a96611a91826123e9565b612394565b91508082526020830160208301858383011115611ab257600080fd5b611abd8382846124e6565b50505092915050565b60006101208284031215611ad957600080fd5b611ae4610120612394565b9050600082013567ffffffffffffffff811115611b0057600080fd5b611b0c84828501611a72565b6000830152506020611b2084828501611cea565b6020830152506040611b3484828501611cea565b604083015250606082013567ffffffffffffffff811115611b5457600080fd5b611b6084828501611a72565b606083015250608082013567ffffffffffffffff811115611b8057600080fd5b611b8c84828501611a72565b60808301525060a082013567ffffffffffffffff811115611bac57600080fd5b611bb8848285016119fe565b60a08301525060c082013567ffffffffffffffff811115611bd857600080fd5b611be484828501611a72565b60c08301525060e0611bf884828501611cea565b60e083015250610100611c0d84828501611cea565b6101008301525092915050565b600060a08284031215611c2c57600080fd5b611c3660a0612394565b90506000611c4684828501611cea565b6000830152506020611c5a84828501611cea565b602083015250604082013567ffffffffffffffff811115611c7a57600080fd5b611c8684828501611a72565b604083015250606082013567ffffffffffffffff811115611ca657600080fd5b611cb284828501611a72565b606083015250608082013567ffffffffffffffff811115611cd257600080fd5b611cde84828501611a72565b60808301525092915050565b600081359050611cf981612539565b92915050565b600060208284031215611d1157600080fd5b600082013567ffffffffffffffff811115611d2b57600080fd5b611d3784828501611ac6565b91505092915050565b600060208284031215611d5257600080fd5b600082013567ffffffffffffffff811115611d6c57600080fd5b611d7884828501611c1a565b91505092915050565b600060208284031215611d9357600080fd5b6000611da184828501611cea565b91505092915050565b60008060408385031215611dbd57600080fd5b6000611dcb85828601611cea565b9250506020611ddc85828601611cea565b9150509250929050565b600080600060608486031215611dfb57600080fd5b6000611e0986828701611cea565b9350506020611e1a86828701611cea565b9250506040611e2b86828701611cea565b9150509250925092565b6000611e418383611fd0565b905092915050565b6000611e5583836120ea565b905092915050565b6000611e69838361224f565b905092915050565b6000611e7c82612445565b611e868185612498565b935083602082028501611e9885612415565b8060005b85811015611ed45784840389528151611eb58582611e35565b9450611ec083612471565b925060208a01995050600181019050611e9c565b50829750879550505050505092915050565b6000611ef182612450565b611efb81856124a9565b935083602082028501611f0d85612425565b8060005b85811015611f495784840389528151611f2a8582611e49565b9450611f358361247e565b925060208a01995050600181019050611f11565b50829750879550505050505092915050565b6000611f668261245b565b611f7081856124ba565b935083602082028501611f8285612435565b8060005b85811015611fbe5784840389528151611f9f8582611e5d565b9450611faa8361248b565b925060208a01995050600181019050611f86565b50829750879550505050505092915050565b6000611fdb82612466565b611fe581856124cb565b9350611ff58185602086016124f5565b611ffe81612528565b840191505092915050565b60006101208301600083015184820360008601526120278282611fd0565b915050602083015161203c60208601826122d3565b50604083015161204f60408601826122d3565b50606083015184820360608601526120678282611fd0565b915050608083015184820360808601526120818282611fd0565b91505060a083015184820360a086015261209b8282611e71565b91505060c083015184820360c08601526120b58282611fd0565b91505060e08301516120ca60e08601826122d3565b506101008301516120df6101008601826122d3565b508091505092915050565b60006101208301600083015184820360008601526121088282611fd0565b915050602083015161211d60208601826122d3565b50604083015161213060408601826122d3565b50606083015184820360608601526121488282611fd0565b915050608083015184820360808601526121628282611fd0565b91505060a083015184820360a086015261217c8282611e71565b91505060c083015184820360c08601526121968282611fd0565b91505060e08301516121ab60e08601826122d3565b506101008301516121c06101008601826122d3565b508091505092915050565b600060a0830160008301516121e360008601826122d3565b5060208301516121f660208601826122d3565b506040830151848203604086015261220e8282611fd0565b915050606083015184820360608601526122288282611fd0565b915050608083015184820360808601526122428282611fd0565b9150508091505092915050565b600060a08301600083015161226760008601826122d3565b50602083015161227a60208601826122d3565b50604083015184820360408601526122928282611fd0565b915050606083015184820360608601526122ac8282611fd0565b915050608083015184820360808601526122c68282611fd0565b9150508091505092915050565b6122dc816124dc565b82525050565b6122eb816124dc565b82525050565b6000602082019050818103600083015261230b8184611ee6565b905092915050565b6000602082019050818103600083015261232d8184611f5b565b905092915050565b6000602082019050818103600083015261234f8184612009565b905092915050565b6000602082019050818103600083015261237181846121cb565b905092915050565b600060208201905061238e60008301846122e2565b92915050565b6000604051905081810181811067ffffffffffffffff821117156123b757600080fd5b8060405250919050565b600067ffffffffffffffff8211156123d857600080fd5b602082029050602081019050919050565b600067ffffffffffffffff82111561240057600080fd5b601f19601f8301169050602081019050919050565b6000819050602082019050919050565b6000819050602082019050919050565b6000819050602082019050919050565b600081519050919050565b600081519050919050565b600081519050919050565b600081519050919050565b6000602082019050919050565b6000602082019050919050565b6000602082019050919050565b600082825260208201905092915050565b600082825260208201905092915050565b600082825260208201905092915050565b600082825260208201905092915050565b6000819050919050565b82818337600083830152505050565b60005b838110156125135780820151818401526020810190506124f8565b83811115612522576000848401525b50505050565b6000601f19601f8301169050919050565b612542816124dc565b811461254d57600080fd5b5056fea365627a7a72315820b559710ce84b169231f721a41d6cfd060eba6c2b26009b5d55ea632cdd1581f46c6578706572696d656e74616cf564736f6c63430005100040496e74726f6475636369c3b36e2061206c612045746e6f6d757369636f6c6f67c3ad614f626a656374204f7269656e7465642050726f6772616d6d696e6720696e204a6176614a6176612050726f6772616d6d696e673a20536f6c76696e672050726f626c656d73207769746820536f6674776172654a6176612050726f6772616d6d696e673a204172726179732c204c697374732c20616e64205374727563747572656420446174614369656e6369617320536f6369616c657320792048756d616e61733a20446f637472696e6120506f6cc3ad746963613a20436f6d756e69736d6fc2bf54656e656d6f7320616c67756e61206f626c6967616369c3b36e206465206f62656365646572206c61206c65793fc2bf4c61732074656f72c3ad6173206369656e74c3ad666963617320736f6e20766572646164657261733fc389706f636120636f6e74656d706f72c3a16e65613a20456c2066696e206465206c6f7320706572696f646f73206d75736963616c657320c2bf4e6f3f4d6f72616c696461643a204f626a65746976612c2072656c6174697661206f20656d6f63696f6e616c4369656e6369617320536f6369616c657320792048756d616e61733a2046696c6f736f66c3ad6144697665727369666963616369c3b36e20696e737472756d656e74616c2061206c6f206c6172676f206465206c6120686973746f726961c2bf5175c3a920657320656c20636f6e6f63696d69656e746f3f20c2bf54656e656d6f7320616c67756e6f3f46757475726120646573747275636369c3b36e2064656c2073697374656d61206361706974616c697374612065737461646f756e6964656e73654573746520637572736f206c652070726573656e746172c3a120616c67756e6173206465206c6173207072696e636970616c657320c3a17265617320646520696e766573746967616369c3b36e20656e2066696c6f736f66c3ad6120636f6e74656d706f72c3a16e65612e20456e2063616461206dc3b364756c6f2c20756e2066696cc3b3736f666f206469666572656e7465206c6f206775696172c3a120612074726176c3a97320646520616c67756e6173206465206c61732070726567756e7461732079206375657374696f6e6573206dc3a17320696d706f7274616e74657320656e20737520c3a172656120646520657370656369616c697a616369c3b36e2e20436f6d656e7a6172656d6f732074726174616e646f20646520656e74656e646572207175c3a9206573206c612066696c6f736f66c3ad612c206375c3a16c657320736f6e20737573206f626a657469766f732079206dc3a9746f646f73206361726163746572c3ad737469636f732c207920656e207175c3a9207365206469666572656e636961206465206f74726f732074656d61732e204c7565676f2c207061736172656d6f7320656c20726573746f2064656c20637572736f206f6274656e69656e646f20756e612076697369c3b36e2067656e6572616c20696e74726f647563746f7269612064652076617269617320c3a172656173206469666572656e7465732e4575726f70612079206c61206dc3ba73696361206465206c6f7320627572677565736573456c20637572736f20667565206170726f6261646f20636f6e206d7579206275656e61732063616c696669636163696f6e65732c206c6f6772616e646f206c6120636f6d7072656e7369c3b36e206465206c6f7320636f6e74656e69646f734f72c3ad67656e6573206573706972697475616c6573206465206c61206dc3ba73696361456e20657374612061637265646974616369c3b36e20736520627573636120636f6e6669726d61722071756520656c206173706972616e746520706f736561206c6f7320636f6e6f63696d69656e746f73206e656365736172696f732066756e64616d656e74616c657320736f62726520656c20636f6d756e69736d6f206368696e6f2e20436f6e20656c2066696e2064652071756520656c206173706972616e74652073656120636170617a20646520636f6d7072656e646572206c617320616363696f6e657320706f6cc3ad7469636173207265616c697a6164617320706f7220656c20676f626965726e6f206368696e6f2061637475616c207265616c697a6164617320656e20626173652061206c6f7320726573756c7461646f73206f6274656e69646f7320647572616e746520746f6461206c6120686973746f72696120656e206c6120766964612064656c20636f6d756e69736d6f206368696e6f2e204c6120706572736f6e6120717565206f6274656e676120657374612061637265646974616369c3b36e2073656120636170617a2064652061706f796172207920646566656e64657220656c20636f6d756e69736d6f206368696e6f20636f6e74656d706f72c3a16e656f20656e207375206c7563686120636f6e20656c206361706974616c69736d6f2065737461646f756e6964656e73652e436f6e206672656375656e6369612064616d6f73206c61206dc3ba7369636120706f722073656e7461646f20656e206e7565737472612076696461206469617269612e205065726f20616c20696775616c20717565206c6120736f636965646164206d69736d612c206c61206dc3ba73696361207475766f20756e206f726967656e20727564696d656e746172696f20717565206a756e746f20612065737461206675652065766f6c7563696f6e616e646f207920666f726d616e646f2070617274652066756e64616d656e74616c206465206c61206964656e7469646164206465206d75636861732063756c74757261732e204361646120756e612070657263696269656e646f206c61206dc3ba7369636120646520666f726d61732074616e2064697374696e74617320636f6d6f206c6f7320696e737472756d656e746f73207175652075736162616e206f206c6f7320657374696c6f732071756520746f636162616e2e20456e206573746520637572736f2070726574656e64656d6f732071756520656c20657374756469616e746520616471756965726120756e6120617072656369616369c3b36e20706f72206c61206964656e7469646164206d75736963616c206465206c61732063756c7475726173206dc3a17320696e666c7579656e74657320656e206c6120686973746f7269612e436f6e6f63696d69656e746f7320736f627265206c6f73207574656e63696c696f733a2043686177616e2c204368616972652c2043686173656e2c204368617368616b752c2048697368616b752c204368616b696e2c2046756b7573612053652062757363612071756520656c206173706972616e746520706f73656120746f646f73206c6f7320636f6e6f63696d69656e746f732074656f7269636f7320707261637469636f7320616365726361206465206c6f732064697374696e746f7320656c656d656e746f7320792070726f6365736f732071756520736f6e206e656365736172696f7320647572616e7465206c6120656c61626f72616369c3b36e206465206c6120636572656d6f6e69612064656c2074c3a94573746120657370656369616c697a616369c3b36e20657374c3a12064657374696e61646120612066757475726f73206465736172726f6c6c61646f72657320646520736f66747761726520636f6e2063696572746120657870657269656e63696120656e2070726f6772616d616369c3b36e20656e20616c206d656e6f73206f74726f206c656e6775616a652064652070726f6772616d616369c3b36e2028706f7220656a656d706c6f2c20507974686f6e2c20432c204a6176615363726970742c206574632e29207175652064657365656e20706f646572207265736f6c7665722070726f626c656d6173206dc3a17320636f6d706c656a6f73207574696c697a616e646f206120756e2064697365c3b16f206f7269656e7461646f2061206f626a65746f7320636f6e204a6176612e204164656dc3a17320646520617072656e646572204a6176612c206f6274656e6472c3a120657870657269656e63696120636f6e20646f7320656e746f726e6f73206465206465736172726f6c6c6f204a6176612028426c75654a20792045636c69707365292c20617072656e646572c3a120612070726f6772616d617220636f6e20696e7465726661636573206772c3a16669636173206465207573756172696f207920617072656e646572c3a120612064697365c3b161722070726f6772616d61732063617061636573206465206d616e656a6172206772616e6465732063616e74696461646573206465206461746f732e20457374617320686162696c69646164657320646520696e67656e696572c3ad6120646520736f66747761726520736f6e20616d706c69616d656e74652061706c696361626c657320656e20756e6120616d706c69612067616d6120646520696e64757374726961732e",
  "source": "pragma solidity >=0.4.21 <0.7.0;\r\npragma experimental ABIEncoderV2;\r\n\r\ncontract ServiciosUsuario {\r\n    Usuario[] usuarios;\r\n    mapping(uint256 => uint256) usuariosMap;\r\n\r\n    struct Usuario {\r\n        string first_name;\r\n        string last_name;\r\n        string password;\r\n        string email;\r\n        uint256 telefono;\r\n        string[] redes;\r\n        uint256 cedula;\r\n    }\r\n\r\n    constructor() public {\r\n        Usuario memory usuario_;\r\n        Usuario memory usuario_2;\r\n        Usuario memory usuario_3;\r\n        Usuario memory usuario_4;\r\n        Usuario memory usuario_5;\r\n\r\n        usuario_.first_name = \"Felipe\";\r\n        usuario_.last_name = \"Pacheco Cerdas\";\r\n        usuario_.password = \"felipe1\";\r\n        usuario_.email = \"felipepace09@gmail.com\";\r\n        usuario_.telefono = 85858585;\r\n        string[] memory rrss = new string[](2);\r\n        rrss[0] = \"Facebook: felipepace09\";\r\n        rrss[1] = \"Instragram: felipe09\";\r\n        usuario_.redes = rrss;\r\n        usuario_.cedula = 305280872;\r\n\r\n        usuario_2.first_name = \"Jeremy\";\r\n        usuario_2.last_name = \"Tencio Morales\";\r\n        usuario_2.password = \"jeremy1\";\r\n        usuario_2.email = \"jdtm23@gmail.com\";\r\n        usuario_2.telefono = 75417878;\r\n        string[] memory rrss2 = new string[](2);\r\n        rrss2[0] = \"Facebook: jdtm23\";\r\n        rrss2[1] = \"Instragram: jdtm23\";\r\n        usuario_2.redes = rrss;\r\n        usuario_2.cedula = 305210784;\r\n\r\n        usuario_3.first_name = \"Bernold\";\r\n        usuario_3.last_name = \"Abarca Ziga\";\r\n        usuario_3.password = \"bernold1\";\r\n        usuario_3.email = \"bernoldaz@gmail.com\";\r\n        usuario_3.telefono = 70132088;\r\n        string[] memory rrss3 = new string[](2);\r\n        rrss3[0] = \"Facebook: bernoldaz\";\r\n        rrss3[1] = \"Instragram: bernoldaz\";\r\n        usuario_3.redes = rrss;\r\n        usuario_3.cedula = 117890661;\r\n\r\n        usuario_4.first_name = \"Gerardo\";\r\n        usuario_4.last_name = \"Lpez\";\r\n        usuario_4.password = \"g.rar1\";\r\n        usuario_4.email = \"g.rar@gmail.com\";\r\n        usuario_4.telefono = 91479012;\r\n        string[] memory rrss4 = new string[](2);\r\n        rrss4[0] = \"Facebook: g.rar\";\r\n        rrss4[1] = \"Instragram: g.rar\";\r\n        usuario_4.redes = rrss;\r\n        usuario_4.cedula = 117890666;\r\n\r\n        usuario_5.first_name = \"Arturo\";\r\n        usuario_5.last_name = \"Vsquez\";\r\n        usuario_5.password = \"arturo1\";\r\n        usuario_5.email = \"arturo@gmail.com\";\r\n        usuario_5.telefono = 12215007;\r\n        string[] memory rrss5 = new string[](2);\r\n        rrss5[0] = \"Facebook: arturo?\";\r\n        rrss5[1] = \"Instragram: arturo?\";\r\n        usuario_5.redes = rrss;\r\n        usuario_5.cedula = 12215007;\r\n\r\n        usuariosMap[usuario_.cedula] = usuarios.length;\r\n        usuarios.push(usuario_);\r\n        usuariosMap[usuario_2.cedula] = usuarios.length;\r\n        usuarios.push(usuario_2);\r\n        usuariosMap[usuario_3.cedula] = usuarios.length;\r\n        usuarios.push(usuario_3);\r\n        usuariosMap[usuario_4.cedula] = usuarios.length;\r\n        usuarios.push(usuario_4);\r\n        usuariosMap[usuario_5.cedula] = usuarios.length;\r\n        usuarios.push(usuario_5);\r\n    }\r\n\r\n    function agregarUsuario(Usuario memory _usuario)\r\n        public\r\n        returns (string memory)\r\n    {\r\n        if (usuariosMap[_usuario.cedula] == 0) {\r\n            usuariosMap[_usuario.cedula] = usuarios.length;\r\n            usuarios.push(_usuario);\r\n            return \"S\";\r\n        } else {\r\n            return \"F\";\r\n        }\r\n    }\r\n\r\n    function getUsuario(uint256 cedula)\r\n        public\r\n        view\r\n        returns (Usuario memory usuario)\r\n    {\r\n        return usuarios[usuariosMap[cedula]];\r\n    }\r\n\r\n    function getUsuarios() public view returns (Usuario[] memory usuario) {\r\n        return usuarios;\r\n    }\r\n}\r\n\r\ncontract ServiciosAcreditacion {\r\n    Acreditacion[] acreditaciones;\r\n\r\n    AspiranteAcreditacion[] aspirantes;\r\n\r\n    struct AspiranteAcreditacion {\r\n        uint256 idAcreditacion;\r\n        uint256 idAspirante;\r\n        string estado;\r\n        string resultado;\r\n        string descripcionResultado;\r\n    }\r\n\r\n    struct Acreditacion {\r\n        string titulo;\r\n        uint256 idAcreditacion;\r\n        uint256 idAcreditador;\r\n        string conocimiento;\r\n        string tipoMedio;\r\n        string[] contenidos;\r\n        string descripcion;\r\n        uint256 ignos;\r\n        uint256 virtus;\r\n    }\r\n\r\n    constructor() public {\r\n        Acreditacion memory acreditacion_;\r\n        acreditacion_.titulo = \"Java Basics\";\r\n        acreditacion_.idAcreditacion = 1;\r\n        acreditacion_.idAcreditador = 305280872;\r\n        acreditacion_.conocimiento = \"Ciencias de la Computacin\";\r\n        acreditacion_.tipoMedio = \"Proyecto Programado\";\r\n        string[] memory ct = new string[](4);\r\n        ct[0] = \"Java Programming: Solving Problems with Software\";\r\n        ct[1] = \"Java Programming: Arrays, Lists, and Structured Data\";\r\n        ct[2] = \"Object Oriented Programming in Java\";\r\n        ct[3] = \"Data Structures and Performance\";\r\n        acreditacion_.contenidos = ct;\r\n        acreditacion_\r\n            .descripcion = \"Esta especializacin est destinada a futuros desarrolladores de software con cierta experiencia en programacin en al menos otro lenguaje de programacin (por ejemplo, Python, C, JavaScript, etc.) que deseen poder resolver problemas ms complejos utilizando a un diseo orientado a objetos con Java. Adems de aprender Java, obtendr experiencia con dos entornos de desarrollo Java (BlueJ y Eclipse), aprender a programar con interfaces grficas de usuario y aprender a disear programas capaces de manejar grandes cantidades de datos. Estas habilidades de ingeniera de software son ampliamente aplicables en una amplia gama de industrias.\";\r\n        acreditacion_.ignos = 4;\r\n        acreditacion_.virtus = 5;\r\n\r\n        Acreditacion memory acreditacion_2;\r\n        acreditacion_2.titulo = \"Introduccin a Filosofa\";\r\n        acreditacion_2.idAcreditacion = 2;\r\n        acreditacion_2.idAcreditador = 305210784;\r\n        acreditacion_2.conocimiento = \"Ciencias Sociales y Humanas: Filosofa\";\r\n        acreditacion_2.tipoMedio = \"Ensayo\";\r\n        string[] memory ct2 = new string[](6);\r\n        ct2[0] = \"Qu es la filosofa?\";\r\n        ct2[1] = \"Moralidad: Objetiva, relativa o emocional\";\r\n        ct2[2] = \"Qu es el conocimiento? Tenemos alguno?\";\r\n        ct2[3] = \"Tenemos alguna obligacin de obeceder la ley?\";\r\n        ct2[4] = \"Mentes, cerebros y computadoras\";\r\n        ct2[5] = \"Las teoras cientficas son verdaderas?\";\r\n        acreditacion_2.contenidos = ct2;\r\n        acreditacion_2\r\n            .descripcion = \"Este curso le presentar algunas de las principales reas de investigacin en filosofa contempornea. En cada mdulo, un filsofo diferente lo guiar a travs de algunas de las preguntas y cuestiones ms importantes en su rea de especializacin. Comenzaremos tratando de entender qu es la filosofa, cules son sus objetivos y mtodos caractersticos, y en qu se diferencia de otros temas. Luego, pasaremos el resto del curso obteniendo una visin general introductoria de varias reas diferentes.\";\r\n        acreditacion_2.ignos = 3;\r\n        acreditacion_2.virtus = 5;\r\n\r\n        Acreditacion memory acreditacion_4;\r\n        acreditacion_4.titulo = \"Introduccin a la Etnomusicologa\";\r\n        acreditacion_4.idAcreditacion = 4;\r\n        acreditacion_4.idAcreditador = 117890666;\r\n        acreditacion_4.conocimiento = \"Arte: Msica\";\r\n        acreditacion_4.tipoMedio = \"Curso\";\r\n        string[] memory ct4 = new string[](5);\r\n        ct4[0] = \"Orgenes espirituales de la msica\";\r\n        ct4[1] = \"Diversificacin instrumental a lo largo de la historia\";\r\n        ct4[2] = \"Msica de Asia y Medio Oriente\";\r\n        ct4[3] = \"Europa y la msica de los burgueses\";\r\n        ct4[4] = \"poca contempornea: El fin de los periodos musicales No?\";\r\n        acreditacion_4.contenidos = ct4;\r\n        acreditacion_4\r\n            .descripcion = \"Con frecuencia damos la msica por sentado en nuestra vida diaria. Pero al igual que la sociedad misma, la msica tuvo un origen rudimentario que junto a esta fue evolucionando y formando parte fundamental de la identidad de muchas culturas. Cada una percibiendo la msica de formas tan distintas como los instrumentos que usaban o los estilos que tocaban. En este curso pretendemos que el estudiante adquiera una apreciacin por la identidad musical de las culturas ms influyentes en la historia.\";\r\n        acreditacion_4.ignos = 3;\r\n        acreditacion_4.virtus = 5;\r\n\r\n        Acreditacion memory acreditacion_3;\r\n        acreditacion_3.titulo = \"Comunismo Chino\";\r\n        acreditacion_3.idAcreditacion = 3;\r\n        acreditacion_3.idAcreditador = 117890661;\r\n        acreditacion_3\r\n            .conocimiento = \"Ciencias Sociales y Humanas: Doctrina Poltica: Comunismo\";\r\n        acreditacion_3.tipoMedio = \"Curso y Examen\";\r\n        string[] memory ct3 = new string[](5);\r\n        ct3[0] = \"Qu es el comunismo?\";\r\n        ct3[1] = \"Influencia con Mao Tse Tung\";\r\n        ct3[2] = \"Acciones implementadas\";\r\n        ct3[3] = \"Repercusiones en la China actual\";\r\n        ct3[4] = \"Futura destruccin del sistema capitalista estadounidense\";\r\n        acreditacion_3.contenidos = ct3;\r\n        acreditacion_3\r\n            .descripcion = \"En esta acreditacin se busca confirmar que el aspirante posea los conocimientos necesarios fundamentales sobre el comunismo chino. Con el fin de que el aspirante sea capaz de comprender las acciones polticas realizadas por el gobierno chino actual realizadas en base a los resultados obtenidos durante toda la historia en la vida del comunismo chino. La persona que obtenga esta acreditacin sea capaz de apoyar y defender el comunismo chino contemporneo en su lucha con el capitalismo estadounidense.\";\r\n        acreditacion_3.ignos = 3;\r\n        acreditacion_3.virtus = 2;\r\n\r\n        Acreditacion memory acreditacion_5;\r\n        acreditacion_5.titulo = \"Ceremonia del t\";\r\n        acreditacion_5.idAcreditacion = 5;\r\n        acreditacion_5.idAcreditador = 117890661;\r\n        acreditacion_5.conocimiento = \"Arte: Ceremonias\";\r\n        acreditacion_5.tipoMedio = \"Prueba prctica\";\r\n        string[] memory ct5 = new string[](6);\r\n        ct5[0] = \"Los Principios de Chanoyu\";\r\n        ct5[1] = \"Conocimientos sobre los utencilios: Chawan, Chaire, Chasen, Chashaku, Hishaku, Chakin, Fukusa \";\r\n        ct5[2] = \"Kaiseki\";\r\n        ct5[3] = \"Naka-dachi\";\r\n        ct5[4] = \"Goza-iri\";\r\n        ct5[5] = \"Usucha\";\r\n        acreditacion_5.contenidos = ct5;\r\n        acreditacion_5\r\n            .descripcion = \"Se busca que el aspirante posea todos los conocimientos teoricos practicos acerca de los distintos elementos y procesos que son necesarios durante la elaboracin de la ceremonia del t\";\r\n        acreditacion_5.ignos = 5;\r\n        acreditacion_5.virtus = 4;\r\n\r\n        acreditaciones.push(acreditacion_);\r\n        acreditaciones.push(acreditacion_2);\r\n        acreditaciones.push(acreditacion_3);\r\n        acreditaciones.push(acreditacion_4);\r\n        acreditaciones.push(acreditacion_5);\r\n\r\n        AspiranteAcreditacion memory acreditacionAspirante_;\r\n        acreditacionAspirante_.idAcreditacion = 1;\r\n        acreditacionAspirante_.idAspirante = 12215007;\r\n        acreditacionAspirante_.estado = \"Finalizado\";\r\n        acreditacionAspirante_.resultado = \"Aprobado\";\r\n        acreditacionAspirante_\r\n            .descripcionResultado = \"El curso fue aprobado con muy buenas calificaciones, logrando la comprensin de los contenidos\";\r\n\r\n        aspirantes.push(acreditacionAspirante_);\r\n\r\n        AspiranteAcreditacion memory acreditacionAspirante_7;\r\n        acreditacionAspirante_7.idAcreditacion = 2;\r\n        acreditacionAspirante_7.idAspirante = 12215007;\r\n        acreditacionAspirante_7.estado = \"Finalizado\";\r\n        acreditacionAspirante_7.resultado = \"Aprobado\";\r\n        acreditacionAspirante_7\r\n            .descripcionResultado = \"El curso fue aprobado con muy buenas calificaciones, logrando la comprensin de los contenidos\";\r\n\r\n        aspirantes.push(acreditacionAspirante_7);\r\n\r\n        AspiranteAcreditacion memory acreditacionAspirante_8;\r\n        acreditacionAspirante_8.idAcreditacion = 3;\r\n        acreditacionAspirante_8.idAspirante = 305210784;\r\n        acreditacionAspirante_8.estado = \"Finalizado\";\r\n        acreditacionAspirante_8.resultado = \"Aprobado\";\r\n        acreditacionAspirante_8\r\n            .descripcionResultado = \"El curso fue aprobado con muy buenas calificaciones, logrando la comprensin de los contenidos\";\r\n\r\n        aspirantes.push(acreditacionAspirante_8);\r\n    }\r\n\r\n    function agregarAcreditacion(Acreditacion memory _acreditacion)\r\n        public\r\n        returns (uint256)\r\n    {\r\n        _acreditacion.idAcreditacion = acreditaciones.length;\r\n        acreditaciones.push(_acreditacion);\r\n        return _acreditacion.idAcreditacion;\r\n    }\r\n\r\n    function getAcreditacion(uint256 idAcreditacion)\r\n        public\r\n        view\r\n        returns (Acreditacion memory acreditacion)\r\n    {\r\n        for (uint256 i = 0; i < acreditaciones.length; i++) {\r\n            if (acreditaciones[i].idAcreditacion == idAcreditacion) {\r\n                return acreditaciones[i];\r\n            }\r\n        }\r\n    }\r\n\r\n    function setAceptadoRechazado(\r\n        uint256 idAcreditacion,\r\n        uint256 idAspirante,\r\n        uint256 aceptado\r\n    ) public returns (AspiranteAcreditacion memory acreditacionAspirante) {\r\n        for (uint256 i = 0; i < aspirantes.length; i++) {\r\n            if (\r\n                aspirantes[i].idAcreditacion == idAcreditacion &&\r\n                aspirantes[i].idAspirante == idAspirante\r\n            ) {\r\n                if (aceptado == 1) {\r\n                    aspirantes[i].resultado = \"Aceptado\";\r\n                } else {\r\n                    aspirantes[i].resultado = \"Rechazado\";\r\n                }\r\n                aspirantes[i].estado = \"Finalizado\";\r\n                return aspirantes[i];\r\n            }\r\n        }\r\n    }\r\n\r\n    function getAcreditaciones()\r\n        public\r\n        view\r\n        returns (Acreditacion[] memory acreditacion)\r\n    {\r\n        return acreditaciones;\r\n    }\r\n\r\n    /* Aspirante */\r\n\r\n    function agregarAspiranteAcreditacion(\r\n        AspiranteAcreditacion memory _acreditacionAspirante\r\n    ) public {\r\n        aspirantes.push(_acreditacionAspirante);\r\n    }\r\n\r\n    function getAspiranteAcreditacion(uint256 idUsuario, uint256 idAcreditacion)\r\n        public\r\n        view\r\n        returns (AspiranteAcreditacion memory acreditacionAspirante)\r\n    {\r\n        for (uint256 i = 0; i < aspirantes.length; i++) {\r\n            if (\r\n                aspirantes[i].idAcreditacion == idAcreditacion &&\r\n                aspirantes[i].idAspirante == idUsuario\r\n            ) return aspirantes[i];\r\n        }\r\n    }\r\n\r\n    function getAspirantes()\r\n        public\r\n        view\r\n        returns (AspiranteAcreditacion[] memory acreditacionAspirante)\r\n    {\r\n        return aspirantes;\r\n    }\r\n\r\n    function getAspirantesPorAcreditacion(uint256 idAcreditacion)\r\n        public\r\n        view\r\n        returns (AspiranteAcreditacion[] memory acreditacionAspirante)\r\n    {\r\n        AspiranteAcreditacion[] memory res = new AspiranteAcreditacion[](\r\n            aspirantes.length\r\n        );\r\n        uint256 j = 0;\r\n        for (uint256 i = 0; i < aspirantes.length; i++) {\r\n            if (aspirantes[i].idAcreditacion == idAcreditacion) {\r\n                res[j] = aspirantes[i];\r\n                j++;\r\n            }\r\n        }\r\n        return res;\r\n    }\r\n}\r\n",
  "sourcePath": "C:\\Users\\felip\\Documents\\Kraken\\KAPlatform\\contracts\\ContratosAplicacion.sol",
  "compiler": {
    "name": "solc",
    "version": "0.5.16+commit.9c3226ce.Emscripten.clang"
  },
  "schemaVersion": "3.2.0",
  "updatedAt": "2020-07-17T11:04:05.953Z",
  "networkType": "ethereum",
  "devdoc": {
    "methods": {}
  },
  "userdoc": {
    "methods": {}
  }
}