{
  "contractName": "ServiciosAcreditacion",
  "abi": [
    {
      "inputs": [],
      "payable": false,
      "stateMutability": "nonpayable",
      "type": "constructor"
    },
    {
      "constant": false,
      "inputs": [
        {
          "components": [
            {
              "internalType": "string",
              "name": "titulo",
              "type": "string"
            },
            {
              "internalType": "uint256",
              "name": "idAcreditacion",
              "type": "uint256"
            },
            {
              "internalType": "uint256",
              "name": "idAcreditador",
              "type": "uint256"
            },
            {
              "internalType": "string",
              "name": "conocimiento",
              "type": "string"
            },
            {
              "internalType": "string",
              "name": "tipoMedio",
              "type": "string"
            },
            {
              "internalType": "string[]",
              "name": "contenidos",
              "type": "string[]"
            },
            {
              "internalType": "string",
              "name": "descripcion",
              "type": "string"
            },
            {
              "internalType": "uint256",
              "name": "ignos",
              "type": "uint256"
            },
            {
              "internalType": "uint256",
              "name": "virtus",
              "type": "uint256"
            }
          ],
          "internalType": "struct ServiciosAcreditacion.Acreditacion",
          "name": "_acreditacion",
          "type": "tuple"
        }
      ],
      "name": "agregarAcreditacion",
      "outputs": [],
      "payable": false,
      "stateMutability": "nonpayable",
      "type": "function"
    },
    {
      "constant": true,
      "inputs": [
        {
          "internalType": "string",
          "name": "conocimiento",
          "type": "string"
        },
        {
          "internalType": "string",
          "name": "titulo",
          "type": "string"
        }
      ],
      "name": "getAcreditacion",
      "outputs": [
        {
          "components": [
            {
              "internalType": "string",
              "name": "titulo",
              "type": "string"
            },
            {
              "internalType": "uint256",
              "name": "idAcreditacion",
              "type": "uint256"
            },
            {
              "internalType": "uint256",
              "name": "idAcreditador",
              "type": "uint256"
            },
            {
              "internalType": "string",
              "name": "conocimiento",
              "type": "string"
            },
            {
              "internalType": "string",
              "name": "tipoMedio",
              "type": "string"
            },
            {
              "internalType": "string[]",
              "name": "contenidos",
              "type": "string[]"
            },
            {
              "internalType": "string",
              "name": "descripcion",
              "type": "string"
            },
            {
              "internalType": "uint256",
              "name": "ignos",
              "type": "uint256"
            },
            {
              "internalType": "uint256",
              "name": "virtus",
              "type": "uint256"
            }
          ],
          "internalType": "struct ServiciosAcreditacion.Acreditacion",
          "name": "acreditacion",
          "type": "tuple"
        }
      ],
      "payable": false,
      "stateMutability": "view",
      "type": "function"
    },
    {
      "constant": true,
      "inputs": [],
      "name": "getAcreditaciones",
      "outputs": [
        {
          "components": [
            {
              "internalType": "string",
              "name": "titulo",
              "type": "string"
            },
            {
              "internalType": "uint256",
              "name": "idAcreditacion",
              "type": "uint256"
            },
            {
              "internalType": "uint256",
              "name": "idAcreditador",
              "type": "uint256"
            },
            {
              "internalType": "string",
              "name": "conocimiento",
              "type": "string"
            },
            {
              "internalType": "string",
              "name": "tipoMedio",
              "type": "string"
            },
            {
              "internalType": "string[]",
              "name": "contenidos",
              "type": "string[]"
            },
            {
              "internalType": "string",
              "name": "descripcion",
              "type": "string"
            },
            {
              "internalType": "uint256",
              "name": "ignos",
              "type": "uint256"
            },
            {
              "internalType": "uint256",
              "name": "virtus",
              "type": "uint256"
            }
          ],
          "internalType": "struct ServiciosAcreditacion.Acreditacion[]",
          "name": "acreditacion",
          "type": "tuple[]"
        }
      ],
      "payable": false,
      "stateMutability": "view",
      "type": "function"
    },
    {
      "constant": false,
      "inputs": [
        {
          "components": [
            {
              "internalType": "uint256",
              "name": "idAcreditacion",
              "type": "uint256"
            },
            {
              "internalType": "uint256",
              "name": "idAspirante",
              "type": "uint256"
            },
            {
              "internalType": "string",
              "name": "estado",
              "type": "string"
            },
            {
              "internalType": "string",
              "name": "resultado",
              "type": "string"
            },
            {
              "internalType": "string",
              "name": "descripcionResultado",
              "type": "string"
            }
          ],
          "internalType": "struct ServiciosAcreditacion.AspiranteAcreditacion",
          "name": "_acreditacionAspirante",
          "type": "tuple"
        }
      ],
      "name": "agregarAspiranteAcreditacion",
      "outputs": [],
      "payable": false,
      "stateMutability": "nonpayable",
      "type": "function"
    },
    {
      "constant": true,
      "inputs": [
        {
          "internalType": "uint256",
          "name": "idUsuario",
          "type": "uint256"
        },
        {
          "internalType": "uint256",
          "name": "idAcreditacion",
          "type": "uint256"
        }
      ],
      "name": "getAspiranteAcreditacion",
      "outputs": [
        {
          "components": [
            {
              "internalType": "uint256",
              "name": "idAcreditacion",
              "type": "uint256"
            },
            {
              "internalType": "uint256",
              "name": "idAspirante",
              "type": "uint256"
            },
            {
              "internalType": "string",
              "name": "estado",
              "type": "string"
            },
            {
              "internalType": "string",
              "name": "resultado",
              "type": "string"
            },
            {
              "internalType": "string",
              "name": "descripcionResultado",
              "type": "string"
            }
          ],
          "internalType": "struct ServiciosAcreditacion.AspiranteAcreditacion",
          "name": "acreditacionAspirante",
          "type": "tuple"
        }
      ],
      "payable": false,
      "stateMutability": "view",
      "type": "function"
    },
    {
      "constant": true,
      "inputs": [],
      "name": "getAspirantes",
      "outputs": [
        {
          "components": [
            {
              "internalType": "uint256",
              "name": "idAcreditacion",
              "type": "uint256"
            },
            {
              "internalType": "uint256",
              "name": "idAspirante",
              "type": "uint256"
            },
            {
              "internalType": "string",
              "name": "estado",
              "type": "string"
            },
            {
              "internalType": "string",
              "name": "resultado",
              "type": "string"
            },
            {
              "internalType": "string",
              "name": "descripcionResultado",
              "type": "string"
            }
          ],
          "internalType": "struct ServiciosAcreditacion.AspiranteAcreditacion[]",
          "name": "acreditacionAspirante",
          "type": "tuple[]"
        }
      ],
      "payable": false,
      "stateMutability": "view",
      "type": "function"
    },
    {
      "constant": true,
      "inputs": [
        {
          "internalType": "uint256",
          "name": "idAcreditacion",
          "type": "uint256"
        }
      ],
      "name": "getAspirantesPorAcreditacion",
      "outputs": [
        {
          "components": [
            {
              "internalType": "uint256",
              "name": "idAcreditacion",
              "type": "uint256"
            },
            {
              "internalType": "uint256",
              "name": "idAspirante",
              "type": "uint256"
            },
            {
              "internalType": "string",
              "name": "estado",
              "type": "string"
            },
            {
              "internalType": "string",
              "name": "resultado",
              "type": "string"
            },
            {
              "internalType": "string",
              "name": "descripcionResultado",
              "type": "string"
            }
          ],
          "internalType": "struct ServiciosAcreditacion.AspiranteAcreditacion[]",
          "name": "acreditacionAspirante",
          "type": "tuple[]"
        }
      ],
      "payable": false,
      "stateMutability": "view",
      "type": "function"
    }
  ],
  "bytecode": "0x60806040523480156200001157600080fd5b506200001c6200044f565b6040518060400160405280600d81526020017f507974686f6e2042617369637300000000000000000000000000000000000000815250816000018190525060018160200181815250506312323768816040018181525050604051806060016040528060358152602001620029326035913981606001819052506040518060400160405280601081526020017f4578616d656e205072c3a1637469636f000000000000000000000000000000008152508160800181905250606060026040519080825280602002602001820160405280156200010c57816020015b6060815260200190600190039081620000f65790505b5090506040518060400160405280600981526020017f46756e63696f6e65730000000000000000000000000000000000000000000000815250816000815181106200015357fe5b60200260200101819052506040518060400160405280600b81526020017f457863657063696f6e657300000000000000000000000000000000000000000081525081600181518110620001a257fe5b6020026020010181905250808260a001819052506040518060600160405280603e8152602001620028f4603e91398260c0018190525060008260e001818152505060008260e00181815250506000829080600181540180825580915050906001820390600052602060002090600902016000909192909190915060008201518160000190805190602001906200023a9291906200049b565b50602082015181600101556040820151816002015560608201518160030190805190602001906200026d9291906200049b565b5060808201518160040190805190602001906200028c9291906200049b565b5060a0820151816005019080519060200190620002ab92919062000522565b5060c0820151816006019080519060200190620002ca9291906200049b565b5060e082015181600701556101008201518160080155505050620002ed62000589565b600181600001818152505063120383be8160200181815250506040518060400160405280600a81526020017f46696e616c697a61646f0000000000000000000000000000000000000000000081525081604001819052506040518060400160405280600c81526020017f39363a204170726f6261646f00000000000000000000000000000000000000008152508160600181905250604051806060016040528060338152602001620028c16033913981608001819052506001819080600181540180825580915050906001820390600052602060002090600502016000909192909190915060008201518160000155602082015181600101556040820151816002019080519060200190620004049291906200049b565b506060820151816003019080519060200190620004239291906200049b565b506080820151816004019080519060200190620004429291906200049b565b505050505050506200065d565b6040518061012001604052806060815260200160008152602001600081526020016060815260200160608152602001606081526020016060815260200160008152602001600081525090565b828054600181600116156101000203166002900490600052602060002090601f016020900481019282601f10620004de57805160ff19168380011785556200050f565b828001600101855582156200050f579182015b828111156200050e578251825591602001919060010190620004f1565b5b5090506200051e9190620005b8565b5090565b82805482825590600052602060002090810192821562000576579160200282015b8281111562000575578251829080519060200190620005649291906200049b565b509160200191906001019062000543565b5b509050620005859190620005e0565b5090565b6040518060a0016040528060008152602001600081526020016060815260200160608152602001606081525090565b620005dd91905b80821115620005d9576000816000905550600101620005bf565b5090565b90565b6200060e91905b808211156200060a576000818162000600919062000611565b50600101620005e7565b5090565b90565b50805460018160011615610100020316600290046000825580601f106200063957506200065a565b601f016020900490600052602060002090810190620006599190620005b8565b5b50565b612254806200066d6000396000f3fe608060405234801561001057600080fd5b506004361061007d5760003560e01c80639d97ef0c1161005b5780639d97ef0c146100ee578063bc7af1c61461011e578063fc678fe41461014e578063fd5bbb991461016a5761007d565b806330f467e5146100825780633b1a66f8146100a05780634bdd425e146100be575b600080fd5b61008a610186565b6040516100979190611fa3565b60405180910390f35b6100a86103df565b6040516100b59190611f81565b60405180910390f35b6100d860048036036100d391908101906118dc565b6107d8565b6040516100e59190611fc5565b60405180910390f35b610108600480360361010391908101906119ca565b610c55565b6040516101159190611fa3565b60405180910390f35b610138600480360361013391908101906119f3565b610f30565b6040516101459190611fe7565b60405180910390f35b61016860048036036101639190810190611948565b6111d7565b005b610184600480360361017f9190810190611989565b6112c5565b005b60606001805480602002602001604051908101604052809291908181526020016000905b828210156103d657838290600052602060002090600502016040518060a00160405290816000820154815260200160018201548152602001600282018054600181600116156101000203166002900480601f01602080910402602001604051908101604052809291908181526020018280546001816001161561010002031660029004801561027a5780601f1061024f5761010080835404028352916020019161027a565b820191906000526020600020905b81548152906001019060200180831161025d57829003601f168201915b50505050508152602001600382018054600181600116156101000203166002900480601f01602080910402602001604051908101604052809291908181526020018280546001816001161561010002031660029004801561031c5780601f106102f15761010080835404028352916020019161031c565b820191906000526020600020905b8154815290600101906020018083116102ff57829003601f168201915b50505050508152602001600482018054600181600116156101000203166002900480601f0160208091040260200160405190810160405280929190818152602001828054600181600116156101000203166002900480156103be5780601f10610393576101008083540402835291602001916103be565b820191906000526020600020905b8154815290600101906020018083116103a157829003601f168201915b505050505081525050815260200190600101906101aa565b50505050905090565b60606000805480602002602001604051908101604052809291908181526020016000905b828210156107cf578382906000526020600020906009020160405180610120016040529081600082018054600181600116156101000203166002900480601f0160208091040260200160405190810160405280929190818152602001828054600181600116156101000203166002900480156104c05780601f10610495576101008083540402835291602001916104c0565b820191906000526020600020905b8154815290600101906020018083116104a357829003601f168201915b505050505081526020016001820154815260200160028201548152602001600382018054600181600116156101000203166002900480601f0160208091040260200160405190810160405280929190818152602001828054600181600116156101000203166002900480156105765780601f1061054b57610100808354040283529160200191610576565b820191906000526020600020905b81548152906001019060200180831161055957829003601f168201915b50505050508152602001600482018054600181600116156101000203166002900480601f0160208091040260200160405190810160405280929190818152602001828054600181600116156101000203166002900480156106185780601f106105ed57610100808354040283529160200191610618565b820191906000526020600020905b8154815290600101906020018083116105fb57829003601f168201915b5050505050815260200160058201805480602002602001604051908101604052809291908181526020016000905b82821015610702578382906000526020600020018054600181600116156101000203166002900480601f0160208091040260200160405190810160405280929190818152602001828054600181600116156101000203166002900480156106ee5780601f106106c3576101008083540402835291602001916106ee565b820191906000526020600020905b8154815290600101906020018083116106d157829003601f168201915b505050505081526020019060010190610646565b505050508152602001600682018054600181600116156101000203166002900480601f0160208091040260200160405190810160405280929190818152602001828054600181600116156101000203166002900480156107a35780601f10610778576101008083540402835291602001916107a3565b820191906000526020600020905b81548152906001019060200180831161078657829003601f168201915b505050505081526020016007820154815260200160088201548152505081526020019060010190610403565b50505050905090565b6107e0611364565b60008090505b600080549050811015610c4d5783805190602001206000828154811061080857fe5b90600052602060002090600902016003016040516108269190611f6a565b6040518091039020148015610873575082805190602001206000828154811061084b57fe5b90600052602060002090600902016000016040516108699190611f6a565b6040518091039020145b15610c40576000818154811061088557fe5b906000526020600020906009020160405180610120016040529081600082018054600181600116156101000203166002900480601f0160208091040260200160405190810160405280929190818152602001828054600181600116156101000203166002900480156109385780601f1061090d57610100808354040283529160200191610938565b820191906000526020600020905b81548152906001019060200180831161091b57829003601f168201915b505050505081526020016001820154815260200160028201548152602001600382018054600181600116156101000203166002900480601f0160208091040260200160405190810160405280929190818152602001828054600181600116156101000203166002900480156109ee5780601f106109c3576101008083540402835291602001916109ee565b820191906000526020600020905b8154815290600101906020018083116109d157829003601f168201915b50505050508152602001600482018054600181600116156101000203166002900480601f016020809104026020016040519081016040528092919081815260200182805460018160011615610100020316600290048015610a905780601f10610a6557610100808354040283529160200191610a90565b820191906000526020600020905b815481529060010190602001808311610a7357829003601f168201915b5050505050815260200160058201805480602002602001604051908101604052809291908181526020016000905b82821015610b7a578382906000526020600020018054600181600116156101000203166002900480601f016020809104026020016040519081016040528092919081815260200182805460018160011615610100020316600290048015610b665780601f10610b3b57610100808354040283529160200191610b66565b820191906000526020600020905b815481529060010190602001808311610b4957829003601f168201915b505050505081526020019060010190610abe565b505050508152602001600682018054600181600116156101000203166002900480601f016020809104026020016040519081016040528092919081815260200182805460018160011615610100020316600290048015610c1b5780601f10610bf057610100808354040283529160200191610c1b565b820191906000526020600020905b815481529060010190602001808311610bfe57829003601f168201915b5050505050815260200160078201548152602001600882015481525050915050610c4f565b80806001019150506107e6565b505b92915050565b606080600180549050604051908082528060200260200182016040528015610c9757816020015b610c846113b0565b815260200190600190039081610c7c5790505b509050600080905060008090505b600180549050811015610f25578460018281548110610cc057fe5b9060005260206000209060050201600001541415610f185760018181548110610ce557fe5b90600052602060002090600502016040518060a00160405290816000820154815260200160018201548152602001600282018054600181600116156101000203166002900480601f016020809104026020016040519081016040528092919081815260200182805460018160011615610100020316600290048015610dab5780601f10610d8057610100808354040283529160200191610dab565b820191906000526020600020905b815481529060010190602001808311610d8e57829003601f168201915b50505050508152602001600382018054600181600116156101000203166002900480601f016020809104026020016040519081016040528092919081815260200182805460018160011615610100020316600290048015610e4d5780601f10610e2257610100808354040283529160200191610e4d565b820191906000526020600020905b815481529060010190602001808311610e3057829003601f168201915b50505050508152602001600482018054600181600116156101000203166002900480601f016020809104026020016040519081016040528092919081815260200182805460018160011615610100020316600290048015610eef5780601f10610ec457610100808354040283529160200191610eef565b820191906000526020600020905b815481529060010190602001808311610ed257829003601f168201915b505050505081525050838381518110610f0457fe5b602002602001018190525081806001019250505b8080600101915050610ca5565b508192505050919050565b610f386113df565b60008090505b6001805490508110156111cf578260018281548110610f5957fe5b906000526020600020906005020160000154148015610f9557508360018281548110610f8157fe5b906000526020600020906005020160010154145b156111c25760018181548110610fa757fe5b90600052602060002090600502016040518060a00160405290816000820154815260200160018201548152602001600282018054600181600116156101000203166002900480601f01602080910402602001604051908101604052809291908181526020018280546001816001161561010002031660029004801561106d5780601f106110425761010080835404028352916020019161106d565b820191906000526020600020905b81548152906001019060200180831161105057829003601f168201915b50505050508152602001600382018054600181600116156101000203166002900480601f01602080910402602001604051908101604052809291908181526020018280546001816001161561010002031660029004801561110f5780601f106110e45761010080835404028352916020019161110f565b820191906000526020600020905b8154815290600101906020018083116110f257829003601f168201915b50505050508152602001600482018054600181600116156101000203166002900480601f0160208091040260200160405190810160405280929190818152602001828054600181600116156101000203166002900480156111b15780601f10611186576101008083540402835291602001916111b1565b820191906000526020600020905b81548152906001019060200180831161119457829003601f168201915b5050505050815250509150506111d1565b8080600101915050610f3e565b505b92915050565b60008190806001815401808255809150509060018203906000526020600020906009020160009091929091909150600082015181600001908051906020019061122192919061140e565b506020820151816001015560408201518160020155606082015181600301908051906020019061125292919061140e565b50608082015181600401908051906020019061126f92919061140e565b5060a082015181600501908051906020019061128c92919061148e565b5060c08201518160060190805190602001906112a992919061140e565b5060e08201518160070155610100820151816008015550505050565b600181908060018154018082558091505090600182039060005260206000209060050201600090919290919091506000820151816000015560208201518160010155604082015181600201908051906020019061132392919061140e565b50606082015181600301908051906020019061134092919061140e565b50608082015181600401908051906020019061135d92919061140e565b5050505050565b6040518061012001604052806060815260200160008152602001600081526020016060815260200160608152602001606081526020016060815260200160008152602001600081525090565b6040518060a0016040528060008152602001600081526020016060815260200160608152602001606081525090565b6040518060a0016040528060008152602001600081526020016060815260200160608152602001606081525090565b828054600181600116156101000203166002900490600052602060002090601f016020900481019282601f1061144f57805160ff191683800117855561147d565b8280016001018555821561147d579182015b8281111561147c578251825591602001919060010190611461565b5b50905061148a91906114ee565b5090565b8280548282559060005260206000209081019282156114dd579160200282015b828111156114dc5782518290805190602001906114cc92919061140e565b50916020019190600101906114ae565b5b5090506114ea9190611513565b5090565b61151091905b8082111561150c5760008160009055506001016114f4565b5090565b90565b61153c91905b80821115611538576000818161152f919061153f565b50600101611519565b5090565b90565b50805460018160011615610100020316600290046000825580601f106115655750611584565b601f01602090049060005260206000209081019061158391906114ee565b5b50565b600082601f83011261159857600080fd5b81356115ab6115a682612036565b612009565b9150818183526020840193506020810190508360005b838110156115f157813586016115d788826115fb565b8452602084019350602083019250506001810190506115c1565b5050505092915050565b600082601f83011261160c57600080fd5b813561161f61161a8261205e565b612009565b9150808252602083016020830185838301111561163b57600080fd5b6116468382846121a7565b50505092915050565b600082601f83011261166057600080fd5b813561167361166e8261208a565b612009565b9150808252602083016020830185838301111561168f57600080fd5b61169a8382846121a7565b50505092915050565b600061012082840312156116b657600080fd5b6116c1610120612009565b9050600082013567ffffffffffffffff8111156116dd57600080fd5b6116e9848285016115fb565b60008301525060206116fd848285016118c7565b6020830152506040611711848285016118c7565b604083015250606082013567ffffffffffffffff81111561173157600080fd5b61173d848285016115fb565b606083015250608082013567ffffffffffffffff81111561175d57600080fd5b611769848285016115fb565b60808301525060a082013567ffffffffffffffff81111561178957600080fd5b61179584828501611587565b60a08301525060c082013567ffffffffffffffff8111156117b557600080fd5b6117c1848285016115fb565b60c08301525060e06117d5848285016118c7565b60e0830152506101006117ea848285016118c7565b6101008301525092915050565b600060a0828403121561180957600080fd5b61181360a0612009565b90506000611823848285016118c7565b6000830152506020611837848285016118c7565b602083015250604082013567ffffffffffffffff81111561185757600080fd5b611863848285016115fb565b604083015250606082013567ffffffffffffffff81111561188357600080fd5b61188f848285016115fb565b606083015250608082013567ffffffffffffffff8111156118af57600080fd5b6118bb848285016115fb565b60808301525092915050565b6000813590506118d6816121fa565b92915050565b600080604083850312156118ef57600080fd5b600083013567ffffffffffffffff81111561190957600080fd5b6119158582860161164f565b925050602083013567ffffffffffffffff81111561193257600080fd5b61193e8582860161164f565b9150509250929050565b60006020828403121561195a57600080fd5b600082013567ffffffffffffffff81111561197457600080fd5b611980848285016116a3565b91505092915050565b60006020828403121561199b57600080fd5b600082013567ffffffffffffffff8111156119b557600080fd5b6119c1848285016117f7565b91505092915050565b6000602082840312156119dc57600080fd5b60006119ea848285016118c7565b91505092915050565b60008060408385031215611a0657600080fd5b6000611a14858286016118c7565b9250506020611a25858286016118c7565b9150509250929050565b6000611a3b8383611c58565b905092915050565b6000611a4f8383611d72565b905092915050565b6000611a638383611ed7565b905092915050565b6000611a76826120fb565b611a80818561214e565b935083602082028501611a92856120b6565b8060005b85811015611ace5784840389528151611aaf8582611a2f565b9450611aba83612127565b925060208a01995050600181019050611a96565b50829750879550505050505092915050565b6000611aeb82612106565b611af5818561215f565b935083602082028501611b07856120c6565b8060005b85811015611b435784840389528151611b248582611a43565b9450611b2f83612134565b925060208a01995050600181019050611b0b565b50829750879550505050505092915050565b6000611b6082612111565b611b6a8185612170565b935083602082028501611b7c856120d6565b8060005b85811015611bb85784840389528151611b998582611a57565b9450611ba483612141565b925060208a01995050600181019050611b80565b50829750879550505050505092915050565b600081546001811660008114611be75760018114611c0c57611c50565b607f6002830416611bf88187612181565b955060ff1983168652808601935050611c50565b60028204611c1a8187612181565b9550611c25856120e6565b60005b82811015611c4757815481890152600182019150602081019050611c28565b82880195505050505b505092915050565b6000611c638261211c565b611c6d818561218c565b9350611c7d8185602086016121b6565b611c86816121e9565b840191505092915050565b6000610120830160008301518482036000860152611caf8282611c58565b9150506020830151611cc46020860182611f5b565b506040830151611cd76040860182611f5b565b5060608301518482036060860152611cef8282611c58565b91505060808301518482036080860152611d098282611c58565b91505060a083015184820360a0860152611d238282611a6b565b91505060c083015184820360c0860152611d3d8282611c58565b91505060e0830151611d5260e0860182611f5b565b50610100830151611d67610100860182611f5b565b508091505092915050565b6000610120830160008301518482036000860152611d908282611c58565b9150506020830151611da56020860182611f5b565b506040830151611db86040860182611f5b565b5060608301518482036060860152611dd08282611c58565b91505060808301518482036080860152611dea8282611c58565b91505060a083015184820360a0860152611e048282611a6b565b91505060c083015184820360c0860152611e1e8282611c58565b91505060e0830151611e3360e0860182611f5b565b50610100830151611e48610100860182611f5b565b508091505092915050565b600060a083016000830151611e6b6000860182611f5b565b506020830151611e7e6020860182611f5b565b5060408301518482036040860152611e968282611c58565b91505060608301518482036060860152611eb08282611c58565b91505060808301518482036080860152611eca8282611c58565b9150508091505092915050565b600060a083016000830151611eef6000860182611f5b565b506020830151611f026020860182611f5b565b5060408301518482036040860152611f1a8282611c58565b91505060608301518482036060860152611f348282611c58565b91505060808301518482036080860152611f4e8282611c58565b9150508091505092915050565b611f648161219d565b82525050565b6000611f768284611bca565b915081905092915050565b60006020820190508181036000830152611f9b8184611ae0565b905092915050565b60006020820190508181036000830152611fbd8184611b55565b905092915050565b60006020820190508181036000830152611fdf8184611c91565b905092915050565b600060208201905081810360008301526120018184611e53565b905092915050565b6000604051905081810181811067ffffffffffffffff8211171561202c57600080fd5b8060405250919050565b600067ffffffffffffffff82111561204d57600080fd5b602082029050602081019050919050565b600067ffffffffffffffff82111561207557600080fd5b601f19601f8301169050602081019050919050565b600067ffffffffffffffff8211156120a157600080fd5b601f19601f8301169050602081019050919050565b6000819050602082019050919050565b6000819050602082019050919050565b6000819050602082019050919050565b60008190508160005260206000209050919050565b600081519050919050565b600081519050919050565b600081519050919050565b600081519050919050565b6000602082019050919050565b6000602082019050919050565b6000602082019050919050565b600082825260208201905092915050565b600082825260208201905092915050565b600082825260208201905092915050565b600081905092915050565b600082825260208201905092915050565b6000819050919050565b82818337600083830152505050565b60005b838110156121d45780820151818401526020810190506121b9565b838111156121e3576000848401525b50505050565b6000601f19601f8301169050919050565b6122038161219d565b811461220e57600080fd5b5056fea365627a7a72315820670b6a2cc0dc1e6fe9a2ee9e4b7d863e2f55a5572aff3fe535f8e223e35de7556c6578706572696d656e74616cf564736f6c63430005100040456c20637572736f20667565206170726f6261646f20636f6e206d7579206275656e61732063616c696669636163696f6e6573456e206573746520637572736f20617072656e646572c3a17320736f62726520656c20617274652079206c61206369656e6369612064656c20616e696d654369656e63696173206465206c6120436f6d7075746163696f6e3a204c656e6775616a65732064652050726f6772616d6163696f6e",
  "source": "pragma solidity >=0.4.21 <0.7.0;\r\npragma experimental ABIEncoderV2;\r\n\r\ncontract ServiciosUsuario {\r\n    Usuario[] usuarios;\r\n    mapping(uint256 => uint256) usuariosMap;\r\n\r\n    struct Usuario {\r\n        string nombre;\r\n        string apellidos;\r\n        string contrasenna;\r\n        string correoElectronico;\r\n        uint256 numeroTelefonico;\r\n        string[] redesSociales;\r\n        uint256 cedula;\r\n    }\r\n\r\n    constructor() public {\r\n        Usuario memory usuario_;\r\n\r\n        usuario_.nombre = \"Felipe Pacheco\";\r\n        usuario_.apellidos = \"Pacheco Cerdas\";\r\n        usuario_.contrasenna = \"felpudo\";\r\n        usuario_.correoElectronico = \"felipepace09@gmail.com\";\r\n        usuario_.numeroTelefonico = 85858585;\r\n        string[] memory rrss = new string[](2);\r\n        rrss[0] = \"Facebook: felipepace09\";\r\n        rrss[1] = \"Instragram: felipe09\";\r\n        usuario_.redesSociales = rrss;\r\n        usuario_.cedula = 305280872;\r\n\r\n        usuariosMap[usuario_.cedula] = usuarios.length;\r\n        usuarios.push(usuario_);\r\n    }\r\n\r\n    function agregarUsuario(Usuario memory _usuario) public {\r\n        usuariosMap[_usuario.cedula] = usuarios.length;\r\n        usuarios.push(_usuario);\r\n    }\r\n\r\n    function getUsuario(uint256 cedula)\r\n        public\r\n        view\r\n        returns (Usuario memory usuario)\r\n    {\r\n        return usuarios[usuariosMap[cedula]];\r\n    }\r\n\r\n    function getUsuarios() public view returns (Usuario[] memory usuario) {\r\n        return usuarios;\r\n    }\r\n}\r\n\r\ncontract ServiciosAcreditacion {\r\n    Acreditacion[] acreditaciones;\r\n\r\n    AspiranteAcreditacion[] aspirantes;\r\n\r\n    struct AspiranteAcreditacion {\r\n        uint256 idAcreditacion;\r\n        uint256 idAspirante;\r\n        string estado;\r\n        string resultado;\r\n        string descripcionResultado;\r\n    }\r\n\r\n    struct Acreditacion {\r\n        string titulo;\r\n        uint256 idAcreditacion;\r\n        uint256 idAcreditador;\r\n        string conocimiento;\r\n        string tipoMedio;\r\n        string[] contenidos;\r\n        string descripcion;\r\n        uint256 ignos;\r\n        uint256 virtus;\r\n    }\r\n\r\n    constructor() public {\r\n        Acreditacion memory acreditacion_;\r\n        acreditacion_.titulo = \"Python Basics\";\r\n        acreditacion_.idAcreditacion = 1;\r\n        acreditacion_.idAcreditador = 305280872;\r\n        acreditacion_\r\n            .conocimiento = \"Ciencias de la Computacion: Lenguajes de Programacion\";\r\n        acreditacion_.tipoMedio = \"Examen Prctico\";\r\n        string[] memory ct = new string[](2);\r\n        ct[0] = \"Funciones\";\r\n        ct[1] = \"Excepciones\";\r\n        acreditacion_.contenidos = ct;\r\n        acreditacion_\r\n            .descripcion = \"En este curso aprenders sobre el arte y la ciencia del anime\";\r\n        acreditacion_.ignos = 0;\r\n        acreditacion_.ignos = 0;\r\n\r\n        acreditaciones.push(acreditacion_);\r\n\r\n        AspiranteAcreditacion memory acreditacionAspirante_;\r\n        acreditacionAspirante_.idAcreditacion = 1;\r\n        acreditacionAspirante_.idAspirante = 302220222;\r\n        acreditacionAspirante_.estado = \"Finalizado\";\r\n        acreditacionAspirante_.resultado = \"96: Aprobado\";\r\n        acreditacionAspirante_\r\n            .descripcionResultado = \"El curso fue aprobado con muy buenas calificaciones\";\r\n\r\n        aspirantes.push(acreditacionAspirante_);\r\n    }\r\n\r\n    function agregarAcreditacion(Acreditacion memory _acreditacion) public {\r\n        acreditaciones.push(_acreditacion);\r\n    }\r\n\r\n    function getAcreditacion(string memory conocimiento, string memory titulo)\r\n        public\r\n        view\r\n        returns (Acreditacion memory acreditacion)\r\n    {\r\n        for (uint256 i = 0; i < acreditaciones.length; i++) {\r\n            if (\r\n                keccak256(bytes(acreditaciones[i].conocimiento)) ==\r\n                keccak256(bytes(conocimiento)) &&\r\n                keccak256(bytes(acreditaciones[i].titulo)) ==\r\n                keccak256(bytes(titulo))\r\n            ) return acreditaciones[i];\r\n        }\r\n    }\r\n\r\n    function getAcreditaciones()\r\n        public\r\n        view\r\n        returns (Acreditacion[] memory acreditacion)\r\n    {\r\n        return acreditaciones;\r\n    }\r\n\r\n    /* Aspirante */\r\n\r\n    function agregarAspiranteAcreditacion(\r\n        AspiranteAcreditacion memory _acreditacionAspirante\r\n    ) public {\r\n        aspirantes.push(_acreditacionAspirante);\r\n    }\r\n\r\n    function getAspiranteAcreditacion(uint256 idUsuario, uint256 idAcreditacion)\r\n        public\r\n        view\r\n        returns (AspiranteAcreditacion memory acreditacionAspirante)\r\n    {\r\n        for (uint256 i = 0; i < aspirantes.length; i++) {\r\n            if (\r\n                aspirantes[i].idAcreditacion == idAcreditacion &&\r\n                aspirantes[i].idAspirante == idUsuario\r\n            ) return aspirantes[i];\r\n        }\r\n    }\r\n\r\n    function getAspirantes()\r\n        public\r\n        view\r\n        returns (AspiranteAcreditacion[] memory acreditacionAspirante)\r\n    {\r\n        return aspirantes;\r\n    }\r\n\r\n    function getAspirantesPorAcreditacion(uint256 idAcreditacion)\r\n        public\r\n        view\r\n        returns (AspiranteAcreditacion[] memory acreditacionAspirante)\r\n    {\r\n        AspiranteAcreditacion[] memory res = new AspiranteAcreditacion[](\r\n            aspirantes.length\r\n        );\r\n        uint256 j = 0;\r\n        for (uint256 i = 0; i < aspirantes.length; i++) {\r\n            if (aspirantes[i].idAcreditacion == idAcreditacion) {\r\n                res[j] = aspirantes[i];\r\n                j++;\r\n            }\r\n        }\r\n        return res;\r\n    }\r\n}\r\n",
  "sourcePath": "C:\\Users\\felip\\Documents\\Kraken\\KAPlatform\\contracts\\ContratosAplicacion.sol",
  "compiler": {
    "name": "solc",
    "version": "0.5.16+commit.9c3226ce.Emscripten.clang"
  },
  "schemaVersion": "3.2.0",
  "updatedAt": "2020-07-15T03:33:29.771Z",
  "networkType": "ethereum",
  "devdoc": {
    "methods": {}
  },
  "userdoc": {
    "methods": {}
  }
}