{
  "contractName": "ServiciosAcreditacion",
  "abi": [
    {
      "inputs": [],
      "payable": false,
      "stateMutability": "nonpayable",
      "type": "constructor"
    },
    {
      "constant": false,
      "inputs": [
        {
          "components": [
            {
              "internalType": "string",
              "name": "nombre",
              "type": "string"
            },
            {
              "internalType": "uint256",
              "name": "idAcreditacion",
              "type": "uint256"
            },
            {
              "internalType": "uint256",
              "name": "idUsuario",
              "type": "uint256"
            },
            {
              "internalType": "int256",
              "name": "ignos",
              "type": "int256"
            }
          ],
          "internalType": "struct ServiciosAcreditacion.Acreditacion",
          "name": "_acreditacion",
          "type": "tuple"
        }
      ],
      "name": "agregarAcreditacion",
      "outputs": [],
      "payable": false,
      "stateMutability": "nonpayable",
      "type": "function"
    },
    {
      "constant": true,
      "inputs": [
        {
          "internalType": "uint256",
          "name": "id",
          "type": "uint256"
        }
      ],
      "name": "getAcreditacion",
      "outputs": [
        {
          "components": [
            {
              "internalType": "string",
              "name": "nombre",
              "type": "string"
            },
            {
              "internalType": "uint256",
              "name": "idAcreditacion",
              "type": "uint256"
            },
            {
              "internalType": "uint256",
              "name": "idUsuario",
              "type": "uint256"
            },
            {
              "internalType": "int256",
              "name": "ignos",
              "type": "int256"
            }
          ],
          "internalType": "struct ServiciosAcreditacion.Acreditacion",
          "name": "acreditacion",
          "type": "tuple"
        }
      ],
      "payable": false,
      "stateMutability": "view",
      "type": "function"
    },
    {
      "constant": true,
      "inputs": [],
      "name": "getAcreditacions",
      "outputs": [
        {
          "components": [
            {
              "internalType": "string",
              "name": "nombre",
              "type": "string"
            },
            {
              "internalType": "uint256",
              "name": "idAcreditacion",
              "type": "uint256"
            },
            {
              "internalType": "uint256",
              "name": "idUsuario",
              "type": "uint256"
            },
            {
              "internalType": "int256",
              "name": "ignos",
              "type": "int256"
            }
          ],
          "internalType": "struct ServiciosAcreditacion.Acreditacion[]",
          "name": "acreditacion",
          "type": "tuple[]"
        }
      ],
      "payable": false,
      "stateMutability": "view",
      "type": "function"
    },
    {
      "constant": false,
      "inputs": [
        {
          "components": [
            {
              "internalType": "uint256",
              "name": "idAcreditacion",
              "type": "uint256"
            },
            {
              "internalType": "uint256",
              "name": "idAspirante",
              "type": "uint256"
            }
          ],
          "internalType": "struct ServiciosAcreditacion.AspiranteAcreditacion",
          "name": "_acreditacionAspirante",
          "type": "tuple"
        }
      ],
      "name": "agregarAspiranteAcreditacion",
      "outputs": [],
      "payable": false,
      "stateMutability": "nonpayable",
      "type": "function"
    },
    {
      "constant": true,
      "inputs": [
        {
          "internalType": "uint256",
          "name": "idUsuario",
          "type": "uint256"
        },
        {
          "internalType": "uint256",
          "name": "idAcreditacion",
          "type": "uint256"
        }
      ],
      "name": "getAspiranteAcreditacion",
      "outputs": [
        {
          "components": [
            {
              "internalType": "uint256",
              "name": "idAcreditacion",
              "type": "uint256"
            },
            {
              "internalType": "uint256",
              "name": "idAspirante",
              "type": "uint256"
            }
          ],
          "internalType": "struct ServiciosAcreditacion.AspiranteAcreditacion",
          "name": "acreditacionAspirante",
          "type": "tuple"
        }
      ],
      "payable": false,
      "stateMutability": "view",
      "type": "function"
    },
    {
      "constant": true,
      "inputs": [],
      "name": "getAspirantes",
      "outputs": [
        {
          "components": [
            {
              "internalType": "uint256",
              "name": "idAcreditacion",
              "type": "uint256"
            },
            {
              "internalType": "uint256",
              "name": "idAspirante",
              "type": "uint256"
            }
          ],
          "internalType": "struct ServiciosAcreditacion.AspiranteAcreditacion[]",
          "name": "acreditacionAspirante",
          "type": "tuple[]"
        }
      ],
      "payable": false,
      "stateMutability": "view",
      "type": "function"
    },
    {
      "constant": true,
      "inputs": [
        {
          "internalType": "uint256",
          "name": "idAcreditacion",
          "type": "uint256"
        }
      ],
      "name": "getAspirantesPorAcreditacion",
      "outputs": [
        {
          "components": [
            {
              "internalType": "uint256",
              "name": "idAcreditacion",
              "type": "uint256"
            },
            {
              "internalType": "uint256",
              "name": "idAspirante",
              "type": "uint256"
            }
          ],
          "internalType": "struct ServiciosAcreditacion.AspiranteAcreditacion[]",
          "name": "acreditacionAspirante",
          "type": "tuple[]"
        }
      ],
      "payable": false,
      "stateMutability": "view",
      "type": "function"
    }
  ],
  "bytecode": "0x608060405234801561001057600080fd5b5061001961010b565b6040518060400160405280600d81526020017f507974686f6e204261736963730000000000000000000000000000000000000081525081600001819052506001816020018181525050600181604001818152505060648160600181815250506000805490506001600083602001518152602001908152602001600020819055506000819080600181540180825580915050906001820390600052602060002090600402016000909192909190915060008201518160000190805190602001906100e3929190610133565b50602082015181600101556040820151816002015560608201518160030155505050506101d8565b6040518060800160405280606081526020016000815260200160008152602001600081525090565b828054600181600116156101000203166002900490600052602060002090601f016020900481019282601f1061017457805160ff19168380011785556101a2565b828001600101855582156101a2579182015b828111156101a1578251825591602001919060010190610186565b5b5090506101af91906101b3565b5090565b6101d591905b808211156101d15760008160009055506001016101b9565b5090565b90565b610ea780620001e86000396000f3fe608060405234801561001057600080fd5b506004361061007d5760003560e01c8063aa2da1771161005b578063aa2da177146100ee578063b9be3f011461011e578063bc7af1c61461013a578063cac3a3911461016a5761007d565b80630e028e471461008257806330f467e5146100a05780639d97ef0c146100be575b600080fd5b61008a610186565b6040516100979190610c67565b60405180910390f35b6100a86102a5565b6040516100b59190610c89565b60405180910390f35b6100d860048036036100d39190810190610988565b610318565b6040516100e59190610c89565b60405180910390f35b61010860048036036101039190810190610988565b61040d565b6040516101159190610cab565b60405180910390f35b6101386004803603610133919081019061095f565b610515565b005b610154600480360361014f91908101906109b1565b61055d565b6040516101619190610ccd565b60405180910390f35b610184600480360361017f919081019061091e565b610637565b005b60606000805480602002602001604051908101604052809291908181526020016000905b8282101561029c5783829060005260206000209060040201604051806080016040529081600082018054600181600116156101000203166002900480601f0160208091040260200160405190810160405280929190818152602001828054600181600116156101000203166002900480156102665780601f1061023b57610100808354040283529160200191610266565b820191906000526020600020905b81548152906001019060200180831161024957829003601f168201915b505050505081526020016001820154815260200160028201548152602001600382015481525050815260200190600101906101aa565b50505050905090565b60606002805480602002602001604051908101604052809291908181526020016000905b8282101561030f578382906000526020600020906002020160405180604001604052908160008201548152602001600182015481525050815260200190600101906102c9565b50505050905090565b60608060028054905060405190808252806020026020018201604052801561035a57816020015b6103476106c7565b81526020019060019003908161033f5790505b509050600080905060008090505b60028054905081101561040257846002828154811061038357fe5b90600052602060002090600202016000015414156103f557600281815481106103a857fe5b9060005260206000209060020201604051806040016040529081600082015481526020016001820154815250508383815181106103e157fe5b602002602001018190525081806001019250505b8080600101915050610368565b508192505050919050565b6104156106e1565b600060016000848152602001908152602001600020548154811061043557fe5b9060005260206000209060040201604051806080016040529081600082018054600181600116156101000203166002900480601f0160208091040260200160405190810160405280929190818152602001828054600181600116156101000203166002900480156104e75780601f106104bc576101008083540402835291602001916104e7565b820191906000526020600020905b8154815290600101906020018083116104ca57829003601f168201915b5050505050815260200160018201548152602001600282015481526020016003820154815250509050919050565b60028190806001815401808255809150509060018203906000526020600020906002020160009091929091909150600082015181600001556020820151816001015550505050565b610565610709565b60008090505b60028054905081101561061657826002828154811061058657fe5b9060005260206000209060020201600001541480156105c2575083600282815481106105ae57fe5b906000526020600020906002020160010154145b1561060957600281815481106105d457fe5b906000526020600020906002020160405180604001604052908160008201548152602001600182015481525050915050610631565b808060010191505061056b565b50604051806040016040528060008152602001600081525090505b92915050565b6000805490506001600083602001518152602001908152602001600020819055506000819080600181540180825580915050906001820390600052602060002090600402016000909192909190915060008201518160000190805190602001906106a2929190610723565b5060208201518160010155604082015181600201556060820151816003015550505050565b604051806040016040528060008152602001600081525090565b6040518060800160405280606081526020016000815260200160008152602001600081525090565b604051806040016040528060008152602001600081525090565b828054600181600116156101000203166002900490600052602060002090601f016020900481019282601f1061076457805160ff1916838001178555610792565b82800160010185558215610792579182015b82811115610791578251825591602001919060010190610776565b5b50905061079f91906107a3565b5090565b6107c591905b808211156107c15760008160009055506001016107a9565b5090565b90565b6000813590506107d781610e36565b92915050565b600082601f8301126107ee57600080fd5b81356108016107fc82610d15565b610ce8565b9150808252602083016020830185838301111561081d57600080fd5b610828838284610de3565b50505092915050565b60006080828403121561084357600080fd5b61084d6080610ce8565b9050600082013567ffffffffffffffff81111561086957600080fd5b610875848285016107dd565b600083015250602061088984828501610909565b602083015250604061089d84828501610909565b60408301525060606108b1848285016107c8565b60608301525092915050565b6000604082840312156108cf57600080fd5b6108d96040610ce8565b905060006108e984828501610909565b60008301525060206108fd84828501610909565b60208301525092915050565b60008135905061091881610e4d565b92915050565b60006020828403121561093057600080fd5b600082013567ffffffffffffffff81111561094a57600080fd5b61095684828501610831565b91505092915050565b60006040828403121561097157600080fd5b600061097f848285016108bd565b91505092915050565b60006020828403121561099a57600080fd5b60006109a884828501610909565b91505092915050565b600080604083850312156109c457600080fd5b60006109d285828601610909565b92505060206109e385828601610909565b9150509250929050565b60006109f98383610b97565b905092915050565b6000610a0d8383610c29565b60408301905092915050565b6000610a2482610d61565b610a2e8185610d9c565b935083602082028501610a4085610d41565b8060005b85811015610a7c5784840389528151610a5d85826109ed565b9450610a6883610d82565b925060208a01995050600181019050610a44565b50829750879550505050505092915050565b6000610a9982610d6c565b610aa38185610dad565b9350610aae83610d51565b8060005b83811015610adf578151610ac68882610a01565b9750610ad183610d8f565b925050600181019050610ab2565b5085935050505092915050565b610af581610dcf565b82525050565b6000610b0682610d77565b610b108185610dbe565b9350610b20818560208601610df2565b610b2981610e25565b840191505092915050565b60006080830160008301518482036000860152610b518282610afb565b9150506020830151610b666020860182610c58565b506040830151610b796040860182610c58565b506060830151610b8c6060860182610aec565b508091505092915050565b60006080830160008301518482036000860152610bb48282610afb565b9150506020830151610bc96020860182610c58565b506040830151610bdc6040860182610c58565b506060830151610bef6060860182610aec565b508091505092915050565b604082016000820151610c106000850182610c58565b506020820151610c236020850182610c58565b50505050565b604082016000820151610c3f6000850182610c58565b506020820151610c526020850182610c58565b50505050565b610c6181610dd9565b82525050565b60006020820190508181036000830152610c818184610a19565b905092915050565b60006020820190508181036000830152610ca38184610a8e565b905092915050565b60006020820190508181036000830152610cc58184610b34565b905092915050565b6000604082019050610ce26000830184610bfa565b92915050565b6000604051905081810181811067ffffffffffffffff82111715610d0b57600080fd5b8060405250919050565b600067ffffffffffffffff821115610d2c57600080fd5b601f19601f8301169050602081019050919050565b6000819050602082019050919050565b6000819050602082019050919050565b600081519050919050565b600081519050919050565b600081519050919050565b6000602082019050919050565b6000602082019050919050565b600082825260208201905092915050565b600082825260208201905092915050565b600082825260208201905092915050565b6000819050919050565b6000819050919050565b82818337600083830152505050565b60005b83811015610e10578082015181840152602081019050610df5565b83811115610e1f576000848401525b50505050565b6000601f19601f8301169050919050565b610e3f81610dcf565b8114610e4a57600080fd5b50565b610e5681610dd9565b8114610e6157600080fd5b5056fea365627a7a7231582066eeddb84db6d85e9809d4bbd346297fc82290a1a3031f3dd871651c1baa66af6c6578706572696d656e74616cf564736f6c63430005100040",
  "source": "pragma solidity >=0.4.21 <0.7.0;\r\npragma experimental ABIEncoderV2;\r\n\r\ncontract ServiciosUsuario {\r\n    Usuario[] usuarios;\r\n    mapping(uint256 => uint256) usuariosMap;\r\n\r\n    struct Usuario {\r\n        string nombre;\r\n        uint256 cedula;\r\n    }\r\n\r\n    constructor() public {\r\n        Usuario memory usuario_;\r\n        usuario_.nombre = \"User 1\";\r\n        usuario_.cedula = 1;\r\n        usuariosMap[usuario_.cedula] = usuarios.length;\r\n        usuarios.push(usuario_);\r\n    }\r\n\r\n    function agregarUsuario(Usuario memory _usuario) public {\r\n        usuariosMap[_usuario.cedula] = usuarios.length;\r\n        usuarios.push(_usuario);\r\n    }\r\n\r\n    function getUsuario(uint256 id)\r\n        public\r\n        view\r\n        returns (Usuario memory usuario)\r\n    {\r\n        return usuarios[usuariosMap[id]];\r\n    }\r\n\r\n    function getUsuarios() public view returns (Usuario[] memory usuario) {\r\n        return usuarios;\r\n    }\r\n}\r\n\r\ncontract ServiciosAcreditacion {\r\n    Acreditacion[] acreditaciones;\r\n    mapping(uint256 => uint256) acreditacionesMap;\r\n\r\n    AspiranteAcreditacion[] aspirantes;\r\n\r\n    struct AspiranteAcreditacion {\r\n        uint256 idAcreditacion;\r\n        uint256 idAspirante;\r\n    }\r\n\r\n    struct Acreditacion {\r\n        string nombre;\r\n        uint256 idAcreditacion;\r\n        uint256 idUsuario;\r\n        int256 ignos;\r\n    }\r\n\r\n    constructor() public {\r\n        Acreditacion memory acreditacion_;\r\n        acreditacion_.nombre = \"Python Basics\";\r\n        acreditacion_.idAcreditacion = 1;\r\n        acreditacion_.idUsuario = 1;\r\n        acreditacion_.ignos = 100;\r\n\r\n        acreditacionesMap[acreditacion_.idAcreditacion] = acreditaciones.length;\r\n        acreditaciones.push(acreditacion_);\r\n    }\r\n\r\n    function agregarAcreditacion(Acreditacion memory _acreditacion) public {\r\n        acreditacionesMap[_acreditacion.idAcreditacion] = acreditaciones.length;\r\n        acreditaciones.push(_acreditacion);\r\n    }\r\n\r\n    function getAcreditacion(uint256 id)\r\n        public\r\n        view\r\n        returns (Acreditacion memory acreditacion)\r\n    {\r\n        return acreditaciones[acreditacionesMap[id]];\r\n    }\r\n\r\n    function getAcreditacions()\r\n        public\r\n        view\r\n        returns (Acreditacion[] memory acreditacion)\r\n    {\r\n        return acreditaciones;\r\n    }\r\n\r\n    /* Aspirante */\r\n\r\n    function agregarAspiranteAcreditacion(\r\n        AspiranteAcreditacion memory _acreditacionAspirante\r\n    ) public {\r\n        aspirantes.push(_acreditacionAspirante);\r\n    }\r\n\r\n    function getAspiranteAcreditacion(uint256 idUsuario, uint256 idAcreditacion)\r\n        public\r\n        view\r\n        returns (AspiranteAcreditacion memory acreditacionAspirante)\r\n    {\r\n        for (uint256 i = 0; i < aspirantes.length; i++) {\r\n            if (\r\n                aspirantes[i].idAcreditacion == idAcreditacion &&\r\n                aspirantes[i].idAspirante == idUsuario\r\n            ) return aspirantes[i];\r\n        }\r\n        return AspiranteAcreditacion(0, 0);\r\n    }\r\n\r\n    function getAspirantes()\r\n        public\r\n        view\r\n        returns (AspiranteAcreditacion[] memory acreditacionAspirante)\r\n    {\r\n        return aspirantes;\r\n    }\r\n\r\n    function getAspirantesPorAcreditacion(uint256 idAcreditacion)\r\n        public\r\n        view\r\n        returns (AspiranteAcreditacion[] memory acreditacionAspirante)\r\n    {\r\n        AspiranteAcreditacion[] memory res = new AspiranteAcreditacion[](\r\n            aspirantes.length\r\n        );\r\n        uint256 j = 0;\r\n        for (uint256 i = 0; i < aspirantes.length; i++) {\r\n            if (aspirantes[i].idAcreditacion == idAcreditacion) {\r\n                res[j] = aspirantes[i];\r\n                j++;\r\n            }\r\n        }\r\n        return res;\r\n    }\r\n}\r\n",
  "sourcePath": "C:\\Users\\lopez\\Documents\\GitHub\\KAPlatform\\contracts\\ContratosAplicacion.sol",
  "compiler": {
    "name": "solc",
    "version": "0.5.16+commit.9c3226ce.Emscripten.clang"
  },
  "schemaVersion": "3.2.0",
  "updatedAt": "2020-07-15T00:59:54.207Z",
  "networkType": "ethereum",
  "devdoc": {
    "methods": {}
  },
  "userdoc": {
    "methods": {}
  }
}