{
  "contractName": "TestContract",
  "abi": [
    {
      "inputs": [],
      "payable": false,
      "stateMutability": "nonpayable",
      "type": "constructor"
    },
    {
      "constant": true,
      "inputs": [],
      "name": "getTestName",
      "outputs": [
        {
          "internalType": "string",
          "name": "",
          "type": "string"
        }
      ],
      "payable": false,
      "stateMutability": "view",
      "type": "function"
    }
  ],
  "bytecode": "0x608060405234801561001057600080fd5b5060405180606001604052806040518060400160405280600881526020017f746573744e616d650000000000000000000000000000000000000000000000008152508152602001601581526020016001815250600160006001815260200190815260200160002060008201518160000190805190602001906100939291906100b8565b506020820151816001015560408201518160020155905050600160008190555061015d565b828054600181600116156101000203166002900490600052602060002090601f016020900481019282601f106100f957805160ff1916838001178555610127565b82800160010185558215610127579182015b8281111561012657825182559160200191906001019061010b565b5b5090506101349190610138565b5090565b61015a91905b8082111561015657600081600090555060010161013e565b5090565b90565b61019f8061016c6000396000f3fe608060405234801561001057600080fd5b506004361061002b5760003560e01c806358bee3db14610030575b600080fd5b6100386100b3565b6040518080602001828103825283818151815260200191508051906020019080838360005b8381101561007857808201518184015260208101905061005d565b50505050905090810190601f1680156100a55780820380516001836020036101000a031916815260200191505b509250505060405180910390f35b606060016000600181526020019081526020016000206000018054600181600116156101000203166002900480601f0160208091040260200160405190810160405280929190818152602001828054600181600116156101000203166002900480156101605780601f1061013557610100808354040283529160200191610160565b820191906000526020600020905b81548152906001019060200180831161014357829003601f168201915b505050505090509056fea265627a7a72315820cc3d544743af322201bffe9e832ea3e4c6f3a5cadad3b1ab7aa6d5a3182fd29064736f6c63430005100032",
  "source": "// SPDX-License-Identifier: MIT\r\npragma solidity >=0.4.21 <0.7.0;\r\n\r\ncontract TestContract {\r\n\r\n    struct TestUser {\r\n        string name;\r\n        uint age;\r\n        uint id;\r\n    }\r\n\r\n    uint lastUser;\r\n\r\n    mapping(uint => TestUser) usuarios;\r\n\r\n    constructor () public {\r\n        usuarios[1] = TestUser({name: \"testName\", age: 21, id: 1});\r\n        lastUser = 1;\r\n    }\r\n\r\n    function getTestName() public view returns(string memory) {\r\n        return usuarios[1].name;\r\n    }\r\n\r\n}",
  "sourcePath": "C:\\Users\\felip\\Documents\\Kraken\\KAPlatform\\contracts\\TestContract.sol",
  "compiler": {
    "name": "solc",
    "version": "0.5.16+commit.9c3226ce.Emscripten.clang"
  },
  "schemaVersion": "3.2.0",
  "updatedAt": "2020-07-15T03:01:46.440Z",
  "networkType": "ethereum",
  "devdoc": {
    "methods": {}
  },
  "userdoc": {
    "methods": {}
  }
}